{
	"testfunout.sol": {
		"Variables": {
			"abi": [
				{
					"inputs": [],
					"name": "bar",
					"outputs": [
						{
							"internalType": "uint256",
							"name": "",
							"type": "uint256"
						}
					],
					"stateMutability": "pure",
					"type": "function"
				},
				{
					"inputs": [],
					"name": "etherUnit",
					"outputs": [
						{
							"internalType": "uint256",
							"name": "",
							"type": "uint256"
						}
					],
					"stateMutability": "pure",
					"type": "function"
				},
				{
					"inputs": [],
					"name": "foo",
					"outputs": [],
					"stateMutability": "nonpayable",
					"type": "function"
				},
				{
					"inputs": [],
					"name": "global",
					"outputs": [
						{
							"internalType": "address",
							"name": "",
							"type": "address"
						},
						{
							"internalType": "uint256",
							"name": "",
							"type": "uint256"
						},
						{
							"internalType": "bytes",
							"name": "",
							"type": "bytes"
						}
					],
					"stateMutability": "view",
					"type": "function"
				},
				{
					"inputs": [],
					"name": "gweiUnit",
					"outputs": [
						{
							"internalType": "uint256",
							"name": "",
							"type": "uint256"
						}
					],
					"stateMutability": "pure",
					"type": "function"
				},
				{
					"inputs": [],
					"name": "hoursUnit",
					"outputs": [
						{
							"internalType": "uint256",
							"name": "",
							"type": "uint256"
						}
					],
					"stateMutability": "pure",
					"type": "function"
				},
				{
					"inputs": [],
					"name": "minutesUnit",
					"outputs": [
						{
							"internalType": "uint256",
							"name": "",
							"type": "uint256"
						}
					],
					"stateMutability": "pure",
					"type": "function"
				},
				{
					"inputs": [],
					"name": "secondsUnit",
					"outputs": [
						{
							"internalType": "uint256",
							"name": "",
							"type": "uint256"
						}
					],
					"stateMutability": "pure",
					"type": "function"
				},
				{
					"inputs": [],
					"name": "weeksUnit",
					"outputs": [
						{
							"internalType": "uint256",
							"name": "",
							"type": "uint256"
						}
					],
					"stateMutability": "pure",
					"type": "function"
				},
				{
					"inputs": [],
					"name": "weiUnit",
					"outputs": [
						{
							"internalType": "uint256",
							"name": "",
							"type": "uint256"
						}
					],
					"stateMutability": "pure",
					"type": "function"
				},
				{
					"inputs": [],
					"name": "x",
					"outputs": [
						{
							"internalType": "uint256",
							"name": "",
							"type": "uint256"
						}
					],
					"stateMutability": "view",
					"type": "function"
				},
				{
					"inputs": [],
					"name": "y",
					"outputs": [
						{
							"internalType": "uint256",
							"name": "",
							"type": "uint256"
						}
					],
					"stateMutability": "view",
					"type": "function"
				},
				{
					"inputs": [],
					"name": "z",
					"outputs": [
						{
							"internalType": "string",
							"name": "",
							"type": "string"
						}
					],
					"stateMutability": "view",
					"type": "function"
				}
			],
			"devdoc": {
				"kind": "dev",
				"methods": {},
				"version": 1
			},
			"evm": {
				"assembly": "    /* \"testfunout.sol\":1361:3251  contract Variables {... */\n  mstore(0x40, 0x80)\n    /* \"testfunout.sol\":1548:1549  1 */\n  0x01\n    /* \"testfunout.sol\":1532:1549  uint public x = 1 */\n  0x00\n  sstore\n    /* \"testfunout.sol\":1361:3251  contract Variables {... */\n  callvalue\n  dup1\n  iszero\n  tag_1\n  jumpi\n  0x00\n  dup1\n  revert\ntag_1:\n  pop\n  dataSize(sub_0)\n  dup1\n  dataOffset(sub_0)\n  0x00\n  codecopy\n  0x00\n  return\nstop\n\nsub_0: assembly {\n        /* \"testfunout.sol\":1361:3251  contract Variables {... */\n      mstore(0x40, 0x80)\n      callvalue\n      dup1\n      iszero\n      tag_1\n      jumpi\n      0x00\n      dup1\n      revert\n    tag_1:\n      pop\n      jumpi(tag_2, lt(calldatasize, 0x04))\n      shr(0xe0, calldataload(0x00))\n      dup1\n      0xaec3d640\n      gt\n      tag_16\n      jumpi\n      dup1\n      0xc5d7802e\n      gt\n      tag_17\n      jumpi\n      dup1\n      0xc5d7802e\n      eq\n      tag_12\n      jumpi\n      dup1\n      0xcb9f1220\n      eq\n      tag_13\n      jumpi\n      dup1\n      0xf1e6d198\n      eq\n      tag_14\n      jumpi\n      dup1\n      0xfebb0f7e\n      eq\n      tag_15\n      jumpi\n      jump(tag_2)\n    tag_17:\n      dup1\n      0xaec3d640\n      eq\n      tag_9\n      jumpi\n      dup1\n      0xbe44f864\n      eq\n      tag_10\n      jumpi\n      dup1\n      0xc2985578\n      eq\n      tag_11\n      jumpi\n      jump(tag_2)\n    tag_16:\n      dup1\n      0x09879682\n      eq\n      tag_3\n      jumpi\n      dup1\n      0x0c55699c\n      eq\n      tag_4\n      jumpi\n      dup1\n      0x12176349\n      eq\n      tag_5\n      jumpi\n      dup1\n      0x2aca45f1\n      eq\n      tag_6\n      jumpi\n      dup1\n      0xa05f9906\n      eq\n      tag_7\n      jumpi\n      dup1\n      0xa56dfe4a\n      eq\n      tag_8\n      jumpi\n    tag_2:\n      0x00\n      dup1\n      revert\n        /* \"testfunout.sol\":2659:2775  function secondsUnit() external pure returns(uint) {... */\n    tag_3:\n      tag_18\n      tag_19\n      jump\t// in\n    tag_18:\n      mload(0x40)\n      tag_20\n      swap2\n      swap1\n      tag_21\n      jump\t// in\n    tag_20:\n      mload(0x40)\n      dup1\n      swap2\n      sub\n      swap1\n      return\n        /* \"testfunout.sol\":1532:1549  uint public x = 1 */\n    tag_4:\n      tag_22\n      tag_23\n      jump\t// in\n    tag_22:\n      mload(0x40)\n      tag_24\n      swap2\n      swap1\n      tag_21\n      jump\t// in\n    tag_24:\n      mload(0x40)\n      dup1\n      swap2\n      sub\n      swap1\n      return\n        /* \"testfunout.sol\":2180:2314  function weiUnit() external pure returns(uint) {... */\n    tag_5:\n      tag_25\n      tag_26\n      jump\t// in\n    tag_25:\n      mload(0x40)\n      tag_27\n      swap2\n      swap1\n      tag_21\n      jump\t// in\n    tag_27:\n      mload(0x40)\n      dup1\n      swap2\n      sub\n      swap1\n      return\n        /* \"testfunout.sol\":3099:3249  function weeksUnit() external pure returns(uint) {... */\n    tag_6:\n      tag_28\n      tag_29\n      jump\t// in\n    tag_28:\n      mload(0x40)\n      tag_30\n      swap2\n      swap1\n      tag_21\n      jump\t// in\n    tag_30:\n      mload(0x40)\n      dup1\n      swap2\n      sub\n      swap1\n      return\n        /* \"testfunout.sol\":1871:2098  function global() external view returns (address,uint,bytes memory) {... */\n    tag_7:\n      tag_31\n      tag_32\n      jump\t// in\n    tag_31:\n      mload(0x40)\n      tag_33\n      swap4\n      swap3\n      swap2\n      swap1\n      tag_34\n      jump\t// in\n    tag_33:\n      mload(0x40)\n      dup1\n      swap2\n      sub\n      swap1\n      return\n        /* \"testfunout.sol\":1555:1568  uint public y */\n    tag_8:\n      tag_35\n      tag_36\n      jump\t// in\n    tag_35:\n      mload(0x40)\n      tag_37\n      swap2\n      swap1\n      tag_21\n      jump\t// in\n    tag_37:\n      mload(0x40)\n      dup1\n      swap2\n      sub\n      swap1\n      return\n        /* \"testfunout.sol\":2320:2467  function gweiUnit() external pure returns(uint) {... */\n    tag_9:\n      tag_38\n      tag_39\n      jump\t// in\n    tag_38:\n      mload(0x40)\n      tag_40\n      swap2\n      swap1\n      tag_21\n      jump\t// in\n    tag_40:\n      mload(0x40)\n      dup1\n      swap2\n      sub\n      swap1\n      return\n        /* \"testfunout.sol\":2945:3093  function hoursUnit() external pure returns(uint) {... */\n    tag_10:\n      tag_41\n      tag_42\n      jump\t// in\n    tag_41:\n      mload(0x40)\n      tag_43\n      swap2\n      swap1\n      tag_21\n      jump\t// in\n    tag_43:\n      mload(0x40)\n      dup1\n      swap2\n      sub\n      swap1\n      return\n        /* \"testfunout.sol\":1639:1720  function foo() external {... */\n    tag_11:\n      tag_44\n      tag_45\n      jump\t// in\n    tag_44:\n      stop\n        /* \"testfunout.sol\":1574:1589  string public z */\n    tag_12:\n      tag_46\n      tag_47\n      jump\t// in\n    tag_46:\n      mload(0x40)\n      tag_48\n      swap2\n      swap1\n      tag_49\n      jump\t// in\n    tag_48:\n      mload(0x40)\n      dup1\n      swap2\n      sub\n      swap1\n      return\n        /* \"testfunout.sol\":2473:2634  function etherUnit() external pure returns(uint) {... */\n    tag_13:\n      tag_50\n      tag_51\n      jump\t// in\n    tag_50:\n      mload(0x40)\n      tag_52\n      swap2\n      swap1\n      tag_21\n      jump\t// in\n    tag_52:\n      mload(0x40)\n      dup1\n      swap2\n      sub\n      swap1\n      return\n        /* \"testfunout.sol\":2781:2939  function minutesUnit() external pure returns(uint) {... */\n    tag_14:\n      tag_53\n      tag_54\n      jump\t// in\n    tag_53:\n      mload(0x40)\n      tag_55\n      swap2\n      swap1\n      tag_21\n      jump\t// in\n    tag_55:\n      mload(0x40)\n      dup1\n      swap2\n      sub\n      swap1\n      return\n        /* \"testfunout.sol\":1726:1865  function bar() external pure returns(uint) {... */\n    tag_15:\n      tag_56\n      tag_57\n      jump\t// in\n    tag_56:\n      mload(0x40)\n      tag_58\n      swap2\n      swap1\n      tag_21\n      jump\t// in\n    tag_58:\n      mload(0x40)\n      dup1\n      swap2\n      sub\n      swap1\n      return\n        /* \"testfunout.sol\":2659:2775  function secondsUnit() external pure returns(uint) {... */\n    tag_19:\n        /* \"testfunout.sol\":2704:2708  uint */\n      0x00\n        /* \"testfunout.sol\":2740:2741  1 */\n      0x01\n        /* \"testfunout.sol\":2727:2736  1 seconds */\n      dup1\n        /* \"testfunout.sol\":2727:2741  1 seconds == 1 */\n      eq\n        /* \"testfunout.sol\":2720:2742  assert(1 seconds == 1) */\n      tag_60\n      jumpi\n      tag_61\n      tag_62\n      jump\t// in\n    tag_61:\n    tag_60:\n        /* \"testfunout.sol\":2759:2768  1 seconds */\n      0x01\n        /* \"testfunout.sol\":2752:2768  return 1 seconds */\n      swap1\n      pop\n        /* \"testfunout.sol\":2659:2775  function secondsUnit() external pure returns(uint) {... */\n      swap1\n      jump\t// out\n        /* \"testfunout.sol\":1532:1549  uint public x = 1 */\n    tag_23:\n      sload(0x00)\n      dup2\n      jump\t// out\n        /* \"testfunout.sol\":2180:2314  function weiUnit() external pure returns(uint) {... */\n    tag_26:\n        /* \"testfunout.sol\":2221:2225  uint */\n      0x00\n        /* \"testfunout.sol\":2253:2256  1e0 */\n      0x01\n        /* \"testfunout.sol\":2244:2249  1 wei */\n      dup1\n        /* \"testfunout.sol\":2244:2256  1 wei == 1e0 */\n      eq\n        /* \"testfunout.sol\":2237:2257  assert(1 wei == 1e0) */\n      tag_64\n      jumpi\n      tag_65\n      tag_62\n      jump\t// in\n    tag_65:\n    tag_64:\n        /* \"testfunout.sol\":2283:2284  1 */\n      0x01\n        /* \"testfunout.sol\":2274:2279  1 wei */\n      dup1\n        /* \"testfunout.sol\":2274:2284  1 wei == 1 */\n      eq\n        /* \"testfunout.sol\":2267:2285  assert(1 wei == 1) */\n      tag_66\n      jumpi\n      tag_67\n      tag_62\n      jump\t// in\n    tag_67:\n    tag_66:\n        /* \"testfunout.sol\":2302:2307  1 wei */\n      0x01\n        /* \"testfunout.sol\":2295:2307  return 1 wei */\n      swap1\n      pop\n        /* \"testfunout.sol\":2180:2314  function weiUnit() external pure returns(uint) {... */\n      swap1\n      jump\t// out\n        /* \"testfunout.sol\":3099:3249  function weeksUnit() external pure returns(uint) {... */\n    tag_29:\n        /* \"testfunout.sol\":3142:3146  uint */\n      0x00\n        /* \"testfunout.sol\":3176:3182  604800 */\n      0x093a80\n        /* \"testfunout.sol\":3165:3172  1 weeks */\n      dup1\n        /* \"testfunout.sol\":3165:3182  1 weeks == 604800 */\n      eq\n        /* \"testfunout.sol\":3158:3183  assert(1 weeks == 604800) */\n      tag_69\n      jumpi\n      tag_70\n      tag_62\n      jump\t// in\n    tag_70:\n    tag_69:\n        /* \"testfunout.sol\":3211:3217  7 days */\n      0x093a80\n        /* \"testfunout.sol\":3200:3207  1 weeks */\n      dup1\n        /* \"testfunout.sol\":3200:3217  1 weeks == 7 days */\n      eq\n        /* \"testfunout.sol\":3193:3218  assert(1 weeks == 7 days) */\n      tag_71\n      jumpi\n      tag_72\n      tag_62\n      jump\t// in\n    tag_72:\n    tag_71:\n        /* \"testfunout.sol\":3235:3242  1 weeks */\n      0x093a80\n        /* \"testfunout.sol\":3228:3242  return 1 weeks */\n      swap1\n      pop\n        /* \"testfunout.sol\":3099:3249  function weeksUnit() external pure returns(uint) {... */\n      swap1\n      jump\t// out\n        /* \"testfunout.sol\":1871:2098  function global() external view returns (address,uint,bytes memory) {... */\n    tag_32:\n        /* \"testfunout.sol\":1912:1919  address */\n      0x00\n        /* \"testfunout.sol\":1920:1924  uint */\n      dup1\n        /* \"testfunout.sol\":1925:1937  bytes memory */\n      0x60\n        /* \"testfunout.sol\":1949:1963  address sender */\n      0x00\n        /* \"testfunout.sol\":1966:1976  msg.sender */\n      caller\n        /* \"testfunout.sol\":1949:1976  address sender = msg.sender */\n      swap1\n      pop\n        /* \"testfunout.sol\":1986:1999  uint blockNum */\n      0x00\n        /* \"testfunout.sol\":2002:2014  block.number */\n      number\n        /* \"testfunout.sol\":1986:2014  uint blockNum = block.number */\n      swap1\n      pop\n        /* \"testfunout.sol\":2024:2041  bytes memory data */\n      0x00\n        /* \"testfunout.sol\":2044:2052  msg.data */\n      dup1\n      calldatasize\n        /* \"testfunout.sol\":2024:2052  bytes memory data = msg.data */\n      dup1\n      dup1\n      0x1f\n      add\n      0x20\n      dup1\n      swap2\n      div\n      mul\n      0x20\n      add\n      mload(0x40)\n      swap1\n      dup2\n      add\n      0x40\n      mstore\n      dup1\n      swap4\n      swap3\n      swap2\n      swap1\n      dup2\n      dup2\n      mstore\n      0x20\n      add\n      dup4\n      dup4\n      dup1\n      dup3\n      dup5\n      calldatacopy\n      0x00\n      dup2\n      dup5\n      add\n      mstore\n      not(0x1f)\n      0x1f\n      dup3\n      add\n      and\n      swap1\n      pop\n      dup1\n      dup4\n      add\n      swap3\n      pop\n      pop\n      pop\n      pop\n      pop\n      pop\n      pop\n      swap1\n      pop\n        /* \"testfunout.sol\":2070:2076  sender */\n      dup3\n        /* \"testfunout.sol\":2077:2085  blockNum */\n      dup3\n        /* \"testfunout.sol\":2086:2090  data */\n      dup3\n        /* \"testfunout.sol\":2062:2091  return (sender,blockNum,data) */\n      swap6\n      pop\n      swap6\n      pop\n      swap6\n      pop\n      pop\n      pop\n      pop\n        /* \"testfunout.sol\":1871:2098  function global() external view returns (address,uint,bytes memory) {... */\n      swap1\n      swap2\n      swap3\n      jump\t// out\n        /* \"testfunout.sol\":1555:1568  uint public y */\n    tag_36:\n      sload(0x01)\n      dup2\n      jump\t// out\n        /* \"testfunout.sol\":2320:2467  function gweiUnit() external pure returns(uint) {... */\n    tag_39:\n        /* \"testfunout.sol\":2362:2366  uint */\n      0x00\n        /* \"testfunout.sol\":2395:2398  1e9 */\n      0x3b9aca00\n        /* \"testfunout.sol\":2385:2391  1 gwei */\n      dup1\n        /* \"testfunout.sol\":2385:2398  1 gwei == 1e9 */\n      eq\n        /* \"testfunout.sol\":2378:2399  assert(1 gwei == 1e9) */\n      tag_75\n      jumpi\n      tag_76\n      tag_62\n      jump\t// in\n    tag_76:\n    tag_75:\n        /* \"testfunout.sol\":2426:2436  1000000000 */\n      0x3b9aca00\n        /* \"testfunout.sol\":2416:2422  1 gwei */\n      dup1\n        /* \"testfunout.sol\":2416:2436  1 gwei == 1000000000 */\n      eq\n        /* \"testfunout.sol\":2409:2437  assert(1 gwei == 1000000000) */\n      tag_77\n      jumpi\n      tag_78\n      tag_62\n      jump\t// in\n    tag_78:\n    tag_77:\n        /* \"testfunout.sol\":2454:2460  1 gwei */\n      0x3b9aca00\n        /* \"testfunout.sol\":2447:2460  return 1 gwei */\n      swap1\n      pop\n        /* \"testfunout.sol\":2320:2467  function gweiUnit() external pure returns(uint) {... */\n      swap1\n      jump\t// out\n        /* \"testfunout.sol\":2945:3093  function hoursUnit() external pure returns(uint) {... */\n    tag_42:\n        /* \"testfunout.sol\":2988:2992  uint */\n      0x00\n        /* \"testfunout.sol\":3021:3026  86400 */\n      0x015180\n        /* \"testfunout.sol\":3011:3017  1 days */\n      dup1\n        /* \"testfunout.sol\":3011:3026  1 days == 86400 */\n      eq\n        /* \"testfunout.sol\":3004:3027  assert(1 days == 86400) */\n      tag_80\n      jumpi\n      tag_81\n      tag_62\n      jump\t// in\n    tag_81:\n    tag_80:\n        /* \"testfunout.sol\":3054:3062  24 hours */\n      0x015180\n        /* \"testfunout.sol\":3044:3050  1 days */\n      dup1\n        /* \"testfunout.sol\":3044:3062  1 days == 24 hours */\n      eq\n        /* \"testfunout.sol\":3037:3063  assert(1 days == 24 hours) */\n      tag_82\n      jumpi\n      tag_83\n      tag_62\n      jump\t// in\n    tag_83:\n    tag_82:\n        /* \"testfunout.sol\":3080:3086  1 days */\n      0x015180\n        /* \"testfunout.sol\":3073:3086  return 1 days */\n      swap1\n      pop\n        /* \"testfunout.sol\":2945:3093  function hoursUnit() external pure returns(uint) {... */\n      swap1\n      jump\t// out\n        /* \"testfunout.sol\":1639:1720  function foo() external {... */\n    tag_45:\n        /* \"testfunout.sol\":1677:1678  5 */\n      0x05\n        /* \"testfunout.sol\":1673:1674  x */\n      0x00\n        /* \"testfunout.sol\":1673:1678  x = 5 */\n      dup2\n      swap1\n      sstore\n      pop\n        /* \"testfunout.sol\":1692:1693  8 */\n      0x08\n        /* \"testfunout.sol\":1688:1689  y */\n      0x01\n        /* \"testfunout.sol\":1688:1693  y = 8 */\n      dup2\n      swap1\n      sstore\n      pop\n        /* \"testfunout.sol\":1703:1713  z = \"0xaa\" */\n      mload(0x40)\n      dup1\n      0x40\n      add\n      0x40\n      mstore\n      dup1\n      0x04\n      dup2\n      mstore\n      0x20\n      add\n      0x3078616100000000000000000000000000000000000000000000000000000000\n      dup2\n      mstore\n      pop\n        /* \"testfunout.sol\":1703:1704  z */\n      0x02\n        /* \"testfunout.sol\":1703:1713  z = \"0xaa\" */\n      swap1\n      dup2\n      tag_85\n      swap2\n      swap1\n      tag_86\n      jump\t// in\n    tag_85:\n      pop\n        /* \"testfunout.sol\":1639:1720  function foo() external {... */\n      jump\t// out\n        /* \"testfunout.sol\":1574:1589  string public z */\n    tag_47:\n      0x02\n      dup1\n      sload\n      tag_87\n      swap1\n      tag_88\n      jump\t// in\n    tag_87:\n      dup1\n      0x1f\n      add\n      0x20\n      dup1\n      swap2\n      div\n      mul\n      0x20\n      add\n      mload(0x40)\n      swap1\n      dup2\n      add\n      0x40\n      mstore\n      dup1\n      swap3\n      swap2\n      swap1\n      dup2\n      dup2\n      mstore\n      0x20\n      add\n      dup3\n      dup1\n      sload\n      tag_89\n      swap1\n      tag_88\n      jump\t// in\n    tag_89:\n      dup1\n      iszero\n      tag_90\n      jumpi\n      dup1\n      0x1f\n      lt\n      tag_91\n      jumpi\n      0x0100\n      dup1\n      dup4\n      sload\n      div\n      mul\n      dup4\n      mstore\n      swap2\n      0x20\n      add\n      swap2\n      jump(tag_90)\n    tag_91:\n      dup3\n      add\n      swap2\n      swap1\n      0x00\n      mstore\n      keccak256(0x00, 0x20)\n      swap1\n    tag_92:\n      dup2\n      sload\n      dup2\n      mstore\n      swap1\n      0x01\n      add\n      swap1\n      0x20\n      add\n      dup1\n      dup4\n      gt\n      tag_92\n      jumpi\n      dup3\n      swap1\n      sub\n      0x1f\n      and\n      dup3\n      add\n      swap2\n    tag_90:\n      pop\n      pop\n      pop\n      pop\n      pop\n      dup2\n      jump\t// out\n        /* \"testfunout.sol\":2473:2634  function etherUnit() external pure returns(uint) {... */\n    tag_51:\n        /* \"testfunout.sol\":2516:2520  uint */\n      0x00\n        /* \"testfunout.sol\":2550:2554  1e18 */\n      0x0de0b6b3a7640000\n        /* \"testfunout.sol\":2539:2546  1 ether */\n      dup1\n        /* \"testfunout.sol\":2539:2554  1 ether == 1e18 */\n      eq\n        /* \"testfunout.sol\":2532:2555  assert(1 ether == 1e18) */\n      tag_94\n      jumpi\n      tag_95\n      tag_62\n      jump\t// in\n    tag_95:\n    tag_94:\n        /* \"testfunout.sol\":2583:2602  1000000000000000000 */\n      0x0de0b6b3a7640000\n        /* \"testfunout.sol\":2572:2579  1 ether */\n      dup1\n        /* \"testfunout.sol\":2572:2602  1 ether == 1000000000000000000 */\n      eq\n        /* \"testfunout.sol\":2565:2603  assert(1 ether == 1000000000000000000) */\n      tag_96\n      jumpi\n      tag_97\n      tag_62\n      jump\t// in\n    tag_97:\n    tag_96:\n        /* \"testfunout.sol\":2620:2627  1 ether */\n      0x0de0b6b3a7640000\n        /* \"testfunout.sol\":2613:2627  return 1 ether */\n      swap1\n      pop\n        /* \"testfunout.sol\":2473:2634  function etherUnit() external pure returns(uint) {... */\n      swap1\n      jump\t// out\n        /* \"testfunout.sol\":2781:2939  function minutesUnit() external pure returns(uint) {... */\n    tag_54:\n        /* \"testfunout.sol\":2826:2830  uint */\n      0x00\n        /* \"testfunout.sol\":2862:2864  60 */\n      0x3c\n        /* \"testfunout.sol\":2849:2858  1 minutes */\n      dup1\n        /* \"testfunout.sol\":2849:2864  1 minutes == 60 */\n      eq\n        /* \"testfunout.sol\":2842:2865  assert(1 minutes == 60) */\n      tag_99\n      jumpi\n      tag_100\n      tag_62\n      jump\t// in\n    tag_100:\n    tag_99:\n        /* \"testfunout.sol\":2895:2905  60 seconds */\n      0x3c\n        /* \"testfunout.sol\":2882:2891  1 minutes */\n      dup1\n        /* \"testfunout.sol\":2882:2905  1 minutes == 60 seconds */\n      eq\n        /* \"testfunout.sol\":2875:2906  assert(1 minutes == 60 seconds) */\n      tag_101\n      jumpi\n      tag_102\n      tag_62\n      jump\t// in\n    tag_102:\n    tag_101:\n        /* \"testfunout.sol\":2923:2932  1 minutes */\n      0x3c\n        /* \"testfunout.sol\":2916:2932  return 1 minutes */\n      swap1\n      pop\n        /* \"testfunout.sol\":2781:2939  function minutesUnit() external pure returns(uint) {... */\n      swap1\n      jump\t// out\n        /* \"testfunout.sol\":1726:1865  function bar() external pure returns(uint) {... */\n    tag_57:\n        /* \"testfunout.sol\":1763:1767  uint */\n      0x00\n        /* \"testfunout.sol\":1779:1786  uint xx */\n      dup1\n        /* \"testfunout.sol\":1789:1790  1 */\n      0x01\n        /* \"testfunout.sol\":1779:1790  uint xx = 1 */\n      swap1\n      pop\n        /* \"testfunout.sol\":1800:1807  uint yy */\n      0x00\n        /* \"testfunout.sol\":1810:1811  3 */\n      0x03\n        /* \"testfunout.sol\":1800:1811  uint yy = 3 */\n      swap1\n      pop\n        /* \"testfunout.sol\":1821:1828  uint zz */\n      0x00\n        /* \"testfunout.sol\":1836:1838  yy */\n      dup2\n        /* \"testfunout.sol\":1831:1833  xx */\n      dup4\n        /* \"testfunout.sol\":1831:1838  xx + yy */\n      tag_104\n      swap2\n      swap1\n      tag_105\n      jump\t// in\n    tag_104:\n        /* \"testfunout.sol\":1821:1838  uint zz = xx + yy */\n      swap1\n      pop\n        /* \"testfunout.sol\":1855:1857  zz */\n      dup1\n        /* \"testfunout.sol\":1848:1858  return(zz) */\n      swap4\n      pop\n      pop\n      pop\n      pop\n        /* \"testfunout.sol\":1726:1865  function bar() external pure returns(uint) {... */\n      swap1\n      jump\t// out\n        /* \"#utility.yul\":7:84   */\n    tag_106:\n        /* \"#utility.yul\":44:51   */\n      0x00\n        /* \"#utility.yul\":73:78   */\n      dup2\n        /* \"#utility.yul\":62:78   */\n      swap1\n      pop\n        /* \"#utility.yul\":7:84   */\n      swap2\n      swap1\n      pop\n      jump\t// out\n        /* \"#utility.yul\":90:208   */\n    tag_107:\n        /* \"#utility.yul\":177:201   */\n      tag_140\n        /* \"#utility.yul\":195:200   */\n      dup2\n        /* \"#utility.yul\":177:201   */\n      tag_106\n      jump\t// in\n    tag_140:\n        /* \"#utility.yul\":172:175   */\n      dup3\n        /* \"#utility.yul\":165:202   */\n      mstore\n        /* \"#utility.yul\":90:208   */\n      pop\n      pop\n      jump\t// out\n        /* \"#utility.yul\":214:436   */\n    tag_21:\n        /* \"#utility.yul\":307:311   */\n      0x00\n        /* \"#utility.yul\":345:347   */\n      0x20\n        /* \"#utility.yul\":334:343   */\n      dup3\n        /* \"#utility.yul\":330:348   */\n      add\n        /* \"#utility.yul\":322:348   */\n      swap1\n      pop\n        /* \"#utility.yul\":358:429   */\n      tag_142\n        /* \"#utility.yul\":426:427   */\n      0x00\n        /* \"#utility.yul\":415:424   */\n      dup4\n        /* \"#utility.yul\":411:428   */\n      add\n        /* \"#utility.yul\":402:408   */\n      dup5\n        /* \"#utility.yul\":358:429   */\n      tag_107\n      jump\t// in\n    tag_142:\n        /* \"#utility.yul\":214:436   */\n      swap3\n      swap2\n      pop\n      pop\n      jump\t// out\n        /* \"#utility.yul\":442:568   */\n    tag_108:\n        /* \"#utility.yul\":479:486   */\n      0x00\n        /* \"#utility.yul\":519:561   */\n      0xffffffffffffffffffffffffffffffffffffffff\n        /* \"#utility.yul\":512:517   */\n      dup3\n        /* \"#utility.yul\":508:562   */\n      and\n        /* \"#utility.yul\":497:562   */\n      swap1\n      pop\n        /* \"#utility.yul\":442:568   */\n      swap2\n      swap1\n      pop\n      jump\t// out\n        /* \"#utility.yul\":574:670   */\n    tag_109:\n        /* \"#utility.yul\":611:618   */\n      0x00\n        /* \"#utility.yul\":640:664   */\n      tag_145\n        /* \"#utility.yul\":658:663   */\n      dup3\n        /* \"#utility.yul\":640:664   */\n      tag_108\n      jump\t// in\n    tag_145:\n        /* \"#utility.yul\":629:664   */\n      swap1\n      pop\n        /* \"#utility.yul\":574:670   */\n      swap2\n      swap1\n      pop\n      jump\t// out\n        /* \"#utility.yul\":676:794   */\n    tag_110:\n        /* \"#utility.yul\":763:787   */\n      tag_147\n        /* \"#utility.yul\":781:786   */\n      dup2\n        /* \"#utility.yul\":763:787   */\n      tag_109\n      jump\t// in\n    tag_147:\n        /* \"#utility.yul\":758:761   */\n      dup3\n        /* \"#utility.yul\":751:788   */\n      mstore\n        /* \"#utility.yul\":676:794   */\n      pop\n      pop\n      jump\t// out\n        /* \"#utility.yul\":800:898   */\n    tag_111:\n        /* \"#utility.yul\":851:857   */\n      0x00\n        /* \"#utility.yul\":885:890   */\n      dup2\n        /* \"#utility.yul\":879:891   */\n      mload\n        /* \"#utility.yul\":869:891   */\n      swap1\n      pop\n        /* \"#utility.yul\":800:898   */\n      swap2\n      swap1\n      pop\n      jump\t// out\n        /* \"#utility.yul\":904:1072   */\n    tag_112:\n        /* \"#utility.yul\":987:998   */\n      0x00\n        /* \"#utility.yul\":1021:1027   */\n      dup3\n        /* \"#utility.yul\":1016:1019   */\n      dup3\n        /* \"#utility.yul\":1009:1028   */\n      mstore\n        /* \"#utility.yul\":1061:1065   */\n      0x20\n        /* \"#utility.yul\":1056:1059   */\n      dup3\n        /* \"#utility.yul\":1052:1066   */\n      add\n        /* \"#utility.yul\":1037:1066   */\n      swap1\n      pop\n        /* \"#utility.yul\":904:1072   */\n      swap3\n      swap2\n      pop\n      pop\n      jump\t// out\n        /* \"#utility.yul\":1078:1217   */\n    tag_113:\n        /* \"#utility.yul\":1167:1173   */\n      dup3\n        /* \"#utility.yul\":1162:1165   */\n      dup2\n        /* \"#utility.yul\":1157:1160   */\n      dup4\n        /* \"#utility.yul\":1151:1174   */\n      mcopy\n        /* \"#utility.yul\":1208:1209   */\n      0x00\n        /* \"#utility.yul\":1199:1205   */\n      dup4\n        /* \"#utility.yul\":1194:1197   */\n      dup4\n        /* \"#utility.yul\":1190:1206   */\n      add\n        /* \"#utility.yul\":1183:1210   */\n      mstore\n        /* \"#utility.yul\":1078:1217   */\n      pop\n      pop\n      pop\n      jump\t// out\n        /* \"#utility.yul\":1223:1325   */\n    tag_114:\n        /* \"#utility.yul\":1264:1270   */\n      0x00\n        /* \"#utility.yul\":1315:1317   */\n      0x1f\n        /* \"#utility.yul\":1311:1318   */\n      not\n        /* \"#utility.yul\":1306:1308   */\n      0x1f\n        /* \"#utility.yul\":1299:1304   */\n      dup4\n        /* \"#utility.yul\":1295:1309   */\n      add\n        /* \"#utility.yul\":1291:1319   */\n      and\n        /* \"#utility.yul\":1281:1319   */\n      swap1\n      pop\n        /* \"#utility.yul\":1223:1325   */\n      swap2\n      swap1\n      pop\n      jump\t// out\n        /* \"#utility.yul\":1331:1704   */\n    tag_115:\n        /* \"#utility.yul\":1417:1420   */\n      0x00\n        /* \"#utility.yul\":1445:1483   */\n      tag_153\n        /* \"#utility.yul\":1477:1482   */\n      dup3\n        /* \"#utility.yul\":1445:1483   */\n      tag_111\n      jump\t// in\n    tag_153:\n        /* \"#utility.yul\":1499:1569   */\n      tag_154\n        /* \"#utility.yul\":1562:1568   */\n      dup2\n        /* \"#utility.yul\":1557:1560   */\n      dup6\n        /* \"#utility.yul\":1499:1569   */\n      tag_112\n      jump\t// in\n    tag_154:\n        /* \"#utility.yul\":1492:1569   */\n      swap4\n      pop\n        /* \"#utility.yul\":1578:1643   */\n      tag_155\n        /* \"#utility.yul\":1636:1642   */\n      dup2\n        /* \"#utility.yul\":1631:1634   */\n      dup6\n        /* \"#utility.yul\":1624:1628   */\n      0x20\n        /* \"#utility.yul\":1617:1622   */\n      dup7\n        /* \"#utility.yul\":1613:1629   */\n      add\n        /* \"#utility.yul\":1578:1643   */\n      tag_113\n      jump\t// in\n    tag_155:\n        /* \"#utility.yul\":1668:1697   */\n      tag_156\n        /* \"#utility.yul\":1690:1696   */\n      dup2\n        /* \"#utility.yul\":1668:1697   */\n      tag_114\n      jump\t// in\n    tag_156:\n        /* \"#utility.yul\":1663:1666   */\n      dup5\n        /* \"#utility.yul\":1659:1698   */\n      add\n        /* \"#utility.yul\":1652:1698   */\n      swap2\n      pop\n        /* \"#utility.yul\":1421:1704   */\n      pop\n        /* \"#utility.yul\":1331:1704   */\n      swap3\n      swap2\n      pop\n      pop\n      jump\t// out\n        /* \"#utility.yul\":1710:2239   */\n    tag_34:\n        /* \"#utility.yul\":1877:1881   */\n      0x00\n        /* \"#utility.yul\":1915:1917   */\n      0x60\n        /* \"#utility.yul\":1904:1913   */\n      dup3\n        /* \"#utility.yul\":1900:1918   */\n      add\n        /* \"#utility.yul\":1892:1918   */\n      swap1\n      pop\n        /* \"#utility.yul\":1928:1999   */\n      tag_158\n        /* \"#utility.yul\":1996:1997   */\n      0x00\n        /* \"#utility.yul\":1985:1994   */\n      dup4\n        /* \"#utility.yul\":1981:1998   */\n      add\n        /* \"#utility.yul\":1972:1978   */\n      dup7\n        /* \"#utility.yul\":1928:1999   */\n      tag_110\n      jump\t// in\n    tag_158:\n        /* \"#utility.yul\":2009:2081   */\n      tag_159\n        /* \"#utility.yul\":2077:2079   */\n      0x20\n        /* \"#utility.yul\":2066:2075   */\n      dup4\n        /* \"#utility.yul\":2062:2080   */\n      add\n        /* \"#utility.yul\":2053:2059   */\n      dup6\n        /* \"#utility.yul\":2009:2081   */\n      tag_107\n      jump\t// in\n    tag_159:\n        /* \"#utility.yul\":2128:2137   */\n      dup2\n        /* \"#utility.yul\":2122:2126   */\n      dup2\n        /* \"#utility.yul\":2118:2138   */\n      sub\n        /* \"#utility.yul\":2113:2115   */\n      0x40\n        /* \"#utility.yul\":2102:2111   */\n      dup4\n        /* \"#utility.yul\":2098:2116   */\n      add\n        /* \"#utility.yul\":2091:2139   */\n      mstore\n        /* \"#utility.yul\":2156:2232   */\n      tag_160\n        /* \"#utility.yul\":2227:2231   */\n      dup2\n        /* \"#utility.yul\":2218:2224   */\n      dup5\n        /* \"#utility.yul\":2156:2232   */\n      tag_115\n      jump\t// in\n    tag_160:\n        /* \"#utility.yul\":2148:2232   */\n      swap1\n      pop\n        /* \"#utility.yul\":1710:2239   */\n      swap5\n      swap4\n      pop\n      pop\n      pop\n      pop\n      jump\t// out\n        /* \"#utility.yul\":2245:2344   */\n    tag_116:\n        /* \"#utility.yul\":2297:2303   */\n      0x00\n        /* \"#utility.yul\":2331:2336   */\n      dup2\n        /* \"#utility.yul\":2325:2337   */\n      mload\n        /* \"#utility.yul\":2315:2337   */\n      swap1\n      pop\n        /* \"#utility.yul\":2245:2344   */\n      swap2\n      swap1\n      pop\n      jump\t// out\n        /* \"#utility.yul\":2350:2519   */\n    tag_117:\n        /* \"#utility.yul\":2434:2445   */\n      0x00\n        /* \"#utility.yul\":2468:2474   */\n      dup3\n        /* \"#utility.yul\":2463:2466   */\n      dup3\n        /* \"#utility.yul\":2456:2475   */\n      mstore\n        /* \"#utility.yul\":2508:2512   */\n      0x20\n        /* \"#utility.yul\":2503:2506   */\n      dup3\n        /* \"#utility.yul\":2499:2513   */\n      add\n        /* \"#utility.yul\":2484:2513   */\n      swap1\n      pop\n        /* \"#utility.yul\":2350:2519   */\n      swap3\n      swap2\n      pop\n      pop\n      jump\t// out\n        /* \"#utility.yul\":2525:2902   */\n    tag_118:\n        /* \"#utility.yul\":2613:2616   */\n      0x00\n        /* \"#utility.yul\":2641:2680   */\n      tag_164\n        /* \"#utility.yul\":2674:2679   */\n      dup3\n        /* \"#utility.yul\":2641:2680   */\n      tag_116\n      jump\t// in\n    tag_164:\n        /* \"#utility.yul\":2696:2767   */\n      tag_165\n        /* \"#utility.yul\":2760:2766   */\n      dup2\n        /* \"#utility.yul\":2755:2758   */\n      dup6\n        /* \"#utility.yul\":2696:2767   */\n      tag_117\n      jump\t// in\n    tag_165:\n        /* \"#utility.yul\":2689:2767   */\n      swap4\n      pop\n        /* \"#utility.yul\":2776:2841   */\n      tag_166\n        /* \"#utility.yul\":2834:2840   */\n      dup2\n        /* \"#utility.yul\":2829:2832   */\n      dup6\n        /* \"#utility.yul\":2822:2826   */\n      0x20\n        /* \"#utility.yul\":2815:2820   */\n      dup7\n        /* \"#utility.yul\":2811:2827   */\n      add\n        /* \"#utility.yul\":2776:2841   */\n      tag_113\n      jump\t// in\n    tag_166:\n        /* \"#utility.yul\":2866:2895   */\n      tag_167\n        /* \"#utility.yul\":2888:2894   */\n      dup2\n        /* \"#utility.yul\":2866:2895   */\n      tag_114\n      jump\t// in\n    tag_167:\n        /* \"#utility.yul\":2861:2864   */\n      dup5\n        /* \"#utility.yul\":2857:2896   */\n      add\n        /* \"#utility.yul\":2850:2896   */\n      swap2\n      pop\n        /* \"#utility.yul\":2617:2902   */\n      pop\n        /* \"#utility.yul\":2525:2902   */\n      swap3\n      swap2\n      pop\n      pop\n      jump\t// out\n        /* \"#utility.yul\":2908:3221   */\n    tag_49:\n        /* \"#utility.yul\":3021:3025   */\n      0x00\n        /* \"#utility.yul\":3059:3061   */\n      0x20\n        /* \"#utility.yul\":3048:3057   */\n      dup3\n        /* \"#utility.yul\":3044:3062   */\n      add\n        /* \"#utility.yul\":3036:3062   */\n      swap1\n      pop\n        /* \"#utility.yul\":3108:3117   */\n      dup2\n        /* \"#utility.yul\":3102:3106   */\n      dup2\n        /* \"#utility.yul\":3098:3118   */\n      sub\n        /* \"#utility.yul\":3094:3095   */\n      0x00\n        /* \"#utility.yul\":3083:3092   */\n      dup4\n        /* \"#utility.yul\":3079:3096   */\n      add\n        /* \"#utility.yul\":3072:3119   */\n      mstore\n        /* \"#utility.yul\":3136:3214   */\n      tag_169\n        /* \"#utility.yul\":3209:3213   */\n      dup2\n        /* \"#utility.yul\":3200:3206   */\n      dup5\n        /* \"#utility.yul\":3136:3214   */\n      tag_118\n      jump\t// in\n    tag_169:\n        /* \"#utility.yul\":3128:3214   */\n      swap1\n      pop\n        /* \"#utility.yul\":2908:3221   */\n      swap3\n      swap2\n      pop\n      pop\n      jump\t// out\n        /* \"#utility.yul\":3227:3407   */\n    tag_62:\n        /* \"#utility.yul\":3275:3352   */\n      0x4e487b7100000000000000000000000000000000000000000000000000000000\n        /* \"#utility.yul\":3272:3273   */\n      0x00\n        /* \"#utility.yul\":3265:3353   */\n      mstore\n        /* \"#utility.yul\":3372:3376   */\n      0x01\n        /* \"#utility.yul\":3369:3370   */\n      0x04\n        /* \"#utility.yul\":3362:3377   */\n      mstore\n        /* \"#utility.yul\":3396:3400   */\n      0x24\n        /* \"#utility.yul\":3393:3394   */\n      0x00\n        /* \"#utility.yul\":3386:3401   */\n      revert\n        /* \"#utility.yul\":3413:3593   */\n    tag_119:\n        /* \"#utility.yul\":3461:3538   */\n      0x4e487b7100000000000000000000000000000000000000000000000000000000\n        /* \"#utility.yul\":3458:3459   */\n      0x00\n        /* \"#utility.yul\":3451:3539   */\n      mstore\n        /* \"#utility.yul\":3558:3562   */\n      0x41\n        /* \"#utility.yul\":3555:3556   */\n      0x04\n        /* \"#utility.yul\":3548:3563   */\n      mstore\n        /* \"#utility.yul\":3582:3586   */\n      0x24\n        /* \"#utility.yul\":3579:3580   */\n      0x00\n        /* \"#utility.yul\":3572:3587   */\n      revert\n        /* \"#utility.yul\":3599:3779   */\n    tag_120:\n        /* \"#utility.yul\":3647:3724   */\n      0x4e487b7100000000000000000000000000000000000000000000000000000000\n        /* \"#utility.yul\":3644:3645   */\n      0x00\n        /* \"#utility.yul\":3637:3725   */\n      mstore\n        /* \"#utility.yul\":3744:3748   */\n      0x22\n        /* \"#utility.yul\":3741:3742   */\n      0x04\n        /* \"#utility.yul\":3734:3749   */\n      mstore\n        /* \"#utility.yul\":3768:3772   */\n      0x24\n        /* \"#utility.yul\":3765:3766   */\n      0x00\n        /* \"#utility.yul\":3758:3773   */\n      revert\n        /* \"#utility.yul\":3785:4105   */\n    tag_88:\n        /* \"#utility.yul\":3829:3835   */\n      0x00\n        /* \"#utility.yul\":3866:3867   */\n      0x02\n        /* \"#utility.yul\":3860:3864   */\n      dup3\n        /* \"#utility.yul\":3856:3868   */\n      div\n        /* \"#utility.yul\":3846:3868   */\n      swap1\n      pop\n        /* \"#utility.yul\":3913:3914   */\n      0x01\n        /* \"#utility.yul\":3907:3911   */\n      dup3\n        /* \"#utility.yul\":3903:3915   */\n      and\n        /* \"#utility.yul\":3934:3952   */\n      dup1\n        /* \"#utility.yul\":3924:4005   */\n      tag_174\n      jumpi\n        /* \"#utility.yul\":3990:3994   */\n      0x7f\n        /* \"#utility.yul\":3982:3988   */\n      dup3\n        /* \"#utility.yul\":3978:3995   */\n      and\n        /* \"#utility.yul\":3968:3995   */\n      swap2\n      pop\n        /* \"#utility.yul\":3924:4005   */\n    tag_174:\n        /* \"#utility.yul\":4052:4054   */\n      0x20\n        /* \"#utility.yul\":4044:4050   */\n      dup3\n        /* \"#utility.yul\":4041:4055   */\n      lt\n        /* \"#utility.yul\":4021:4039   */\n      dup2\n        /* \"#utility.yul\":4018:4056   */\n      sub\n        /* \"#utility.yul\":4015:4099   */\n      tag_175\n      jumpi\n        /* \"#utility.yul\":4071:4089   */\n      tag_176\n      tag_120\n      jump\t// in\n    tag_176:\n        /* \"#utility.yul\":4015:4099   */\n    tag_175:\n        /* \"#utility.yul\":3836:4105   */\n      pop\n        /* \"#utility.yul\":3785:4105   */\n      swap2\n      swap1\n      pop\n      jump\t// out\n        /* \"#utility.yul\":4111:4252   */\n    tag_121:\n        /* \"#utility.yul\":4160:4164   */\n      0x00\n        /* \"#utility.yul\":4183:4186   */\n      dup2\n        /* \"#utility.yul\":4175:4186   */\n      swap1\n      pop\n        /* \"#utility.yul\":4206:4209   */\n      dup2\n        /* \"#utility.yul\":4203:4204   */\n      0x00\n        /* \"#utility.yul\":4196:4210   */\n      mstore\n        /* \"#utility.yul\":4240:4244   */\n      0x20\n        /* \"#utility.yul\":4237:4238   */\n      0x00\n        /* \"#utility.yul\":4227:4245   */\n      keccak256\n        /* \"#utility.yul\":4219:4245   */\n      swap1\n      pop\n        /* \"#utility.yul\":4111:4252   */\n      swap2\n      swap1\n      pop\n      jump\t// out\n        /* \"#utility.yul\":4258:4351   */\n    tag_122:\n        /* \"#utility.yul\":4295:4301   */\n      0x00\n        /* \"#utility.yul\":4342:4344   */\n      0x20\n        /* \"#utility.yul\":4337:4339   */\n      0x1f\n        /* \"#utility.yul\":4330:4335   */\n      dup4\n        /* \"#utility.yul\":4326:4340   */\n      add\n        /* \"#utility.yul\":4322:4345   */\n      div\n        /* \"#utility.yul\":4312:4345   */\n      swap1\n      pop\n        /* \"#utility.yul\":4258:4351   */\n      swap2\n      swap1\n      pop\n      jump\t// out\n        /* \"#utility.yul\":4357:4464   */\n    tag_123:\n        /* \"#utility.yul\":4401:4409   */\n      0x00\n        /* \"#utility.yul\":4451:4456   */\n      dup3\n        /* \"#utility.yul\":4445:4449   */\n      dup3\n        /* \"#utility.yul\":4441:4457   */\n      shl\n        /* \"#utility.yul\":4420:4457   */\n      swap1\n      pop\n        /* \"#utility.yul\":4357:4464   */\n      swap3\n      swap2\n      pop\n      pop\n      jump\t// out\n        /* \"#utility.yul\":4470:4863   */\n    tag_124:\n        /* \"#utility.yul\":4539:4545   */\n      0x00\n        /* \"#utility.yul\":4589:4590   */\n      0x08\n        /* \"#utility.yul\":4577:4587   */\n      dup4\n        /* \"#utility.yul\":4573:4591   */\n      mul\n        /* \"#utility.yul\":4612:4709   */\n      tag_181\n        /* \"#utility.yul\":4642:4708   */\n      0xffffffffffffffffffffffffffffffffffffffffffffffffffffffffffffffff\n        /* \"#utility.yul\":4631:4640   */\n      dup3\n        /* \"#utility.yul\":4612:4709   */\n      tag_123\n      jump\t// in\n    tag_181:\n        /* \"#utility.yul\":4730:4769   */\n      tag_182\n        /* \"#utility.yul\":4760:4768   */\n      dup7\n        /* \"#utility.yul\":4749:4758   */\n      dup4\n        /* \"#utility.yul\":4730:4769   */\n      tag_123\n      jump\t// in\n    tag_182:\n        /* \"#utility.yul\":4718:4769   */\n      swap6\n      pop\n        /* \"#utility.yul\":4802:4806   */\n      dup1\n        /* \"#utility.yul\":4798:4807   */\n      not\n        /* \"#utility.yul\":4791:4796   */\n      dup5\n        /* \"#utility.yul\":4787:4808   */\n      and\n        /* \"#utility.yul\":4778:4808   */\n      swap4\n      pop\n        /* \"#utility.yul\":4851:4855   */\n      dup1\n        /* \"#utility.yul\":4841:4849   */\n      dup7\n        /* \"#utility.yul\":4837:4856   */\n      and\n        /* \"#utility.yul\":4830:4835   */\n      dup5\n        /* \"#utility.yul\":4827:4857   */\n      or\n        /* \"#utility.yul\":4817:4857   */\n      swap3\n      pop\n        /* \"#utility.yul\":4546:4863   */\n      pop\n      pop\n        /* \"#utility.yul\":4470:4863   */\n      swap4\n      swap3\n      pop\n      pop\n      pop\n      jump\t// out\n        /* \"#utility.yul\":4869:4929   */\n    tag_125:\n        /* \"#utility.yul\":4897:4900   */\n      0x00\n        /* \"#utility.yul\":4918:4923   */\n      dup2\n        /* \"#utility.yul\":4911:4923   */\n      swap1\n      pop\n        /* \"#utility.yul\":4869:4929   */\n      swap2\n      swap1\n      pop\n      jump\t// out\n        /* \"#utility.yul\":4935:5077   */\n    tag_126:\n        /* \"#utility.yul\":4985:4994   */\n      0x00\n        /* \"#utility.yul\":5018:5071   */\n      tag_185\n        /* \"#utility.yul\":5036:5070   */\n      tag_186\n        /* \"#utility.yul\":5045:5069   */\n      tag_187\n        /* \"#utility.yul\":5063:5068   */\n      dup5\n        /* \"#utility.yul\":5045:5069   */\n      tag_106\n      jump\t// in\n    tag_187:\n        /* \"#utility.yul\":5036:5070   */\n      tag_125\n      jump\t// in\n    tag_186:\n        /* \"#utility.yul\":5018:5071   */\n      tag_106\n      jump\t// in\n    tag_185:\n        /* \"#utility.yul\":5005:5071   */\n      swap1\n      pop\n        /* \"#utility.yul\":4935:5077   */\n      swap2\n      swap1\n      pop\n      jump\t// out\n        /* \"#utility.yul\":5083:5158   */\n    tag_127:\n        /* \"#utility.yul\":5126:5129   */\n      0x00\n        /* \"#utility.yul\":5147:5152   */\n      dup2\n        /* \"#utility.yul\":5140:5152   */\n      swap1\n      pop\n        /* \"#utility.yul\":5083:5158   */\n      swap2\n      swap1\n      pop\n      jump\t// out\n        /* \"#utility.yul\":5164:5433   */\n    tag_128:\n        /* \"#utility.yul\":5274:5313   */\n      tag_190\n        /* \"#utility.yul\":5305:5312   */\n      dup4\n        /* \"#utility.yul\":5274:5313   */\n      tag_126\n      jump\t// in\n    tag_190:\n        /* \"#utility.yul\":5335:5426   */\n      tag_191\n        /* \"#utility.yul\":5384:5425   */\n      tag_192\n        /* \"#utility.yul\":5408:5424   */\n      dup3\n        /* \"#utility.yul\":5384:5425   */\n      tag_127\n      jump\t// in\n    tag_192:\n        /* \"#utility.yul\":5376:5382   */\n      dup5\n        /* \"#utility.yul\":5369:5373   */\n      dup5\n        /* \"#utility.yul\":5363:5374   */\n      sload\n        /* \"#utility.yul\":5335:5426   */\n      tag_124\n      jump\t// in\n    tag_191:\n        /* \"#utility.yul\":5329:5333   */\n      dup3\n        /* \"#utility.yul\":5322:5427   */\n      sstore\n        /* \"#utility.yul\":5240:5433   */\n      pop\n        /* \"#utility.yul\":5164:5433   */\n      pop\n      pop\n      pop\n      jump\t// out\n        /* \"#utility.yul\":5439:5512   */\n    tag_129:\n        /* \"#utility.yul\":5484:5487   */\n      0x00\n        /* \"#utility.yul\":5439:5512   */\n      swap1\n      jump\t// out\n        /* \"#utility.yul\":5518:5707   */\n    tag_130:\n        /* \"#utility.yul\":5595:5627   */\n      tag_195\n      tag_129\n      jump\t// in\n    tag_195:\n        /* \"#utility.yul\":5636:5701   */\n      tag_196\n        /* \"#utility.yul\":5694:5700   */\n      dup2\n        /* \"#utility.yul\":5686:5692   */\n      dup5\n        /* \"#utility.yul\":5680:5684   */\n      dup5\n        /* \"#utility.yul\":5636:5701   */\n      tag_128\n      jump\t// in\n    tag_196:\n        /* \"#utility.yul\":5571:5707   */\n      pop\n        /* \"#utility.yul\":5518:5707   */\n      pop\n      pop\n      jump\t// out\n        /* \"#utility.yul\":5713:5899   */\n    tag_131:\n        /* \"#utility.yul\":5773:5893   */\n    tag_198:\n        /* \"#utility.yul\":5790:5793   */\n      dup2\n        /* \"#utility.yul\":5783:5788   */\n      dup2\n        /* \"#utility.yul\":5780:5794   */\n      lt\n        /* \"#utility.yul\":5773:5893   */\n      iszero\n      tag_200\n      jumpi\n        /* \"#utility.yul\":5844:5883   */\n      tag_201\n        /* \"#utility.yul\":5881:5882   */\n      0x00\n        /* \"#utility.yul\":5874:5879   */\n      dup3\n        /* \"#utility.yul\":5844:5883   */\n      tag_130\n      jump\t// in\n    tag_201:\n        /* \"#utility.yul\":5817:5818   */\n      0x01\n        /* \"#utility.yul\":5810:5815   */\n      dup2\n        /* \"#utility.yul\":5806:5819   */\n      add\n        /* \"#utility.yul\":5797:5819   */\n      swap1\n      pop\n        /* \"#utility.yul\":5773:5893   */\n      jump(tag_198)\n    tag_200:\n        /* \"#utility.yul\":5713:5899   */\n      pop\n      pop\n      jump\t// out\n        /* \"#utility.yul\":5905:6448   */\n    tag_132:\n        /* \"#utility.yul\":6006:6008   */\n      0x1f\n        /* \"#utility.yul\":6001:6004   */\n      dup3\n        /* \"#utility.yul\":5998:6009   */\n      gt\n        /* \"#utility.yul\":5995:6441   */\n      iszero\n      tag_203\n      jumpi\n        /* \"#utility.yul\":6040:6078   */\n      tag_204\n        /* \"#utility.yul\":6072:6077   */\n      dup2\n        /* \"#utility.yul\":6040:6078   */\n      tag_121\n      jump\t// in\n    tag_204:\n        /* \"#utility.yul\":6124:6153   */\n      tag_205\n        /* \"#utility.yul\":6142:6152   */\n      dup5\n        /* \"#utility.yul\":6124:6153   */\n      tag_122\n      jump\t// in\n    tag_205:\n        /* \"#utility.yul\":6114:6122   */\n      dup2\n        /* \"#utility.yul\":6110:6154   */\n      add\n        /* \"#utility.yul\":6307:6309   */\n      0x20\n        /* \"#utility.yul\":6295:6305   */\n      dup6\n        /* \"#utility.yul\":6292:6310   */\n      lt\n        /* \"#utility.yul\":6289:6338   */\n      iszero\n      tag_206\n      jumpi\n        /* \"#utility.yul\":6328:6336   */\n      dup2\n        /* \"#utility.yul\":6313:6336   */\n      swap1\n      pop\n        /* \"#utility.yul\":6289:6338   */\n    tag_206:\n        /* \"#utility.yul\":6351:6431   */\n      tag_207\n        /* \"#utility.yul\":6407:6429   */\n      tag_208\n        /* \"#utility.yul\":6425:6428   */\n      dup6\n        /* \"#utility.yul\":6407:6429   */\n      tag_122\n      jump\t// in\n    tag_208:\n        /* \"#utility.yul\":6397:6405   */\n      dup4\n        /* \"#utility.yul\":6393:6430   */\n      add\n        /* \"#utility.yul\":6380:6391   */\n      dup3\n        /* \"#utility.yul\":6351:6431   */\n      tag_131\n      jump\t// in\n    tag_207:\n        /* \"#utility.yul\":6010:6441   */\n      pop\n      pop\n        /* \"#utility.yul\":5995:6441   */\n    tag_203:\n        /* \"#utility.yul\":5905:6448   */\n      pop\n      pop\n      pop\n      jump\t// out\n        /* \"#utility.yul\":6454:6571   */\n    tag_133:\n        /* \"#utility.yul\":6508:6516   */\n      0x00\n        /* \"#utility.yul\":6558:6563   */\n      dup3\n        /* \"#utility.yul\":6552:6556   */\n      dup3\n        /* \"#utility.yul\":6548:6564   */\n      shr\n        /* \"#utility.yul\":6527:6564   */\n      swap1\n      pop\n        /* \"#utility.yul\":6454:6571   */\n      swap3\n      swap2\n      pop\n      pop\n      jump\t// out\n        /* \"#utility.yul\":6577:6746   */\n    tag_134:\n        /* \"#utility.yul\":6621:6627   */\n      0x00\n        /* \"#utility.yul\":6654:6705   */\n      tag_211\n        /* \"#utility.yul\":6702:6703   */\n      0x00\n        /* \"#utility.yul\":6698:6704   */\n      not\n        /* \"#utility.yul\":6690:6695   */\n      dup5\n        /* \"#utility.yul\":6687:6688   */\n      0x08\n        /* \"#utility.yul\":6683:6696   */\n      mul\n        /* \"#utility.yul\":6654:6705   */\n      tag_133\n      jump\t// in\n    tag_211:\n        /* \"#utility.yul\":6650:6706   */\n      not\n        /* \"#utility.yul\":6735:6739   */\n      dup1\n        /* \"#utility.yul\":6729:6733   */\n      dup4\n        /* \"#utility.yul\":6725:6740   */\n      and\n        /* \"#utility.yul\":6715:6740   */\n      swap2\n      pop\n        /* \"#utility.yul\":6628:6746   */\n      pop\n        /* \"#utility.yul\":6577:6746   */\n      swap3\n      swap2\n      pop\n      pop\n      jump\t// out\n        /* \"#utility.yul\":6751:7046   */\n    tag_135:\n        /* \"#utility.yul\":6827:6831   */\n      0x00\n        /* \"#utility.yul\":6973:7002   */\n      tag_213\n        /* \"#utility.yul\":6998:7001   */\n      dup4\n        /* \"#utility.yul\":6992:6996   */\n      dup4\n        /* \"#utility.yul\":6973:7002   */\n      tag_134\n      jump\t// in\n    tag_213:\n        /* \"#utility.yul\":6965:7002   */\n      swap2\n      pop\n        /* \"#utility.yul\":7035:7038   */\n      dup3\n        /* \"#utility.yul\":7032:7033   */\n      0x02\n        /* \"#utility.yul\":7028:7039   */\n      mul\n        /* \"#utility.yul\":7022:7026   */\n      dup3\n        /* \"#utility.yul\":7019:7040   */\n      or\n        /* \"#utility.yul\":7011:7040   */\n      swap1\n      pop\n        /* \"#utility.yul\":6751:7046   */\n      swap3\n      swap2\n      pop\n      pop\n      jump\t// out\n        /* \"#utility.yul\":7051:8446   */\n    tag_86:\n        /* \"#utility.yul\":7168:7205   */\n      tag_215\n        /* \"#utility.yul\":7201:7204   */\n      dup3\n        /* \"#utility.yul\":7168:7205   */\n      tag_116\n      jump\t// in\n    tag_215:\n        /* \"#utility.yul\":7270:7288   */\n      0xffffffffffffffff\n        /* \"#utility.yul\":7262:7268   */\n      dup2\n        /* \"#utility.yul\":7259:7289   */\n      gt\n        /* \"#utility.yul\":7256:7312   */\n      iszero\n      tag_216\n      jumpi\n        /* \"#utility.yul\":7292:7310   */\n      tag_217\n      tag_119\n      jump\t// in\n    tag_217:\n        /* \"#utility.yul\":7256:7312   */\n    tag_216:\n        /* \"#utility.yul\":7336:7374   */\n      tag_218\n        /* \"#utility.yul\":7368:7372   */\n      dup3\n        /* \"#utility.yul\":7362:7373   */\n      sload\n        /* \"#utility.yul\":7336:7374   */\n      tag_88\n      jump\t// in\n    tag_218:\n        /* \"#utility.yul\":7421:7488   */\n      tag_219\n        /* \"#utility.yul\":7481:7487   */\n      dup3\n        /* \"#utility.yul\":7473:7479   */\n      dup3\n        /* \"#utility.yul\":7467:7471   */\n      dup6\n        /* \"#utility.yul\":7421:7488   */\n      tag_132\n      jump\t// in\n    tag_219:\n        /* \"#utility.yul\":7515:7516   */\n      0x00\n        /* \"#utility.yul\":7539:7543   */\n      0x20\n        /* \"#utility.yul\":7526:7543   */\n      swap1\n      pop\n        /* \"#utility.yul\":7571:7573   */\n      0x1f\n        /* \"#utility.yul\":7563:7569   */\n      dup4\n        /* \"#utility.yul\":7560:7574   */\n      gt\n        /* \"#utility.yul\":7588:7589   */\n      0x01\n        /* \"#utility.yul\":7583:8201   */\n      dup2\n      eq\n      tag_221\n      jumpi\n        /* \"#utility.yul\":8245:8246   */\n      0x00\n        /* \"#utility.yul\":8262:8268   */\n      dup5\n        /* \"#utility.yul\":8259:8336   */\n      iszero\n      tag_222\n      jumpi\n        /* \"#utility.yul\":8311:8320   */\n      dup3\n        /* \"#utility.yul\":8306:8309   */\n      dup8\n        /* \"#utility.yul\":8302:8321   */\n      add\n        /* \"#utility.yul\":8296:8322   */\n      mload\n        /* \"#utility.yul\":8287:8322   */\n      swap1\n      pop\n        /* \"#utility.yul\":8259:8336   */\n    tag_222:\n        /* \"#utility.yul\":8362:8429   */\n      tag_223\n        /* \"#utility.yul\":8422:8428   */\n      dup6\n        /* \"#utility.yul\":8415:8420   */\n      dup3\n        /* \"#utility.yul\":8362:8429   */\n      tag_135\n      jump\t// in\n    tag_223:\n        /* \"#utility.yul\":8356:8360   */\n      dup7\n        /* \"#utility.yul\":8349:8430   */\n      sstore\n        /* \"#utility.yul\":8218:8440   */\n      pop\n        /* \"#utility.yul\":7553:8440   */\n      jump(tag_220)\n        /* \"#utility.yul\":7583:8201   */\n    tag_221:\n        /* \"#utility.yul\":7635:7639   */\n      0x1f\n        /* \"#utility.yul\":7631:7640   */\n      not\n        /* \"#utility.yul\":7623:7629   */\n      dup5\n        /* \"#utility.yul\":7619:7641   */\n      and\n        /* \"#utility.yul\":7669:7706   */\n      tag_224\n        /* \"#utility.yul\":7701:7705   */\n      dup7\n        /* \"#utility.yul\":7669:7706   */\n      tag_121\n      jump\t// in\n    tag_224:\n        /* \"#utility.yul\":7728:7729   */\n      0x00\n        /* \"#utility.yul\":7742:7950   */\n    tag_225:\n        /* \"#utility.yul\":7756:7763   */\n      dup3\n        /* \"#utility.yul\":7753:7754   */\n      dup2\n        /* \"#utility.yul\":7750:7764   */\n      lt\n        /* \"#utility.yul\":7742:7950   */\n      iszero\n      tag_227\n      jumpi\n        /* \"#utility.yul\":7835:7844   */\n      dup5\n        /* \"#utility.yul\":7830:7833   */\n      dup10\n        /* \"#utility.yul\":7826:7845   */\n      add\n        /* \"#utility.yul\":7820:7846   */\n      mload\n        /* \"#utility.yul\":7812:7818   */\n      dup3\n        /* \"#utility.yul\":7805:7847   */\n      sstore\n        /* \"#utility.yul\":7886:7887   */\n      0x01\n        /* \"#utility.yul\":7878:7884   */\n      dup3\n        /* \"#utility.yul\":7874:7888   */\n      add\n        /* \"#utility.yul\":7864:7888   */\n      swap2\n      pop\n        /* \"#utility.yul\":7933:7935   */\n      0x20\n        /* \"#utility.yul\":7922:7931   */\n      dup6\n        /* \"#utility.yul\":7918:7936   */\n      add\n        /* \"#utility.yul\":7905:7936   */\n      swap5\n      pop\n        /* \"#utility.yul\":7779:7783   */\n      0x20\n        /* \"#utility.yul\":7776:7777   */\n      dup2\n        /* \"#utility.yul\":7772:7784   */\n      add\n        /* \"#utility.yul\":7767:7784   */\n      swap1\n      pop\n        /* \"#utility.yul\":7742:7950   */\n      jump(tag_225)\n    tag_227:\n        /* \"#utility.yul\":7978:7984   */\n      dup7\n        /* \"#utility.yul\":7969:7976   */\n      dup4\n        /* \"#utility.yul\":7966:7985   */\n      lt\n        /* \"#utility.yul\":7963:8142   */\n      iszero\n      tag_228\n      jumpi\n        /* \"#utility.yul\":8036:8045   */\n      dup5\n        /* \"#utility.yul\":8031:8034   */\n      dup10\n        /* \"#utility.yul\":8027:8046   */\n      add\n        /* \"#utility.yul\":8021:8047   */\n      mload\n        /* \"#utility.yul\":8079:8127   */\n      tag_229\n        /* \"#utility.yul\":8121:8125   */\n      0x1f\n        /* \"#utility.yul\":8113:8119   */\n      dup10\n        /* \"#utility.yul\":8109:8126   */\n      and\n        /* \"#utility.yul\":8098:8107   */\n      dup3\n        /* \"#utility.yul\":8079:8127   */\n      tag_134\n      jump\t// in\n    tag_229:\n        /* \"#utility.yul\":8071:8077   */\n      dup4\n        /* \"#utility.yul\":8064:8128   */\n      sstore\n        /* \"#utility.yul\":7986:8142   */\n      pop\n        /* \"#utility.yul\":7963:8142   */\n    tag_228:\n        /* \"#utility.yul\":8188:8189   */\n      0x01\n        /* \"#utility.yul\":8184:8185   */\n      0x02\n        /* \"#utility.yul\":8176:8182   */\n      dup9\n        /* \"#utility.yul\":8172:8186   */\n      mul\n        /* \"#utility.yul\":8168:8190   */\n      add\n        /* \"#utility.yul\":8162:8166   */\n      dup9\n        /* \"#utility.yul\":8155:8191   */\n      sstore\n        /* \"#utility.yul\":7590:8201   */\n      pop\n      pop\n      pop\n        /* \"#utility.yul\":7553:8440   */\n    tag_220:\n      pop\n        /* \"#utility.yul\":7143:8446   */\n      pop\n      pop\n      pop\n        /* \"#utility.yul\":7051:8446   */\n      pop\n      pop\n      jump\t// out\n        /* \"#utility.yul\":8452:8632   */\n    tag_136:\n        /* \"#utility.yul\":8500:8577   */\n      0x4e487b7100000000000000000000000000000000000000000000000000000000\n        /* \"#utility.yul\":8497:8498   */\n      0x00\n        /* \"#utility.yul\":8490:8578   */\n      mstore\n        /* \"#utility.yul\":8597:8601   */\n      0x11\n        /* \"#utility.yul\":8594:8595   */\n      0x04\n        /* \"#utility.yul\":8587:8602   */\n      mstore\n        /* \"#utility.yul\":8621:8625   */\n      0x24\n        /* \"#utility.yul\":8618:8619   */\n      0x00\n        /* \"#utility.yul\":8611:8626   */\n      revert\n        /* \"#utility.yul\":8638:8829   */\n    tag_105:\n        /* \"#utility.yul\":8678:8681   */\n      0x00\n        /* \"#utility.yul\":8697:8717   */\n      tag_232\n        /* \"#utility.yul\":8715:8716   */\n      dup3\n        /* \"#utility.yul\":8697:8717   */\n      tag_106\n      jump\t// in\n    tag_232:\n        /* \"#utility.yul\":8692:8717   */\n      swap2\n      pop\n        /* \"#utility.yul\":8731:8751   */\n      tag_233\n        /* \"#utility.yul\":8749:8750   */\n      dup4\n        /* \"#utility.yul\":8731:8751   */\n      tag_106\n      jump\t// in\n    tag_233:\n        /* \"#utility.yul\":8726:8751   */\n      swap3\n      pop\n        /* \"#utility.yul\":8774:8775   */\n      dup3\n        /* \"#utility.yul\":8771:8772   */\n      dup3\n        /* \"#utility.yul\":8767:8776   */\n      add\n        /* \"#utility.yul\":8760:8776   */\n      swap1\n      pop\n        /* \"#utility.yul\":8795:8798   */\n      dup1\n        /* \"#utility.yul\":8792:8793   */\n      dup3\n        /* \"#utility.yul\":8789:8799   */\n      gt\n        /* \"#utility.yul\":8786:8822   */\n      iszero\n      tag_234\n      jumpi\n        /* \"#utility.yul\":8802:8820   */\n      tag_235\n      tag_136\n      jump\t// in\n    tag_235:\n        /* \"#utility.yul\":8786:8822   */\n    tag_234:\n        /* \"#utility.yul\":8638:8829   */\n      swap3\n      swap2\n      pop\n      pop\n      jump\t// out\n\n    auxdata: 0xa2646970667358221220bb9770f598ff8fb13c09eeb788398fd92c6fe9d637413b13f70fff977e943b2964736f6c634300081a0033\n}\n",
				"bytecode": {
					"linkReferences": {},
					"object": "608060405260015f553480156012575f80fd5b50610a3f806100205f395ff3fe608060405234801561000f575f80fd5b50600436106100cd575f3560e01c8063aec3d6401161008a578063c5d7802e11610064578063c5d7802e146101cd578063cb9f1220146101eb578063f1e6d19814610209578063febb0f7e14610227576100cd565b8063aec3d64014610187578063be44f864146101a5578063c2985578146101c3576100cd565b806309879682146100d15780630c55699c146100ef578063121763491461010d5780632aca45f11461012b578063a05f990614610149578063a56dfe4a14610169575b5f80fd5b6100d9610245565b6040516100e69190610510565b60405180910390f35b6100f761025e565b6040516101049190610510565b60405180910390f35b610115610263565b6040516101229190610510565b60405180910390f35b61013361028d565b6040516101409190610510565b60405180910390f35b6101516102bd565b604051610160939291906105d8565b60405180910390f35b610171610321565b60405161017e9190610510565b60405180910390f35b61018f610327565b60405161019c9190610510565b60405180910390f35b6101ad61035a565b6040516101ba9190610510565b60405180910390f35b6101cb61038a565b005b6101d56103e0565b6040516101e29190610666565b60405180910390f35b6101f361046c565b6040516102009190610510565b60405180910390f35b6102116104ab565b60405161021e9190610510565b60405180910390f35b61022f6104d5565b60405161023c9190610510565b60405180910390f35b5f6001801461025757610256610686565b5b6001905090565b5f5481565b5f6001801461027557610274610686565b5b6001801461028657610285610686565b5b6001905090565b5f62093a8080146102a1576102a0610686565b5b62093a8080146102b4576102b3610686565b5b62093a80905090565b5f8060605f3390505f4390505f80368080601f0160208091040260200160405190810160405280939291908181526020018383808284375f81840152601f19601f820116905080830192505050505050509050828282955095509550505050909192565b60015481565b5f633b9aca00801461033c5761033b610686565b5b633b9aca0080146103505761034f610686565b5b633b9aca00905090565b5f62015180801461036e5761036d610686565b5b62015180801461038157610380610686565b5b62015180905090565b60055f8190555060086001819055506040518060400160405280600481526020017f3078616100000000000000000000000000000000000000000000000000000000815250600290816103dd91906108da565b50565b600280546103ed9061070d565b80601f01602080910402602001604051908101604052809291908181526020018280546104199061070d565b80156104645780601f1061043b57610100808354040283529160200191610464565b820191905f5260205f20905b81548152906001019060200180831161044757829003601f168201915b505050505081565b5f670de0b6b3a7640000801461048557610484610686565b5b670de0b6b3a7640000801461049d5761049c610686565b5b670de0b6b3a7640000905090565b5f603c80146104bd576104bc610686565b5b603c80146104ce576104cd610686565b5b603c905090565b5f80600190505f600390505f81836104ed91906109d6565b905080935050505090565b5f819050919050565b61050a816104f8565b82525050565b5f6020820190506105235f830184610501565b92915050565b5f73ffffffffffffffffffffffffffffffffffffffff82169050919050565b5f61055282610529565b9050919050565b61056281610548565b82525050565b5f81519050919050565b5f82825260208201905092915050565b8281835e5f83830152505050565b5f601f19601f8301169050919050565b5f6105aa82610568565b6105b48185610572565b93506105c4818560208601610582565b6105cd81610590565b840191505092915050565b5f6060820190506105eb5f830186610559565b6105f86020830185610501565b818103604083015261060a81846105a0565b9050949350505050565b5f81519050919050565b5f82825260208201905092915050565b5f61063882610614565b610642818561061e565b9350610652818560208601610582565b61065b81610590565b840191505092915050565b5f6020820190508181035f83015261067e818461062e565b905092915050565b7f4e487b71000000000000000000000000000000000000000000000000000000005f52600160045260245ffd5b7f4e487b71000000000000000000000000000000000000000000000000000000005f52604160045260245ffd5b7f4e487b71000000000000000000000000000000000000000000000000000000005f52602260045260245ffd5b5f600282049050600182168061072457607f821691505b602082108103610737576107366106e0565b5b50919050565b5f819050815f5260205f209050919050565b5f6020601f8301049050919050565b5f82821b905092915050565b5f600883026107997fffffffffffffffffffffffffffffffffffffffffffffffffffffffffffffffff8261075e565b6107a3868361075e565b95508019841693508086168417925050509392505050565b5f819050919050565b5f6107de6107d96107d4846104f8565b6107bb565b6104f8565b9050919050565b5f819050919050565b6107f7836107c4565b61080b610803826107e5565b84845461076a565b825550505050565b5f90565b61081f610813565b61082a8184846107ee565b505050565b5b8181101561084d576108425f82610817565b600181019050610830565b5050565b601f821115610892576108638161073d565b61086c8461074f565b8101602085101561087b578190505b61088f6108878561074f565b83018261082f565b50505b505050565b5f82821c905092915050565b5f6108b25f1984600802610897565b1980831691505092915050565b5f6108ca83836108a3565b9150826002028217905092915050565b6108e382610614565b67ffffffffffffffff8111156108fc576108fb6106b3565b5b610906825461070d565b610911828285610851565b5f60209050601f831160018114610942575f8415610930578287015190505b61093a85826108bf565b8655506109a1565b601f1984166109508661073d565b5f5b8281101561097757848901518255600182019150602085019450602081019050610952565b868310156109945784890151610990601f8916826108a3565b8355505b6001600288020188555050505b505050505050565b7f4e487b71000000000000000000000000000000000000000000000000000000005f52601160045260245ffd5b5f6109e0826104f8565b91506109eb836104f8565b9250828201905080821115610a0357610a026109a9565b5b9291505056fea2646970667358221220bb9770f598ff8fb13c09eeb788398fd92c6fe9d637413b13f70fff977e943b2964736f6c634300081a0033",
					"opcodes": "PUSH1 0x80 PUSH1 0x40 MSTORE PUSH1 0x1 PUSH0 SSTORE CALLVALUE DUP1 ISZERO PUSH1 0x12 JUMPI PUSH0 DUP1 REVERT JUMPDEST POP PUSH2 0xA3F DUP1 PUSH2 0x20 PUSH0 CODECOPY PUSH0 RETURN INVALID PUSH1 0x80 PUSH1 0x40 MSTORE CALLVALUE DUP1 ISZERO PUSH2 0xF JUMPI PUSH0 DUP1 REVERT JUMPDEST POP PUSH1 0x4 CALLDATASIZE LT PUSH2 0xCD JUMPI PUSH0 CALLDATALOAD PUSH1 0xE0 SHR DUP1 PUSH4 0xAEC3D640 GT PUSH2 0x8A JUMPI DUP1 PUSH4 0xC5D7802E GT PUSH2 0x64 JUMPI DUP1 PUSH4 0xC5D7802E EQ PUSH2 0x1CD JUMPI DUP1 PUSH4 0xCB9F1220 EQ PUSH2 0x1EB JUMPI DUP1 PUSH4 0xF1E6D198 EQ PUSH2 0x209 JUMPI DUP1 PUSH4 0xFEBB0F7E EQ PUSH2 0x227 JUMPI PUSH2 0xCD JUMP JUMPDEST DUP1 PUSH4 0xAEC3D640 EQ PUSH2 0x187 JUMPI DUP1 PUSH4 0xBE44F864 EQ PUSH2 0x1A5 JUMPI DUP1 PUSH4 0xC2985578 EQ PUSH2 0x1C3 JUMPI PUSH2 0xCD JUMP JUMPDEST DUP1 PUSH4 0x9879682 EQ PUSH2 0xD1 JUMPI DUP1 PUSH4 0xC55699C EQ PUSH2 0xEF JUMPI DUP1 PUSH4 0x12176349 EQ PUSH2 0x10D JUMPI DUP1 PUSH4 0x2ACA45F1 EQ PUSH2 0x12B JUMPI DUP1 PUSH4 0xA05F9906 EQ PUSH2 0x149 JUMPI DUP1 PUSH4 0xA56DFE4A EQ PUSH2 0x169 JUMPI JUMPDEST PUSH0 DUP1 REVERT JUMPDEST PUSH2 0xD9 PUSH2 0x245 JUMP JUMPDEST PUSH1 0x40 MLOAD PUSH2 0xE6 SWAP2 SWAP1 PUSH2 0x510 JUMP JUMPDEST PUSH1 0x40 MLOAD DUP1 SWAP2 SUB SWAP1 RETURN JUMPDEST PUSH2 0xF7 PUSH2 0x25E JUMP JUMPDEST PUSH1 0x40 MLOAD PUSH2 0x104 SWAP2 SWAP1 PUSH2 0x510 JUMP JUMPDEST PUSH1 0x40 MLOAD DUP1 SWAP2 SUB SWAP1 RETURN JUMPDEST PUSH2 0x115 PUSH2 0x263 JUMP JUMPDEST PUSH1 0x40 MLOAD PUSH2 0x122 SWAP2 SWAP1 PUSH2 0x510 JUMP JUMPDEST PUSH1 0x40 MLOAD DUP1 SWAP2 SUB SWAP1 RETURN JUMPDEST PUSH2 0x133 PUSH2 0x28D JUMP JUMPDEST PUSH1 0x40 MLOAD PUSH2 0x140 SWAP2 SWAP1 PUSH2 0x510 JUMP JUMPDEST PUSH1 0x40 MLOAD DUP1 SWAP2 SUB SWAP1 RETURN JUMPDEST PUSH2 0x151 PUSH2 0x2BD JUMP JUMPDEST PUSH1 0x40 MLOAD PUSH2 0x160 SWAP4 SWAP3 SWAP2 SWAP1 PUSH2 0x5D8 JUMP JUMPDEST PUSH1 0x40 MLOAD DUP1 SWAP2 SUB SWAP1 RETURN JUMPDEST PUSH2 0x171 PUSH2 0x321 JUMP JUMPDEST PUSH1 0x40 MLOAD PUSH2 0x17E SWAP2 SWAP1 PUSH2 0x510 JUMP JUMPDEST PUSH1 0x40 MLOAD DUP1 SWAP2 SUB SWAP1 RETURN JUMPDEST PUSH2 0x18F PUSH2 0x327 JUMP JUMPDEST PUSH1 0x40 MLOAD PUSH2 0x19C SWAP2 SWAP1 PUSH2 0x510 JUMP JUMPDEST PUSH1 0x40 MLOAD DUP1 SWAP2 SUB SWAP1 RETURN JUMPDEST PUSH2 0x1AD PUSH2 0x35A JUMP JUMPDEST PUSH1 0x40 MLOAD PUSH2 0x1BA SWAP2 SWAP1 PUSH2 0x510 JUMP JUMPDEST PUSH1 0x40 MLOAD DUP1 SWAP2 SUB SWAP1 RETURN JUMPDEST PUSH2 0x1CB PUSH2 0x38A JUMP JUMPDEST STOP JUMPDEST PUSH2 0x1D5 PUSH2 0x3E0 JUMP JUMPDEST PUSH1 0x40 MLOAD PUSH2 0x1E2 SWAP2 SWAP1 PUSH2 0x666 JUMP JUMPDEST PUSH1 0x40 MLOAD DUP1 SWAP2 SUB SWAP1 RETURN JUMPDEST PUSH2 0x1F3 PUSH2 0x46C JUMP JUMPDEST PUSH1 0x40 MLOAD PUSH2 0x200 SWAP2 SWAP1 PUSH2 0x510 JUMP JUMPDEST PUSH1 0x40 MLOAD DUP1 SWAP2 SUB SWAP1 RETURN JUMPDEST PUSH2 0x211 PUSH2 0x4AB JUMP JUMPDEST PUSH1 0x40 MLOAD PUSH2 0x21E SWAP2 SWAP1 PUSH2 0x510 JUMP JUMPDEST PUSH1 0x40 MLOAD DUP1 SWAP2 SUB SWAP1 RETURN JUMPDEST PUSH2 0x22F PUSH2 0x4D5 JUMP JUMPDEST PUSH1 0x40 MLOAD PUSH2 0x23C SWAP2 SWAP1 PUSH2 0x510 JUMP JUMPDEST PUSH1 0x40 MLOAD DUP1 SWAP2 SUB SWAP1 RETURN JUMPDEST PUSH0 PUSH1 0x1 DUP1 EQ PUSH2 0x257 JUMPI PUSH2 0x256 PUSH2 0x686 JUMP JUMPDEST JUMPDEST PUSH1 0x1 SWAP1 POP SWAP1 JUMP JUMPDEST PUSH0 SLOAD DUP2 JUMP JUMPDEST PUSH0 PUSH1 0x1 DUP1 EQ PUSH2 0x275 JUMPI PUSH2 0x274 PUSH2 0x686 JUMP JUMPDEST JUMPDEST PUSH1 0x1 DUP1 EQ PUSH2 0x286 JUMPI PUSH2 0x285 PUSH2 0x686 JUMP JUMPDEST JUMPDEST PUSH1 0x1 SWAP1 POP SWAP1 JUMP JUMPDEST PUSH0 PUSH3 0x93A80 DUP1 EQ PUSH2 0x2A1 JUMPI PUSH2 0x2A0 PUSH2 0x686 JUMP JUMPDEST JUMPDEST PUSH3 0x93A80 DUP1 EQ PUSH2 0x2B4 JUMPI PUSH2 0x2B3 PUSH2 0x686 JUMP JUMPDEST JUMPDEST PUSH3 0x93A80 SWAP1 POP SWAP1 JUMP JUMPDEST PUSH0 DUP1 PUSH1 0x60 PUSH0 CALLER SWAP1 POP PUSH0 NUMBER SWAP1 POP PUSH0 DUP1 CALLDATASIZE DUP1 DUP1 PUSH1 0x1F ADD PUSH1 0x20 DUP1 SWAP2 DIV MUL PUSH1 0x20 ADD PUSH1 0x40 MLOAD SWAP1 DUP2 ADD PUSH1 0x40 MSTORE DUP1 SWAP4 SWAP3 SWAP2 SWAP1 DUP2 DUP2 MSTORE PUSH1 0x20 ADD DUP4 DUP4 DUP1 DUP3 DUP5 CALLDATACOPY PUSH0 DUP2 DUP5 ADD MSTORE PUSH1 0x1F NOT PUSH1 0x1F DUP3 ADD AND SWAP1 POP DUP1 DUP4 ADD SWAP3 POP POP POP POP POP POP POP SWAP1 POP DUP3 DUP3 DUP3 SWAP6 POP SWAP6 POP SWAP6 POP POP POP POP SWAP1 SWAP2 SWAP3 JUMP JUMPDEST PUSH1 0x1 SLOAD DUP2 JUMP JUMPDEST PUSH0 PUSH4 0x3B9ACA00 DUP1 EQ PUSH2 0x33C JUMPI PUSH2 0x33B PUSH2 0x686 JUMP JUMPDEST JUMPDEST PUSH4 0x3B9ACA00 DUP1 EQ PUSH2 0x350 JUMPI PUSH2 0x34F PUSH2 0x686 JUMP JUMPDEST JUMPDEST PUSH4 0x3B9ACA00 SWAP1 POP SWAP1 JUMP JUMPDEST PUSH0 PUSH3 0x15180 DUP1 EQ PUSH2 0x36E JUMPI PUSH2 0x36D PUSH2 0x686 JUMP JUMPDEST JUMPDEST PUSH3 0x15180 DUP1 EQ PUSH2 0x381 JUMPI PUSH2 0x380 PUSH2 0x686 JUMP JUMPDEST JUMPDEST PUSH3 0x15180 SWAP1 POP SWAP1 JUMP JUMPDEST PUSH1 0x5 PUSH0 DUP2 SWAP1 SSTORE POP PUSH1 0x8 PUSH1 0x1 DUP2 SWAP1 SSTORE POP PUSH1 0x40 MLOAD DUP1 PUSH1 0x40 ADD PUSH1 0x40 MSTORE DUP1 PUSH1 0x4 DUP2 MSTORE PUSH1 0x20 ADD PUSH32 0x3078616100000000000000000000000000000000000000000000000000000000 DUP2 MSTORE POP PUSH1 0x2 SWAP1 DUP2 PUSH2 0x3DD SWAP2 SWAP1 PUSH2 0x8DA JUMP JUMPDEST POP JUMP JUMPDEST PUSH1 0x2 DUP1 SLOAD PUSH2 0x3ED SWAP1 PUSH2 0x70D JUMP JUMPDEST DUP1 PUSH1 0x1F ADD PUSH1 0x20 DUP1 SWAP2 DIV MUL PUSH1 0x20 ADD PUSH1 0x40 MLOAD SWAP1 DUP2 ADD PUSH1 0x40 MSTORE DUP1 SWAP3 SWAP2 SWAP1 DUP2 DUP2 MSTORE PUSH1 0x20 ADD DUP3 DUP1 SLOAD PUSH2 0x419 SWAP1 PUSH2 0x70D JUMP JUMPDEST DUP1 ISZERO PUSH2 0x464 JUMPI DUP1 PUSH1 0x1F LT PUSH2 0x43B JUMPI PUSH2 0x100 DUP1 DUP4 SLOAD DIV MUL DUP4 MSTORE SWAP2 PUSH1 0x20 ADD SWAP2 PUSH2 0x464 JUMP JUMPDEST DUP3 ADD SWAP2 SWAP1 PUSH0 MSTORE PUSH1 0x20 PUSH0 KECCAK256 SWAP1 JUMPDEST DUP2 SLOAD DUP2 MSTORE SWAP1 PUSH1 0x1 ADD SWAP1 PUSH1 0x20 ADD DUP1 DUP4 GT PUSH2 0x447 JUMPI DUP3 SWAP1 SUB PUSH1 0x1F AND DUP3 ADD SWAP2 JUMPDEST POP POP POP POP POP DUP2 JUMP JUMPDEST PUSH0 PUSH8 0xDE0B6B3A7640000 DUP1 EQ PUSH2 0x485 JUMPI PUSH2 0x484 PUSH2 0x686 JUMP JUMPDEST JUMPDEST PUSH8 0xDE0B6B3A7640000 DUP1 EQ PUSH2 0x49D JUMPI PUSH2 0x49C PUSH2 0x686 JUMP JUMPDEST JUMPDEST PUSH8 0xDE0B6B3A7640000 SWAP1 POP SWAP1 JUMP JUMPDEST PUSH0 PUSH1 0x3C DUP1 EQ PUSH2 0x4BD JUMPI PUSH2 0x4BC PUSH2 0x686 JUMP JUMPDEST JUMPDEST PUSH1 0x3C DUP1 EQ PUSH2 0x4CE JUMPI PUSH2 0x4CD PUSH2 0x686 JUMP JUMPDEST JUMPDEST PUSH1 0x3C SWAP1 POP SWAP1 JUMP JUMPDEST PUSH0 DUP1 PUSH1 0x1 SWAP1 POP PUSH0 PUSH1 0x3 SWAP1 POP PUSH0 DUP2 DUP4 PUSH2 0x4ED SWAP2 SWAP1 PUSH2 0x9D6 JUMP JUMPDEST SWAP1 POP DUP1 SWAP4 POP POP POP POP SWAP1 JUMP JUMPDEST PUSH0 DUP2 SWAP1 POP SWAP2 SWAP1 POP JUMP JUMPDEST PUSH2 0x50A DUP2 PUSH2 0x4F8 JUMP JUMPDEST DUP3 MSTORE POP POP JUMP JUMPDEST PUSH0 PUSH1 0x20 DUP3 ADD SWAP1 POP PUSH2 0x523 PUSH0 DUP4 ADD DUP5 PUSH2 0x501 JUMP JUMPDEST SWAP3 SWAP2 POP POP JUMP JUMPDEST PUSH0 PUSH20 0xFFFFFFFFFFFFFFFFFFFFFFFFFFFFFFFFFFFFFFFF DUP3 AND SWAP1 POP SWAP2 SWAP1 POP JUMP JUMPDEST PUSH0 PUSH2 0x552 DUP3 PUSH2 0x529 JUMP JUMPDEST SWAP1 POP SWAP2 SWAP1 POP JUMP JUMPDEST PUSH2 0x562 DUP2 PUSH2 0x548 JUMP JUMPDEST DUP3 MSTORE POP POP JUMP JUMPDEST PUSH0 DUP2 MLOAD SWAP1 POP SWAP2 SWAP1 POP JUMP JUMPDEST PUSH0 DUP3 DUP3 MSTORE PUSH1 0x20 DUP3 ADD SWAP1 POP SWAP3 SWAP2 POP POP JUMP JUMPDEST DUP3 DUP2 DUP4 MCOPY PUSH0 DUP4 DUP4 ADD MSTORE POP POP POP JUMP JUMPDEST PUSH0 PUSH1 0x1F NOT PUSH1 0x1F DUP4 ADD AND SWAP1 POP SWAP2 SWAP1 POP JUMP JUMPDEST PUSH0 PUSH2 0x5AA DUP3 PUSH2 0x568 JUMP JUMPDEST PUSH2 0x5B4 DUP2 DUP6 PUSH2 0x572 JUMP JUMPDEST SWAP4 POP PUSH2 0x5C4 DUP2 DUP6 PUSH1 0x20 DUP7 ADD PUSH2 0x582 JUMP JUMPDEST PUSH2 0x5CD DUP2 PUSH2 0x590 JUMP JUMPDEST DUP5 ADD SWAP2 POP POP SWAP3 SWAP2 POP POP JUMP JUMPDEST PUSH0 PUSH1 0x60 DUP3 ADD SWAP1 POP PUSH2 0x5EB PUSH0 DUP4 ADD DUP7 PUSH2 0x559 JUMP JUMPDEST PUSH2 0x5F8 PUSH1 0x20 DUP4 ADD DUP6 PUSH2 0x501 JUMP JUMPDEST DUP2 DUP2 SUB PUSH1 0x40 DUP4 ADD MSTORE PUSH2 0x60A DUP2 DUP5 PUSH2 0x5A0 JUMP JUMPDEST SWAP1 POP SWAP5 SWAP4 POP POP POP POP JUMP JUMPDEST PUSH0 DUP2 MLOAD SWAP1 POP SWAP2 SWAP1 POP JUMP JUMPDEST PUSH0 DUP3 DUP3 MSTORE PUSH1 0x20 DUP3 ADD SWAP1 POP SWAP3 SWAP2 POP POP JUMP JUMPDEST PUSH0 PUSH2 0x638 DUP3 PUSH2 0x614 JUMP JUMPDEST PUSH2 0x642 DUP2 DUP6 PUSH2 0x61E JUMP JUMPDEST SWAP4 POP PUSH2 0x652 DUP2 DUP6 PUSH1 0x20 DUP7 ADD PUSH2 0x582 JUMP JUMPDEST PUSH2 0x65B DUP2 PUSH2 0x590 JUMP JUMPDEST DUP5 ADD SWAP2 POP POP SWAP3 SWAP2 POP POP JUMP JUMPDEST PUSH0 PUSH1 0x20 DUP3 ADD SWAP1 POP DUP2 DUP2 SUB PUSH0 DUP4 ADD MSTORE PUSH2 0x67E DUP2 DUP5 PUSH2 0x62E JUMP JUMPDEST SWAP1 POP SWAP3 SWAP2 POP POP JUMP JUMPDEST PUSH32 0x4E487B7100000000000000000000000000000000000000000000000000000000 PUSH0 MSTORE PUSH1 0x1 PUSH1 0x4 MSTORE PUSH1 0x24 PUSH0 REVERT JUMPDEST PUSH32 0x4E487B7100000000000000000000000000000000000000000000000000000000 PUSH0 MSTORE PUSH1 0x41 PUSH1 0x4 MSTORE PUSH1 0x24 PUSH0 REVERT JUMPDEST PUSH32 0x4E487B7100000000000000000000000000000000000000000000000000000000 PUSH0 MSTORE PUSH1 0x22 PUSH1 0x4 MSTORE PUSH1 0x24 PUSH0 REVERT JUMPDEST PUSH0 PUSH1 0x2 DUP3 DIV SWAP1 POP PUSH1 0x1 DUP3 AND DUP1 PUSH2 0x724 JUMPI PUSH1 0x7F DUP3 AND SWAP2 POP JUMPDEST PUSH1 0x20 DUP3 LT DUP2 SUB PUSH2 0x737 JUMPI PUSH2 0x736 PUSH2 0x6E0 JUMP JUMPDEST JUMPDEST POP SWAP2 SWAP1 POP JUMP JUMPDEST PUSH0 DUP2 SWAP1 POP DUP2 PUSH0 MSTORE PUSH1 0x20 PUSH0 KECCAK256 SWAP1 POP SWAP2 SWAP1 POP JUMP JUMPDEST PUSH0 PUSH1 0x20 PUSH1 0x1F DUP4 ADD DIV SWAP1 POP SWAP2 SWAP1 POP JUMP JUMPDEST PUSH0 DUP3 DUP3 SHL SWAP1 POP SWAP3 SWAP2 POP POP JUMP JUMPDEST PUSH0 PUSH1 0x8 DUP4 MUL PUSH2 0x799 PUSH32 0xFFFFFFFFFFFFFFFFFFFFFFFFFFFFFFFFFFFFFFFFFFFFFFFFFFFFFFFFFFFFFFFF DUP3 PUSH2 0x75E JUMP JUMPDEST PUSH2 0x7A3 DUP7 DUP4 PUSH2 0x75E JUMP JUMPDEST SWAP6 POP DUP1 NOT DUP5 AND SWAP4 POP DUP1 DUP7 AND DUP5 OR SWAP3 POP POP POP SWAP4 SWAP3 POP POP POP JUMP JUMPDEST PUSH0 DUP2 SWAP1 POP SWAP2 SWAP1 POP JUMP JUMPDEST PUSH0 PUSH2 0x7DE PUSH2 0x7D9 PUSH2 0x7D4 DUP5 PUSH2 0x4F8 JUMP JUMPDEST PUSH2 0x7BB JUMP JUMPDEST PUSH2 0x4F8 JUMP JUMPDEST SWAP1 POP SWAP2 SWAP1 POP JUMP JUMPDEST PUSH0 DUP2 SWAP1 POP SWAP2 SWAP1 POP JUMP JUMPDEST PUSH2 0x7F7 DUP4 PUSH2 0x7C4 JUMP JUMPDEST PUSH2 0x80B PUSH2 0x803 DUP3 PUSH2 0x7E5 JUMP JUMPDEST DUP5 DUP5 SLOAD PUSH2 0x76A JUMP JUMPDEST DUP3 SSTORE POP POP POP POP JUMP JUMPDEST PUSH0 SWAP1 JUMP JUMPDEST PUSH2 0x81F PUSH2 0x813 JUMP JUMPDEST PUSH2 0x82A DUP2 DUP5 DUP5 PUSH2 0x7EE JUMP JUMPDEST POP POP POP JUMP JUMPDEST JUMPDEST DUP2 DUP2 LT ISZERO PUSH2 0x84D JUMPI PUSH2 0x842 PUSH0 DUP3 PUSH2 0x817 JUMP JUMPDEST PUSH1 0x1 DUP2 ADD SWAP1 POP PUSH2 0x830 JUMP JUMPDEST POP POP JUMP JUMPDEST PUSH1 0x1F DUP3 GT ISZERO PUSH2 0x892 JUMPI PUSH2 0x863 DUP2 PUSH2 0x73D JUMP JUMPDEST PUSH2 0x86C DUP5 PUSH2 0x74F JUMP JUMPDEST DUP2 ADD PUSH1 0x20 DUP6 LT ISZERO PUSH2 0x87B JUMPI DUP2 SWAP1 POP JUMPDEST PUSH2 0x88F PUSH2 0x887 DUP6 PUSH2 0x74F JUMP JUMPDEST DUP4 ADD DUP3 PUSH2 0x82F JUMP JUMPDEST POP POP JUMPDEST POP POP POP JUMP JUMPDEST PUSH0 DUP3 DUP3 SHR SWAP1 POP SWAP3 SWAP2 POP POP JUMP JUMPDEST PUSH0 PUSH2 0x8B2 PUSH0 NOT DUP5 PUSH1 0x8 MUL PUSH2 0x897 JUMP JUMPDEST NOT DUP1 DUP4 AND SWAP2 POP POP SWAP3 SWAP2 POP POP JUMP JUMPDEST PUSH0 PUSH2 0x8CA DUP4 DUP4 PUSH2 0x8A3 JUMP JUMPDEST SWAP2 POP DUP3 PUSH1 0x2 MUL DUP3 OR SWAP1 POP SWAP3 SWAP2 POP POP JUMP JUMPDEST PUSH2 0x8E3 DUP3 PUSH2 0x614 JUMP JUMPDEST PUSH8 0xFFFFFFFFFFFFFFFF DUP2 GT ISZERO PUSH2 0x8FC JUMPI PUSH2 0x8FB PUSH2 0x6B3 JUMP JUMPDEST JUMPDEST PUSH2 0x906 DUP3 SLOAD PUSH2 0x70D JUMP JUMPDEST PUSH2 0x911 DUP3 DUP3 DUP6 PUSH2 0x851 JUMP JUMPDEST PUSH0 PUSH1 0x20 SWAP1 POP PUSH1 0x1F DUP4 GT PUSH1 0x1 DUP2 EQ PUSH2 0x942 JUMPI PUSH0 DUP5 ISZERO PUSH2 0x930 JUMPI DUP3 DUP8 ADD MLOAD SWAP1 POP JUMPDEST PUSH2 0x93A DUP6 DUP3 PUSH2 0x8BF JUMP JUMPDEST DUP7 SSTORE POP PUSH2 0x9A1 JUMP JUMPDEST PUSH1 0x1F NOT DUP5 AND PUSH2 0x950 DUP7 PUSH2 0x73D JUMP JUMPDEST PUSH0 JUMPDEST DUP3 DUP2 LT ISZERO PUSH2 0x977 JUMPI DUP5 DUP10 ADD MLOAD DUP3 SSTORE PUSH1 0x1 DUP3 ADD SWAP2 POP PUSH1 0x20 DUP6 ADD SWAP5 POP PUSH1 0x20 DUP2 ADD SWAP1 POP PUSH2 0x952 JUMP JUMPDEST DUP7 DUP4 LT ISZERO PUSH2 0x994 JUMPI DUP5 DUP10 ADD MLOAD PUSH2 0x990 PUSH1 0x1F DUP10 AND DUP3 PUSH2 0x8A3 JUMP JUMPDEST DUP4 SSTORE POP JUMPDEST PUSH1 0x1 PUSH1 0x2 DUP9 MUL ADD DUP9 SSTORE POP POP POP JUMPDEST POP POP POP POP POP POP JUMP JUMPDEST PUSH32 0x4E487B7100000000000000000000000000000000000000000000000000000000 PUSH0 MSTORE PUSH1 0x11 PUSH1 0x4 MSTORE PUSH1 0x24 PUSH0 REVERT JUMPDEST PUSH0 PUSH2 0x9E0 DUP3 PUSH2 0x4F8 JUMP JUMPDEST SWAP2 POP PUSH2 0x9EB DUP4 PUSH2 0x4F8 JUMP JUMPDEST SWAP3 POP DUP3 DUP3 ADD SWAP1 POP DUP1 DUP3 GT ISZERO PUSH2 0xA03 JUMPI PUSH2 0xA02 PUSH2 0x9A9 JUMP JUMPDEST JUMPDEST SWAP3 SWAP2 POP POP JUMP INVALID LOG2 PUSH5 0x6970667358 0x22 SLT KECCAK256 0xBB SWAP8 PUSH17 0xF598FF8FB13C09EEB788398FD92C6FE9D6 CALLDATACOPY COINBASE EXTCODESIZE SGT 0xF7 0xF SELFDESTRUCT SWAP8 PUSH31 0x943B2964736F6C634300081A00330000000000000000000000000000000000 "
				},
				"gasEstimates": {
					"creation": {
						"codeDepositCost": "524600",
						"executionCost": "22659",
						"totalCost": "547259"
					},
					"external": {
						"bar()": "infinite",
						"etherUnit()": "422",
						"foo()": "infinite",
						"global()": "infinite",
						"gweiUnit()": "401",
						"hoursUnit()": "423",
						"minutesUnit()": "444",
						"secondsUnit()": "356",
						"weeksUnit()": "445",
						"weiUnit()": "423",
						"x()": "2447",
						"y()": "2536",
						"z()": "infinite"
					}
				},
				"methodIdentifiers": {
					"bar()": "febb0f7e",
					"etherUnit()": "cb9f1220",
					"foo()": "c2985578",
					"global()": "a05f9906",
					"gweiUnit()": "aec3d640",
					"hoursUnit()": "be44f864",
					"minutesUnit()": "f1e6d198",
					"secondsUnit()": "09879682",
					"weeksUnit()": "2aca45f1",
					"weiUnit()": "12176349",
					"x()": "0c55699c",
					"y()": "a56dfe4a",
					"z()": "c5d7802e"
				}
			},
			"storageLayout": {
				"storage": [
					{
						"astId": 126,
						"contract": "testfunout.sol:Variables",
						"label": "x",
						"offset": 0,
						"slot": "0",
						"type": "t_uint256"
					},
					{
						"astId": 128,
						"contract": "testfunout.sol:Variables",
						"label": "y",
						"offset": 0,
						"slot": "1",
						"type": "t_uint256"
					},
					{
						"astId": 130,
						"contract": "testfunout.sol:Variables",
						"label": "z",
						"offset": 0,
						"slot": "2",
						"type": "t_string_storage"
					}
				],
				"types": {
					"t_string_storage": {
						"encoding": "bytes",
						"label": "string",
						"numberOfBytes": "32"
					},
					"t_uint256": {
						"encoding": "inplace",
						"label": "uint256",
						"numberOfBytes": "32"
					}
				}
			},
			"userdoc": {
				"kind": "user",
				"methods": {},
				"version": 1
			}
		}
	}
}