{
	"testController.sol": {
		"testController": {
			"abi": [
				{
					"inputs": [],
					"name": "doWhileTest",
					"outputs": [
						{
							"internalType": "uint256",
							"name": "",
							"type": "uint256"
						}
					],
					"stateMutability": "pure",
					"type": "function"
				},
				{
					"inputs": [],
					"name": "forLoopTest",
					"outputs": [
						{
							"internalType": "uint256",
							"name": "",
							"type": "uint256"
						}
					],
					"stateMutability": "pure",
					"type": "function"
				},
				{
					"inputs": [
						{
							"internalType": "uint256",
							"name": "_number",
							"type": "uint256"
						}
					],
					"name": "ifElseTest",
					"outputs": [
						{
							"internalType": "bool",
							"name": "",
							"type": "bool"
						}
					],
					"stateMutability": "pure",
					"type": "function"
				},
				{
					"inputs": [
						{
							"internalType": "uint256[]",
							"name": "a",
							"type": "uint256[]"
						}
					],
					"name": "insertionSort",
					"outputs": [
						{
							"internalType": "uint256[]",
							"name": "",
							"type": "uint256[]"
						}
					],
					"stateMutability": "pure",
					"type": "function"
				},
				{
					"inputs": [],
					"name": "whileTest",
					"outputs": [
						{
							"internalType": "uint256",
							"name": "",
							"type": "uint256"
						}
					],
					"stateMutability": "pure",
					"type": "function"
				}
			],
			"devdoc": {
				"kind": "dev",
				"methods": {},
				"version": 1
			},
			"evm": {
				"assembly": "    /* \"testController.sol\":57:1373  contract testController{... */\n  mstore(0x40, 0x80)\n  callvalue\n  dup1\n  iszero\n  tag_1\n  jumpi\n  0x00\n  dup1\n  revert\ntag_1:\n  pop\n  dataSize(sub_0)\n  dup1\n  dataOffset(sub_0)\n  0x00\n  codecopy\n  0x00\n  return\nstop\n\nsub_0: assembly {\n        /* \"testController.sol\":57:1373  contract testController{... */\n      mstore(0x40, 0x80)\n      callvalue\n      dup1\n      iszero\n      tag_1\n      jumpi\n      0x00\n      dup1\n      revert\n    tag_1:\n      pop\n      jumpi(tag_2, lt(calldatasize, 0x04))\n      shr(0xe0, calldataload(0x00))\n      dup1\n      0x2bbacaaa\n      eq\n      tag_3\n      jumpi\n      dup1\n      0x5d14639d\n      eq\n      tag_4\n      jumpi\n      dup1\n      0x6297206f\n      eq\n      tag_5\n      jumpi\n      dup1\n      0x7141fb00\n      eq\n      tag_6\n      jumpi\n      dup1\n      0xb0cfa9fc\n      eq\n      tag_7\n      jumpi\n    tag_2:\n      0x00\n      dup1\n      revert\n        /* \"testController.sol\":719:916  function doWhileTest() public pure returns (uint256) {... */\n    tag_3:\n      tag_8\n      tag_9\n      jump\t// in\n    tag_8:\n      mload(0x40)\n      tag_10\n      swap2\n      swap1\n      tag_11\n      jump\t// in\n    tag_10:\n      mload(0x40)\n      dup1\n      swap2\n      sub\n      swap1\n      return\n        /* \"testController.sol\":499:692  function whileTest() public pure returns(uint256) {... */\n    tag_4:\n      tag_12\n      tag_13\n      jump\t// in\n    tag_12:\n      mload(0x40)\n      tag_14\n      swap2\n      swap1\n      tag_11\n      jump\t// in\n    tag_14:\n      mload(0x40)\n      dup1\n      swap2\n      sub\n      swap1\n      return\n        /* \"testController.sol\":971:1371  function insertionSort(uint[] memory a) public pure returns(uint[] memory) {... */\n    tag_5:\n      tag_15\n      0x04\n      dup1\n      calldatasize\n      sub\n      dup2\n      add\n      swap1\n      tag_16\n      swap2\n      swap1\n      tag_17\n      jump\t// in\n    tag_16:\n      tag_18\n      jump\t// in\n    tag_15:\n      mload(0x40)\n      tag_19\n      swap2\n      swap1\n      tag_20\n      jump\t// in\n    tag_19:\n      mload(0x40)\n      dup1\n      swap2\n      sub\n      swap1\n      return\n        /* \"testController.sol\":101:281  function ifElseTest(uint256 _number) public pure returns (bool) {... */\n    tag_6:\n      tag_21\n      0x04\n      dup1\n      calldatasize\n      sub\n      dup2\n      add\n      swap1\n      tag_22\n      swap2\n      swap1\n      tag_23\n      jump\t// in\n    tag_22:\n      tag_24\n      jump\t// in\n    tag_21:\n      mload(0x40)\n      tag_25\n      swap2\n      swap1\n      tag_26\n      jump\t// in\n    tag_25:\n      mload(0x40)\n      dup1\n      swap2\n      sub\n      swap1\n      return\n        /* \"testController.sol\":303:475  function forLoopTest() public pure returns (uint256) {... */\n    tag_7:\n      tag_27\n      tag_28\n      jump\t// in\n    tag_27:\n      mload(0x40)\n      tag_29\n      swap2\n      swap1\n      tag_11\n      jump\t// in\n    tag_29:\n      mload(0x40)\n      dup1\n      swap2\n      sub\n      swap1\n      return\n        /* \"testController.sol\":719:916  function doWhileTest() public pure returns (uint256) {... */\n    tag_9:\n        /* \"testController.sol\":763:770  uint256 */\n      0x00\n        /* \"testController.sol\":782:790  uint sum */\n      dup1\n        /* \"testController.sol\":793:794  0 */\n      0x00\n        /* \"testController.sol\":782:794  uint sum = 0 */\n      swap1\n      pop\n        /* \"testController.sol\":804:810  uint i */\n      0x00\n        /* \"testController.sol\":824:888  do{... */\n    tag_31:\n        /* \"testController.sol\":846:847  i */\n      dup1\n        /* \"testController.sol\":840:847  sum +=i */\n      dup3\n      tag_34\n      swap2\n      swap1\n      tag_35\n      jump\t// in\n    tag_34:\n      swap2\n      pop\n        /* \"testController.sol\":861:864  i++ */\n      dup1\n      dup1\n      tag_36\n      swap1\n      tag_37\n      jump\t// in\n    tag_36:\n      swap2\n      pop\n      pop\n        /* \"testController.sol\":884:886  10 */\n      0x0a\n        /* \"testController.sol\":882:883  i */\n      dup2\n        /* \"testController.sol\":882:886  i<10 */\n      lt\n        /* \"testController.sol\":824:888  do{... */\n      tag_31\n      jumpi\n        /* \"testController.sol\":905:908  sum */\n      dup2\n        /* \"testController.sol\":897:909  return (sum) */\n      swap3\n      pop\n      pop\n      pop\n        /* \"testController.sol\":719:916  function doWhileTest() public pure returns (uint256) {... */\n      swap1\n      jump\t// out\n        /* \"testController.sol\":499:692  function whileTest() public pure returns(uint256) {... */\n    tag_13:\n        /* \"testController.sol\":540:547  uint256 */\n      0x00\n        /* \"testController.sol\":559:567  uint sum */\n      dup1\n        /* \"testController.sol\":570:571  0 */\n      0x00\n        /* \"testController.sol\":559:571  uint sum = 0 */\n      swap1\n      pop\n        /* \"testController.sol\":581:587  uint i */\n      0x00\n        /* \"testController.sol\":601:664  while (i < 10) {... */\n    tag_39:\n        /* \"testController.sol\":612:614  10 */\n      0x0a\n        /* \"testController.sol\":608:609  i */\n      dup2\n        /* \"testController.sol\":608:614  i < 10 */\n      lt\n        /* \"testController.sol\":601:664  while (i < 10) {... */\n      iszero\n      tag_40\n      jumpi\n        /* \"testController.sol\":635:636  i */\n      dup1\n        /* \"testController.sol\":630:636  sum+=i */\n      dup3\n      tag_41\n      swap2\n      swap1\n      tag_35\n      jump\t// in\n    tag_41:\n      swap2\n      pop\n        /* \"testController.sol\":650:653  i++ */\n      dup1\n      dup1\n      tag_42\n      swap1\n      tag_37\n      jump\t// in\n    tag_42:\n      swap2\n      pop\n      pop\n        /* \"testController.sol\":601:664  while (i < 10) {... */\n      jump(tag_39)\n    tag_40:\n        /* \"testController.sol\":681:684  sum */\n      dup2\n        /* \"testController.sol\":673:685  return (sum) */\n      swap3\n      pop\n      pop\n      pop\n        /* \"testController.sol\":499:692  function whileTest() public pure returns(uint256) {... */\n      swap1\n      jump\t// out\n        /* \"testController.sol\":971:1371  function insertionSort(uint[] memory a) public pure returns(uint[] memory) {... */\n    tag_18:\n        /* \"testController.sol\":1031:1044  uint[] memory */\n      0x60\n        /* \"testController.sol\":1115:1121  uint i */\n      0x00\n        /* \"testController.sol\":1124:1125  1 */\n      0x01\n        /* \"testController.sol\":1115:1125  uint i = 1 */\n      swap1\n      pop\n        /* \"testController.sol\":1110:1346  for (uint i = 1;i < a.length;i++){... */\n    tag_44:\n        /* \"testController.sol\":1130:1131  a */\n      dup3\n        /* \"testController.sol\":1130:1138  a.length */\n      mload\n        /* \"testController.sol\":1126:1127  i */\n      dup2\n        /* \"testController.sol\":1126:1138  i < a.length */\n      lt\n        /* \"testController.sol\":1110:1346  for (uint i = 1;i < a.length;i++){... */\n      iszero\n      tag_45\n      jumpi\n        /* \"testController.sol\":1157:1166  uint temp */\n      0x00\n        /* \"testController.sol\":1169:1170  a */\n      dup4\n        /* \"testController.sol\":1171:1172  i */\n      dup3\n        /* \"testController.sol\":1169:1173  a[i] */\n      dup2\n      mload\n      dup2\n      lt\n      tag_47\n      jumpi\n      tag_48\n      tag_49\n      jump\t// in\n    tag_48:\n    tag_47:\n      0x20\n      mul\n      0x20\n      add\n      add\n      mload\n        /* \"testController.sol\":1157:1173  uint temp = a[i] */\n      swap1\n      pop\n        /* \"testController.sol\":1187:1193  uint j */\n      0x00\n        /* \"testController.sol\":1194:1195  i */\n      dup3\n        /* \"testController.sol\":1187:1195  uint j=i */\n      swap1\n      pop\n        /* \"testController.sol\":1209:1311  while( (j >= 1) && (temp < a[j-1])){... */\n    tag_50:\n        /* \"testController.sol\":1222:1223  1 */\n      0x01\n        /* \"testController.sol\":1217:1218  j */\n      dup2\n        /* \"testController.sol\":1217:1223  j >= 1 */\n      lt\n      iszero\n        /* \"testController.sol\":1216:1243  (j >= 1) && (temp < a[j-1]) */\n      dup1\n      iszero\n      tag_52\n      jumpi\n      pop\n        /* \"testController.sol\":1236:1237  a */\n      dup5\n        /* \"testController.sol\":1240:1241  1 */\n      0x01\n        /* \"testController.sol\":1238:1239  j */\n      dup3\n        /* \"testController.sol\":1238:1241  j-1 */\n      tag_53\n      swap2\n      swap1\n      tag_54\n      jump\t// in\n    tag_53:\n        /* \"testController.sol\":1236:1242  a[j-1] */\n      dup2\n      mload\n      dup2\n      lt\n      tag_55\n      jumpi\n      tag_56\n      tag_49\n      jump\t// in\n    tag_56:\n    tag_55:\n      0x20\n      mul\n      0x20\n      add\n      add\n      mload\n        /* \"testController.sol\":1229:1233  temp */\n      dup3\n        /* \"testController.sol\":1229:1242  temp < a[j-1] */\n      lt\n        /* \"testController.sol\":1216:1243  (j >= 1) && (temp < a[j-1]) */\n    tag_52:\n        /* \"testController.sol\":1209:1311  while( (j >= 1) && (temp < a[j-1])){... */\n      iszero\n      tag_51\n      jumpi\n        /* \"testController.sol\":1269:1270  a */\n      dup5\n        /* \"testController.sol\":1273:1274  1 */\n      0x01\n        /* \"testController.sol\":1271:1272  j */\n      dup3\n        /* \"testController.sol\":1271:1274  j-1 */\n      tag_57\n      swap2\n      swap1\n      tag_54\n      jump\t// in\n    tag_57:\n        /* \"testController.sol\":1269:1275  a[j-1] */\n      dup2\n      mload\n      dup2\n      lt\n      tag_58\n      jumpi\n      tag_59\n      tag_49\n      jump\t// in\n    tag_59:\n    tag_58:\n      0x20\n      mul\n      0x20\n      add\n      add\n      mload\n        /* \"testController.sol\":1262:1263  a */\n      dup6\n        /* \"testController.sol\":1264:1265  j */\n      dup3\n        /* \"testController.sol\":1262:1266  a[j] */\n      dup2\n      mload\n      dup2\n      lt\n      tag_60\n      jumpi\n      tag_61\n      tag_49\n      jump\t// in\n    tag_61:\n    tag_60:\n      0x20\n      mul\n      0x20\n      add\n      add\n        /* \"testController.sol\":1262:1275  a[j] = a[j-1] */\n      dup2\n      dup2\n      mstore\n      pop\n      pop\n        /* \"testController.sol\":1293:1296  j-- */\n      dup1\n      dup1\n      tag_62\n      swap1\n      tag_63\n      jump\t// in\n    tag_62:\n      swap2\n      pop\n      pop\n        /* \"testController.sol\":1209:1311  while( (j >= 1) && (temp < a[j-1])){... */\n      jump(tag_50)\n    tag_51:\n        /* \"testController.sol\":1331:1335  temp */\n      dup2\n        /* \"testController.sol\":1324:1325  a */\n      dup6\n        /* \"testController.sol\":1326:1327  j */\n      dup3\n        /* \"testController.sol\":1324:1328  a[j] */\n      dup2\n      mload\n      dup2\n      lt\n      tag_64\n      jumpi\n      tag_65\n      tag_49\n      jump\t// in\n    tag_65:\n    tag_64:\n      0x20\n      mul\n      0x20\n      add\n      add\n        /* \"testController.sol\":1324:1335  a[j] = temp */\n      dup2\n      dup2\n      mstore\n      pop\n      pop\n        /* \"testController.sol\":1143:1346  {... */\n      pop\n      pop\n        /* \"testController.sol\":1139:1142  i++ */\n      dup1\n      dup1\n      0x01\n      add\n      swap2\n      pop\n      pop\n        /* \"testController.sol\":1110:1346  for (uint i = 1;i < a.length;i++){... */\n      jump(tag_44)\n    tag_45:\n      pop\n        /* \"testController.sol\":1362:1363  a */\n      dup2\n        /* \"testController.sol\":1355:1364  return(a) */\n      swap1\n      pop\n        /* \"testController.sol\":971:1371  function insertionSort(uint[] memory a) public pure returns(uint[] memory) {... */\n      swap2\n      swap1\n      pop\n      jump\t// out\n        /* \"testController.sol\":101:281  function ifElseTest(uint256 _number) public pure returns (bool) {... */\n    tag_24:\n        /* \"testController.sol\":159:163  bool */\n      0x00\n        /* \"testController.sol\":190:191  0 */\n      dup1\n        /* \"testController.sol\":179:186  _number */\n      dup3\n        /* \"testController.sol\":179:191  _number == 0 */\n      sub\n        /* \"testController.sol\":175:275  if (_number == 0) {... */\n      tag_67\n      jumpi\n        /* \"testController.sol\":215:219  true */\n      0x01\n        /* \"testController.sol\":207:220  return (true) */\n      swap1\n      pop\n      jump(tag_66)\n        /* \"testController.sol\":175:275  if (_number == 0) {... */\n    tag_67:\n        /* \"testController.sol\":258:263  false */\n      0x00\n        /* \"testController.sol\":250:264  return (false) */\n      swap1\n      pop\n        /* \"testController.sol\":101:281  function ifElseTest(uint256 _number) public pure returns (bool) {... */\n    tag_66:\n      swap2\n      swap1\n      pop\n      jump\t// out\n        /* \"testController.sol\":303:475  function forLoopTest() public pure returns (uint256) {... */\n    tag_28:\n        /* \"testController.sol\":347:354  uint256 */\n      0x00\n        /* \"testController.sol\":366:374  uint sum */\n      dup1\n        /* \"testController.sol\":377:378  0 */\n      0x00\n        /* \"testController.sol\":366:378  uint sum = 0 */\n      swap1\n      pop\n        /* \"testController.sol\":392:398  uint i */\n      0x00\n        /* \"testController.sol\":388:447  for(uint i = 0;i < 10;i++) {... */\n    tag_70:\n        /* \"testController.sol\":407:409  10 */\n      0x0a\n        /* \"testController.sol\":403:404  i */\n      dup2\n        /* \"testController.sol\":403:409  i < 10 */\n      lt\n        /* \"testController.sol\":388:447  for(uint i = 0;i < 10;i++) {... */\n      iszero\n      tag_71\n      jumpi\n        /* \"testController.sol\":435:436  1 */\n      0x01\n        /* \"testController.sol\":429:436  sum +=1 */\n      dup3\n      tag_73\n      swap2\n      swap1\n      tag_35\n      jump\t// in\n    tag_73:\n      swap2\n      pop\n        /* \"testController.sol\":410:413  i++ */\n      dup1\n      dup1\n      0x01\n      add\n      swap2\n      pop\n      pop\n        /* \"testController.sol\":388:447  for(uint i = 0;i < 10;i++) {... */\n      jump(tag_70)\n    tag_71:\n      pop\n        /* \"testController.sol\":464:467  sum */\n      dup1\n        /* \"testController.sol\":456:468  return (sum) */\n      swap2\n      pop\n      pop\n        /* \"testController.sol\":303:475  function forLoopTest() public pure returns (uint256) {... */\n      swap1\n      jump\t// out\n        /* \"#utility.yul\":7:84   */\n    tag_74:\n        /* \"#utility.yul\":44:51   */\n      0x00\n        /* \"#utility.yul\":73:78   */\n      dup2\n        /* \"#utility.yul\":62:78   */\n      swap1\n      pop\n        /* \"#utility.yul\":7:84   */\n      swap2\n      swap1\n      pop\n      jump\t// out\n        /* \"#utility.yul\":90:208   */\n    tag_75:\n        /* \"#utility.yul\":177:201   */\n      tag_103\n        /* \"#utility.yul\":195:200   */\n      dup2\n        /* \"#utility.yul\":177:201   */\n      tag_74\n      jump\t// in\n    tag_103:\n        /* \"#utility.yul\":172:175   */\n      dup3\n        /* \"#utility.yul\":165:202   */\n      mstore\n        /* \"#utility.yul\":90:208   */\n      pop\n      pop\n      jump\t// out\n        /* \"#utility.yul\":214:436   */\n    tag_11:\n        /* \"#utility.yul\":307:311   */\n      0x00\n        /* \"#utility.yul\":345:347   */\n      0x20\n        /* \"#utility.yul\":334:343   */\n      dup3\n        /* \"#utility.yul\":330:348   */\n      add\n        /* \"#utility.yul\":322:348   */\n      swap1\n      pop\n        /* \"#utility.yul\":358:429   */\n      tag_105\n        /* \"#utility.yul\":426:427   */\n      0x00\n        /* \"#utility.yul\":415:424   */\n      dup4\n        /* \"#utility.yul\":411:428   */\n      add\n        /* \"#utility.yul\":402:408   */\n      dup5\n        /* \"#utility.yul\":358:429   */\n      tag_75\n      jump\t// in\n    tag_105:\n        /* \"#utility.yul\":214:436   */\n      swap3\n      swap2\n      pop\n      pop\n      jump\t// out\n        /* \"#utility.yul\":442:517   */\n    tag_76:\n        /* \"#utility.yul\":475:481   */\n      0x00\n        /* \"#utility.yul\":508:510   */\n      0x40\n        /* \"#utility.yul\":502:511   */\n      mload\n        /* \"#utility.yul\":492:511   */\n      swap1\n      pop\n        /* \"#utility.yul\":442:517   */\n      swap1\n      jump\t// out\n        /* \"#utility.yul\":523:640   */\n    tag_77:\n        /* \"#utility.yul\":632:633   */\n      0x00\n        /* \"#utility.yul\":629:630   */\n      dup1\n        /* \"#utility.yul\":622:634   */\n      revert\n        /* \"#utility.yul\":646:763   */\n    tag_78:\n        /* \"#utility.yul\":755:756   */\n      0x00\n        /* \"#utility.yul\":752:753   */\n      dup1\n        /* \"#utility.yul\":745:757   */\n      revert\n        /* \"#utility.yul\":769:886   */\n    tag_79:\n        /* \"#utility.yul\":878:879   */\n      0x00\n        /* \"#utility.yul\":875:876   */\n      dup1\n        /* \"#utility.yul\":868:880   */\n      revert\n        /* \"#utility.yul\":892:994   */\n    tag_80:\n        /* \"#utility.yul\":933:939   */\n      0x00\n        /* \"#utility.yul\":984:986   */\n      0x1f\n        /* \"#utility.yul\":980:987   */\n      not\n        /* \"#utility.yul\":975:977   */\n      0x1f\n        /* \"#utility.yul\":968:973   */\n      dup4\n        /* \"#utility.yul\":964:978   */\n      add\n        /* \"#utility.yul\":960:988   */\n      and\n        /* \"#utility.yul\":950:988   */\n      swap1\n      pop\n        /* \"#utility.yul\":892:994   */\n      swap2\n      swap1\n      pop\n      jump\t// out\n        /* \"#utility.yul\":1000:1180   */\n    tag_81:\n        /* \"#utility.yul\":1048:1125   */\n      0x4e487b7100000000000000000000000000000000000000000000000000000000\n        /* \"#utility.yul\":1045:1046   */\n      0x00\n        /* \"#utility.yul\":1038:1126   */\n      mstore\n        /* \"#utility.yul\":1145:1149   */\n      0x41\n        /* \"#utility.yul\":1142:1143   */\n      0x04\n        /* \"#utility.yul\":1135:1150   */\n      mstore\n        /* \"#utility.yul\":1169:1173   */\n      0x24\n        /* \"#utility.yul\":1166:1167   */\n      0x00\n        /* \"#utility.yul\":1159:1174   */\n      revert\n        /* \"#utility.yul\":1186:1467   */\n    tag_82:\n        /* \"#utility.yul\":1269:1296   */\n      tag_113\n        /* \"#utility.yul\":1291:1295   */\n      dup3\n        /* \"#utility.yul\":1269:1296   */\n      tag_80\n      jump\t// in\n    tag_113:\n        /* \"#utility.yul\":1261:1267   */\n      dup2\n        /* \"#utility.yul\":1257:1297   */\n      add\n        /* \"#utility.yul\":1399:1405   */\n      dup2\n        /* \"#utility.yul\":1387:1397   */\n      dup2\n        /* \"#utility.yul\":1384:1406   */\n      lt\n        /* \"#utility.yul\":1363:1381   */\n      0xffffffffffffffff\n        /* \"#utility.yul\":1351:1361   */\n      dup3\n        /* \"#utility.yul\":1348:1382   */\n      gt\n        /* \"#utility.yul\":1345:1407   */\n      or\n        /* \"#utility.yul\":1342:1430   */\n      iszero\n      tag_114\n      jumpi\n        /* \"#utility.yul\":1410:1428   */\n      tag_115\n      tag_81\n      jump\t// in\n    tag_115:\n        /* \"#utility.yul\":1342:1430   */\n    tag_114:\n        /* \"#utility.yul\":1450:1460   */\n      dup1\n        /* \"#utility.yul\":1446:1448   */\n      0x40\n        /* \"#utility.yul\":1439:1461   */\n      mstore\n        /* \"#utility.yul\":1229:1467   */\n      pop\n        /* \"#utility.yul\":1186:1467   */\n      pop\n      pop\n      jump\t// out\n        /* \"#utility.yul\":1473:1602   */\n    tag_83:\n        /* \"#utility.yul\":1507:1513   */\n      0x00\n        /* \"#utility.yul\":1534:1554   */\n      tag_117\n      tag_76\n      jump\t// in\n    tag_117:\n        /* \"#utility.yul\":1524:1554   */\n      swap1\n      pop\n        /* \"#utility.yul\":1563:1596   */\n      tag_118\n        /* \"#utility.yul\":1591:1595   */\n      dup3\n        /* \"#utility.yul\":1583:1589   */\n      dup3\n        /* \"#utility.yul\":1563:1596   */\n      tag_82\n      jump\t// in\n    tag_118:\n        /* \"#utility.yul\":1473:1602   */\n      swap2\n      swap1\n      pop\n      jump\t// out\n        /* \"#utility.yul\":1608:1919   */\n    tag_84:\n        /* \"#utility.yul\":1685:1689   */\n      0x00\n        /* \"#utility.yul\":1775:1793   */\n      0xffffffffffffffff\n        /* \"#utility.yul\":1767:1773   */\n      dup3\n        /* \"#utility.yul\":1764:1794   */\n      gt\n        /* \"#utility.yul\":1761:1817   */\n      iszero\n      tag_120\n      jumpi\n        /* \"#utility.yul\":1797:1815   */\n      tag_121\n      tag_81\n      jump\t// in\n    tag_121:\n        /* \"#utility.yul\":1761:1817   */\n    tag_120:\n        /* \"#utility.yul\":1847:1851   */\n      0x20\n        /* \"#utility.yul\":1839:1845   */\n      dup3\n        /* \"#utility.yul\":1835:1852   */\n      mul\n        /* \"#utility.yul\":1827:1852   */\n      swap1\n      pop\n        /* \"#utility.yul\":1907:1911   */\n      0x20\n        /* \"#utility.yul\":1901:1905   */\n      dup2\n        /* \"#utility.yul\":1897:1912   */\n      add\n        /* \"#utility.yul\":1889:1912   */\n      swap1\n      pop\n        /* \"#utility.yul\":1608:1919   */\n      swap2\n      swap1\n      pop\n      jump\t// out\n        /* \"#utility.yul\":1925:2042   */\n    tag_85:\n        /* \"#utility.yul\":2034:2035   */\n      0x00\n        /* \"#utility.yul\":2031:2032   */\n      dup1\n        /* \"#utility.yul\":2024:2036   */\n      revert\n        /* \"#utility.yul\":2048:2170   */\n    tag_86:\n        /* \"#utility.yul\":2121:2145   */\n      tag_124\n        /* \"#utility.yul\":2139:2144   */\n      dup2\n        /* \"#utility.yul\":2121:2145   */\n      tag_74\n      jump\t// in\n    tag_124:\n        /* \"#utility.yul\":2114:2119   */\n      dup2\n        /* \"#utility.yul\":2111:2146   */\n      eq\n        /* \"#utility.yul\":2101:2164   */\n      tag_125\n      jumpi\n        /* \"#utility.yul\":2160:2161   */\n      0x00\n        /* \"#utility.yul\":2157:2158   */\n      dup1\n        /* \"#utility.yul\":2150:2162   */\n      revert\n        /* \"#utility.yul\":2101:2164   */\n    tag_125:\n        /* \"#utility.yul\":2048:2170   */\n      pop\n      jump\t// out\n        /* \"#utility.yul\":2176:2315   */\n    tag_87:\n        /* \"#utility.yul\":2222:2227   */\n      0x00\n        /* \"#utility.yul\":2260:2266   */\n      dup2\n        /* \"#utility.yul\":2247:2267   */\n      calldataload\n        /* \"#utility.yul\":2238:2267   */\n      swap1\n      pop\n        /* \"#utility.yul\":2276:2309   */\n      tag_127\n        /* \"#utility.yul\":2303:2308   */\n      dup2\n        /* \"#utility.yul\":2276:2309   */\n      tag_86\n      jump\t// in\n    tag_127:\n        /* \"#utility.yul\":2176:2315   */\n      swap3\n      swap2\n      pop\n      pop\n      jump\t// out\n        /* \"#utility.yul\":2338:3048   */\n    tag_88:\n        /* \"#utility.yul\":2434:2439   */\n      0x00\n        /* \"#utility.yul\":2459:2540   */\n      tag_129\n        /* \"#utility.yul\":2475:2539   */\n      tag_130\n        /* \"#utility.yul\":2532:2538   */\n      dup5\n        /* \"#utility.yul\":2475:2539   */\n      tag_84\n      jump\t// in\n    tag_130:\n        /* \"#utility.yul\":2459:2540   */\n      tag_83\n      jump\t// in\n    tag_129:\n        /* \"#utility.yul\":2450:2540   */\n      swap1\n      pop\n        /* \"#utility.yul\":2560:2565   */\n      dup1\n        /* \"#utility.yul\":2589:2595   */\n      dup4\n        /* \"#utility.yul\":2582:2587   */\n      dup3\n        /* \"#utility.yul\":2575:2596   */\n      mstore\n        /* \"#utility.yul\":2623:2627   */\n      0x20\n        /* \"#utility.yul\":2616:2621   */\n      dup3\n        /* \"#utility.yul\":2612:2628   */\n      add\n        /* \"#utility.yul\":2605:2628   */\n      swap1\n      pop\n        /* \"#utility.yul\":2676:2680   */\n      0x20\n        /* \"#utility.yul\":2668:2674   */\n      dup5\n        /* \"#utility.yul\":2664:2681   */\n      mul\n        /* \"#utility.yul\":2656:2662   */\n      dup4\n        /* \"#utility.yul\":2652:2682   */\n      add\n        /* \"#utility.yul\":2705:2708   */\n      dup6\n        /* \"#utility.yul\":2697:2703   */\n      dup2\n        /* \"#utility.yul\":2694:2709   */\n      gt\n        /* \"#utility.yul\":2691:2813   */\n      iszero\n      tag_131\n      jumpi\n        /* \"#utility.yul\":2724:2803   */\n      tag_132\n      tag_85\n      jump\t// in\n    tag_132:\n        /* \"#utility.yul\":2691:2813   */\n    tag_131:\n        /* \"#utility.yul\":2839:2845   */\n      dup4\n        /* \"#utility.yul\":2822:3042   */\n    tag_133:\n        /* \"#utility.yul\":2856:2862   */\n      dup2\n        /* \"#utility.yul\":2851:2854   */\n      dup2\n        /* \"#utility.yul\":2848:2863   */\n      lt\n        /* \"#utility.yul\":2822:3042   */\n      iszero\n      tag_135\n      jumpi\n        /* \"#utility.yul\":2931:2934   */\n      dup1\n        /* \"#utility.yul\":2960:2997   */\n      tag_136\n        /* \"#utility.yul\":2993:2996   */\n      dup9\n        /* \"#utility.yul\":2981:2991   */\n      dup3\n        /* \"#utility.yul\":2960:2997   */\n      tag_87\n      jump\t// in\n    tag_136:\n        /* \"#utility.yul\":2955:2958   */\n      dup5\n        /* \"#utility.yul\":2948:2998   */\n      mstore\n        /* \"#utility.yul\":3027:3031   */\n      0x20\n        /* \"#utility.yul\":3022:3025   */\n      dup5\n        /* \"#utility.yul\":3018:3032   */\n      add\n        /* \"#utility.yul\":3011:3032   */\n      swap4\n      pop\n        /* \"#utility.yul\":2898:3042   */\n      pop\n        /* \"#utility.yul\":2882:2886   */\n      0x20\n        /* \"#utility.yul\":2877:2880   */\n      dup2\n        /* \"#utility.yul\":2873:2887   */\n      add\n        /* \"#utility.yul\":2866:2887   */\n      swap1\n      pop\n        /* \"#utility.yul\":2822:3042   */\n      jump(tag_133)\n    tag_135:\n        /* \"#utility.yul\":2826:2847   */\n      pop\n        /* \"#utility.yul\":2440:3048   */\n      pop\n      pop\n        /* \"#utility.yul\":2338:3048   */\n      swap4\n      swap3\n      pop\n      pop\n      pop\n      jump\t// out\n        /* \"#utility.yul\":3071:3441   */\n    tag_89:\n        /* \"#utility.yul\":3142:3147   */\n      0x00\n        /* \"#utility.yul\":3191:3194   */\n      dup3\n        /* \"#utility.yul\":3184:3188   */\n      0x1f\n        /* \"#utility.yul\":3176:3182   */\n      dup4\n        /* \"#utility.yul\":3172:3189   */\n      add\n        /* \"#utility.yul\":3168:3195   */\n      slt\n        /* \"#utility.yul\":3158:3280   */\n      tag_138\n      jumpi\n        /* \"#utility.yul\":3199:3278   */\n      tag_139\n      tag_79\n      jump\t// in\n    tag_139:\n        /* \"#utility.yul\":3158:3280   */\n    tag_138:\n        /* \"#utility.yul\":3316:3322   */\n      dup2\n        /* \"#utility.yul\":3303:3323   */\n      calldataload\n        /* \"#utility.yul\":3341:3435   */\n      tag_140\n        /* \"#utility.yul\":3431:3434   */\n      dup5\n        /* \"#utility.yul\":3423:3429   */\n      dup3\n        /* \"#utility.yul\":3416:3420   */\n      0x20\n        /* \"#utility.yul\":3408:3414   */\n      dup7\n        /* \"#utility.yul\":3404:3421   */\n      add\n        /* \"#utility.yul\":3341:3435   */\n      tag_88\n      jump\t// in\n    tag_140:\n        /* \"#utility.yul\":3332:3435   */\n      swap2\n      pop\n        /* \"#utility.yul\":3148:3441   */\n      pop\n        /* \"#utility.yul\":3071:3441   */\n      swap3\n      swap2\n      pop\n      pop\n      jump\t// out\n        /* \"#utility.yul\":3447:3986   */\n    tag_17:\n        /* \"#utility.yul\":3531:3537   */\n      0x00\n        /* \"#utility.yul\":3580:3582   */\n      0x20\n        /* \"#utility.yul\":3568:3577   */\n      dup3\n        /* \"#utility.yul\":3559:3566   */\n      dup5\n        /* \"#utility.yul\":3555:3578   */\n      sub\n        /* \"#utility.yul\":3551:3583   */\n      slt\n        /* \"#utility.yul\":3548:3667   */\n      iszero\n      tag_142\n      jumpi\n        /* \"#utility.yul\":3586:3665   */\n      tag_143\n      tag_77\n      jump\t// in\n    tag_143:\n        /* \"#utility.yul\":3548:3667   */\n    tag_142:\n        /* \"#utility.yul\":3734:3735   */\n      0x00\n        /* \"#utility.yul\":3723:3732   */\n      dup3\n        /* \"#utility.yul\":3719:3736   */\n      add\n        /* \"#utility.yul\":3706:3737   */\n      calldataload\n        /* \"#utility.yul\":3764:3782   */\n      0xffffffffffffffff\n        /* \"#utility.yul\":3756:3762   */\n      dup2\n        /* \"#utility.yul\":3753:3783   */\n      gt\n        /* \"#utility.yul\":3750:3867   */\n      iszero\n      tag_144\n      jumpi\n        /* \"#utility.yul\":3786:3865   */\n      tag_145\n      tag_78\n      jump\t// in\n    tag_145:\n        /* \"#utility.yul\":3750:3867   */\n    tag_144:\n        /* \"#utility.yul\":3891:3969   */\n      tag_146\n        /* \"#utility.yul\":3961:3968   */\n      dup5\n        /* \"#utility.yul\":3952:3958   */\n      dup3\n        /* \"#utility.yul\":3941:3950   */\n      dup6\n        /* \"#utility.yul\":3937:3959   */\n      add\n        /* \"#utility.yul\":3891:3969   */\n      tag_89\n      jump\t// in\n    tag_146:\n        /* \"#utility.yul\":3881:3969   */\n      swap2\n      pop\n        /* \"#utility.yul\":3677:3979   */\n      pop\n        /* \"#utility.yul\":3447:3986   */\n      swap3\n      swap2\n      pop\n      pop\n      jump\t// out\n        /* \"#utility.yul\":3992:4106   */\n    tag_90:\n        /* \"#utility.yul\":4059:4065   */\n      0x00\n        /* \"#utility.yul\":4093:4098   */\n      dup2\n        /* \"#utility.yul\":4087:4099   */\n      mload\n        /* \"#utility.yul\":4077:4099   */\n      swap1\n      pop\n        /* \"#utility.yul\":3992:4106   */\n      swap2\n      swap1\n      pop\n      jump\t// out\n        /* \"#utility.yul\":4112:4296   */\n    tag_91:\n        /* \"#utility.yul\":4211:4222   */\n      0x00\n        /* \"#utility.yul\":4245:4251   */\n      dup3\n        /* \"#utility.yul\":4240:4243   */\n      dup3\n        /* \"#utility.yul\":4233:4252   */\n      mstore\n        /* \"#utility.yul\":4285:4289   */\n      0x20\n        /* \"#utility.yul\":4280:4283   */\n      dup3\n        /* \"#utility.yul\":4276:4290   */\n      add\n        /* \"#utility.yul\":4261:4290   */\n      swap1\n      pop\n        /* \"#utility.yul\":4112:4296   */\n      swap3\n      swap2\n      pop\n      pop\n      jump\t// out\n        /* \"#utility.yul\":4302:4434   */\n    tag_92:\n        /* \"#utility.yul\":4369:4373   */\n      0x00\n        /* \"#utility.yul\":4392:4395   */\n      dup2\n        /* \"#utility.yul\":4384:4395   */\n      swap1\n      pop\n        /* \"#utility.yul\":4422:4426   */\n      0x20\n        /* \"#utility.yul\":4417:4420   */\n      dup3\n        /* \"#utility.yul\":4413:4427   */\n      add\n        /* \"#utility.yul\":4405:4427   */\n      swap1\n      pop\n        /* \"#utility.yul\":4302:4434   */\n      swap2\n      swap1\n      pop\n      jump\t// out\n        /* \"#utility.yul\":4440:4548   */\n    tag_93:\n        /* \"#utility.yul\":4517:4541   */\n      tag_151\n        /* \"#utility.yul\":4535:4540   */\n      dup2\n        /* \"#utility.yul\":4517:4541   */\n      tag_74\n      jump\t// in\n    tag_151:\n        /* \"#utility.yul\":4512:4515   */\n      dup3\n        /* \"#utility.yul\":4505:4542   */\n      mstore\n        /* \"#utility.yul\":4440:4548   */\n      pop\n      pop\n      jump\t// out\n        /* \"#utility.yul\":4554:4733   */\n    tag_94:\n        /* \"#utility.yul\":4623:4633   */\n      0x00\n        /* \"#utility.yul\":4644:4690   */\n      tag_153\n        /* \"#utility.yul\":4686:4689   */\n      dup4\n        /* \"#utility.yul\":4678:4684   */\n      dup4\n        /* \"#utility.yul\":4644:4690   */\n      tag_93\n      jump\t// in\n    tag_153:\n        /* \"#utility.yul\":4722:4726   */\n      0x20\n        /* \"#utility.yul\":4717:4720   */\n      dup4\n        /* \"#utility.yul\":4713:4727   */\n      add\n        /* \"#utility.yul\":4699:4727   */\n      swap1\n      pop\n        /* \"#utility.yul\":4554:4733   */\n      swap3\n      swap2\n      pop\n      pop\n      jump\t// out\n        /* \"#utility.yul\":4739:4852   */\n    tag_95:\n        /* \"#utility.yul\":4809:4813   */\n      0x00\n        /* \"#utility.yul\":4841:4845   */\n      0x20\n        /* \"#utility.yul\":4836:4839   */\n      dup3\n        /* \"#utility.yul\":4832:4846   */\n      add\n        /* \"#utility.yul\":4824:4846   */\n      swap1\n      pop\n        /* \"#utility.yul\":4739:4852   */\n      swap2\n      swap1\n      pop\n      jump\t// out\n        /* \"#utility.yul\":4888:5620   */\n    tag_96:\n        /* \"#utility.yul\":5007:5010   */\n      0x00\n        /* \"#utility.yul\":5036:5090   */\n      tag_156\n        /* \"#utility.yul\":5084:5089   */\n      dup3\n        /* \"#utility.yul\":5036:5090   */\n      tag_90\n      jump\t// in\n    tag_156:\n        /* \"#utility.yul\":5106:5192   */\n      tag_157\n        /* \"#utility.yul\":5185:5191   */\n      dup2\n        /* \"#utility.yul\":5180:5183   */\n      dup6\n        /* \"#utility.yul\":5106:5192   */\n      tag_91\n      jump\t// in\n    tag_157:\n        /* \"#utility.yul\":5099:5192   */\n      swap4\n      pop\n        /* \"#utility.yul\":5216:5272   */\n      tag_158\n        /* \"#utility.yul\":5266:5271   */\n      dup4\n        /* \"#utility.yul\":5216:5272   */\n      tag_92\n      jump\t// in\n    tag_158:\n        /* \"#utility.yul\":5295:5302   */\n      dup1\n        /* \"#utility.yul\":5326:5327   */\n      0x00\n        /* \"#utility.yul\":5311:5595   */\n    tag_159:\n        /* \"#utility.yul\":5336:5342   */\n      dup4\n        /* \"#utility.yul\":5333:5334   */\n      dup2\n        /* \"#utility.yul\":5330:5343   */\n      lt\n        /* \"#utility.yul\":5311:5595   */\n      iszero\n      tag_161\n      jumpi\n        /* \"#utility.yul\":5412:5418   */\n      dup2\n        /* \"#utility.yul\":5406:5419   */\n      mload\n        /* \"#utility.yul\":5439:5502   */\n      tag_162\n        /* \"#utility.yul\":5498:5501   */\n      dup9\n        /* \"#utility.yul\":5483:5496   */\n      dup3\n        /* \"#utility.yul\":5439:5502   */\n      tag_94\n      jump\t// in\n    tag_162:\n        /* \"#utility.yul\":5432:5502   */\n      swap8\n      pop\n        /* \"#utility.yul\":5525:5585   */\n      tag_163\n        /* \"#utility.yul\":5578:5584   */\n      dup4\n        /* \"#utility.yul\":5525:5585   */\n      tag_95\n      jump\t// in\n    tag_163:\n        /* \"#utility.yul\":5515:5585   */\n      swap3\n      pop\n        /* \"#utility.yul\":5371:5595   */\n      pop\n        /* \"#utility.yul\":5358:5359   */\n      0x01\n        /* \"#utility.yul\":5355:5356   */\n      dup2\n        /* \"#utility.yul\":5351:5360   */\n      add\n        /* \"#utility.yul\":5346:5360   */\n      swap1\n      pop\n        /* \"#utility.yul\":5311:5595   */\n      jump(tag_159)\n    tag_161:\n        /* \"#utility.yul\":5315:5329   */\n      pop\n        /* \"#utility.yul\":5611:5614   */\n      dup6\n        /* \"#utility.yul\":5604:5614   */\n      swap4\n      pop\n        /* \"#utility.yul\":5012:5620   */\n      pop\n      pop\n      pop\n        /* \"#utility.yul\":4888:5620   */\n      swap3\n      swap2\n      pop\n      pop\n      jump\t// out\n        /* \"#utility.yul\":5626:5999   */\n    tag_20:\n        /* \"#utility.yul\":5769:5773   */\n      0x00\n        /* \"#utility.yul\":5807:5809   */\n      0x20\n        /* \"#utility.yul\":5796:5805   */\n      dup3\n        /* \"#utility.yul\":5792:5810   */\n      add\n        /* \"#utility.yul\":5784:5810   */\n      swap1\n      pop\n        /* \"#utility.yul\":5856:5865   */\n      dup2\n        /* \"#utility.yul\":5850:5854   */\n      dup2\n        /* \"#utility.yul\":5846:5866   */\n      sub\n        /* \"#utility.yul\":5842:5843   */\n      0x00\n        /* \"#utility.yul\":5831:5840   */\n      dup4\n        /* \"#utility.yul\":5827:5844   */\n      add\n        /* \"#utility.yul\":5820:5867   */\n      mstore\n        /* \"#utility.yul\":5884:5992   */\n      tag_165\n        /* \"#utility.yul\":5987:5991   */\n      dup2\n        /* \"#utility.yul\":5978:5984   */\n      dup5\n        /* \"#utility.yul\":5884:5992   */\n      tag_96\n      jump\t// in\n    tag_165:\n        /* \"#utility.yul\":5876:5992   */\n      swap1\n      pop\n        /* \"#utility.yul\":5626:5999   */\n      swap3\n      swap2\n      pop\n      pop\n      jump\t// out\n        /* \"#utility.yul\":6005:6334   */\n    tag_23:\n        /* \"#utility.yul\":6064:6070   */\n      0x00\n        /* \"#utility.yul\":6113:6115   */\n      0x20\n        /* \"#utility.yul\":6101:6110   */\n      dup3\n        /* \"#utility.yul\":6092:6099   */\n      dup5\n        /* \"#utility.yul\":6088:6111   */\n      sub\n        /* \"#utility.yul\":6084:6116   */\n      slt\n        /* \"#utility.yul\":6081:6200   */\n      iszero\n      tag_167\n      jumpi\n        /* \"#utility.yul\":6119:6198   */\n      tag_168\n      tag_77\n      jump\t// in\n    tag_168:\n        /* \"#utility.yul\":6081:6200   */\n    tag_167:\n        /* \"#utility.yul\":6239:6240   */\n      0x00\n        /* \"#utility.yul\":6264:6317   */\n      tag_169\n        /* \"#utility.yul\":6309:6316   */\n      dup5\n        /* \"#utility.yul\":6300:6306   */\n      dup3\n        /* \"#utility.yul\":6289:6298   */\n      dup6\n        /* \"#utility.yul\":6285:6307   */\n      add\n        /* \"#utility.yul\":6264:6317   */\n      tag_87\n      jump\t// in\n    tag_169:\n        /* \"#utility.yul\":6254:6317   */\n      swap2\n      pop\n        /* \"#utility.yul\":6210:6327   */\n      pop\n        /* \"#utility.yul\":6005:6334   */\n      swap3\n      swap2\n      pop\n      pop\n      jump\t// out\n        /* \"#utility.yul\":6340:6430   */\n    tag_97:\n        /* \"#utility.yul\":6374:6381   */\n      0x00\n        /* \"#utility.yul\":6417:6422   */\n      dup2\n        /* \"#utility.yul\":6410:6423   */\n      iszero\n        /* \"#utility.yul\":6403:6424   */\n      iszero\n        /* \"#utility.yul\":6392:6424   */\n      swap1\n      pop\n        /* \"#utility.yul\":6340:6430   */\n      swap2\n      swap1\n      pop\n      jump\t// out\n        /* \"#utility.yul\":6436:6545   */\n    tag_98:\n        /* \"#utility.yul\":6517:6538   */\n      tag_172\n        /* \"#utility.yul\":6532:6537   */\n      dup2\n        /* \"#utility.yul\":6517:6538   */\n      tag_97\n      jump\t// in\n    tag_172:\n        /* \"#utility.yul\":6512:6515   */\n      dup3\n        /* \"#utility.yul\":6505:6539   */\n      mstore\n        /* \"#utility.yul\":6436:6545   */\n      pop\n      pop\n      jump\t// out\n        /* \"#utility.yul\":6551:6761   */\n    tag_26:\n        /* \"#utility.yul\":6638:6642   */\n      0x00\n        /* \"#utility.yul\":6676:6678   */\n      0x20\n        /* \"#utility.yul\":6665:6674   */\n      dup3\n        /* \"#utility.yul\":6661:6679   */\n      add\n        /* \"#utility.yul\":6653:6679   */\n      swap1\n      pop\n        /* \"#utility.yul\":6689:6754   */\n      tag_174\n        /* \"#utility.yul\":6751:6752   */\n      0x00\n        /* \"#utility.yul\":6740:6749   */\n      dup4\n        /* \"#utility.yul\":6736:6753   */\n      add\n        /* \"#utility.yul\":6727:6733   */\n      dup5\n        /* \"#utility.yul\":6689:6754   */\n      tag_98\n      jump\t// in\n    tag_174:\n        /* \"#utility.yul\":6551:6761   */\n      swap3\n      swap2\n      pop\n      pop\n      jump\t// out\n        /* \"#utility.yul\":6767:6947   */\n    tag_99:\n        /* \"#utility.yul\":6815:6892   */\n      0x4e487b7100000000000000000000000000000000000000000000000000000000\n        /* \"#utility.yul\":6812:6813   */\n      0x00\n        /* \"#utility.yul\":6805:6893   */\n      mstore\n        /* \"#utility.yul\":6912:6916   */\n      0x11\n        /* \"#utility.yul\":6909:6910   */\n      0x04\n        /* \"#utility.yul\":6902:6917   */\n      mstore\n        /* \"#utility.yul\":6936:6940   */\n      0x24\n        /* \"#utility.yul\":6933:6934   */\n      0x00\n        /* \"#utility.yul\":6926:6941   */\n      revert\n        /* \"#utility.yul\":6953:7144   */\n    tag_35:\n        /* \"#utility.yul\":6993:6996   */\n      0x00\n        /* \"#utility.yul\":7012:7032   */\n      tag_177\n        /* \"#utility.yul\":7030:7031   */\n      dup3\n        /* \"#utility.yul\":7012:7032   */\n      tag_74\n      jump\t// in\n    tag_177:\n        /* \"#utility.yul\":7007:7032   */\n      swap2\n      pop\n        /* \"#utility.yul\":7046:7066   */\n      tag_178\n        /* \"#utility.yul\":7064:7065   */\n      dup4\n        /* \"#utility.yul\":7046:7066   */\n      tag_74\n      jump\t// in\n    tag_178:\n        /* \"#utility.yul\":7041:7066   */\n      swap3\n      pop\n        /* \"#utility.yul\":7089:7090   */\n      dup3\n        /* \"#utility.yul\":7086:7087   */\n      dup3\n        /* \"#utility.yul\":7082:7091   */\n      add\n        /* \"#utility.yul\":7075:7091   */\n      swap1\n      pop\n        /* \"#utility.yul\":7110:7113   */\n      dup1\n        /* \"#utility.yul\":7107:7108   */\n      dup3\n        /* \"#utility.yul\":7104:7114   */\n      gt\n        /* \"#utility.yul\":7101:7137   */\n      iszero\n      tag_179\n      jumpi\n        /* \"#utility.yul\":7117:7135   */\n      tag_180\n      tag_99\n      jump\t// in\n    tag_180:\n        /* \"#utility.yul\":7101:7137   */\n    tag_179:\n        /* \"#utility.yul\":6953:7144   */\n      swap3\n      swap2\n      pop\n      pop\n      jump\t// out\n        /* \"#utility.yul\":7150:7383   */\n    tag_37:\n        /* \"#utility.yul\":7189:7192   */\n      0x00\n        /* \"#utility.yul\":7212:7236   */\n      tag_182\n        /* \"#utility.yul\":7230:7235   */\n      dup3\n        /* \"#utility.yul\":7212:7236   */\n      tag_74\n      jump\t// in\n    tag_182:\n        /* \"#utility.yul\":7203:7236   */\n      swap2\n      pop\n        /* \"#utility.yul\":7258:7324   */\n      0xffffffffffffffffffffffffffffffffffffffffffffffffffffffffffffffff\n        /* \"#utility.yul\":7251:7256   */\n      dup3\n        /* \"#utility.yul\":7248:7325   */\n      sub\n        /* \"#utility.yul\":7245:7348   */\n      tag_183\n      jumpi\n        /* \"#utility.yul\":7328:7346   */\n      tag_184\n      tag_99\n      jump\t// in\n    tag_184:\n        /* \"#utility.yul\":7245:7348   */\n    tag_183:\n        /* \"#utility.yul\":7375:7376   */\n      0x01\n        /* \"#utility.yul\":7368:7373   */\n      dup3\n        /* \"#utility.yul\":7364:7377   */\n      add\n        /* \"#utility.yul\":7357:7377   */\n      swap1\n      pop\n        /* \"#utility.yul\":7150:7383   */\n      swap2\n      swap1\n      pop\n      jump\t// out\n        /* \"#utility.yul\":7389:7569   */\n    tag_49:\n        /* \"#utility.yul\":7437:7514   */\n      0x4e487b7100000000000000000000000000000000000000000000000000000000\n        /* \"#utility.yul\":7434:7435   */\n      0x00\n        /* \"#utility.yul\":7427:7515   */\n      mstore\n        /* \"#utility.yul\":7534:7538   */\n      0x32\n        /* \"#utility.yul\":7531:7532   */\n      0x04\n        /* \"#utility.yul\":7524:7539   */\n      mstore\n        /* \"#utility.yul\":7558:7562   */\n      0x24\n        /* \"#utility.yul\":7555:7556   */\n      0x00\n        /* \"#utility.yul\":7548:7563   */\n      revert\n        /* \"#utility.yul\":7575:7769   */\n    tag_54:\n        /* \"#utility.yul\":7615:7619   */\n      0x00\n        /* \"#utility.yul\":7635:7655   */\n      tag_187\n        /* \"#utility.yul\":7653:7654   */\n      dup3\n        /* \"#utility.yul\":7635:7655   */\n      tag_74\n      jump\t// in\n    tag_187:\n        /* \"#utility.yul\":7630:7655   */\n      swap2\n      pop\n        /* \"#utility.yul\":7669:7689   */\n      tag_188\n        /* \"#utility.yul\":7687:7688   */\n      dup4\n        /* \"#utility.yul\":7669:7689   */\n      tag_74\n      jump\t// in\n    tag_188:\n        /* \"#utility.yul\":7664:7689   */\n      swap3\n      pop\n        /* \"#utility.yul\":7713:7714   */\n      dup3\n        /* \"#utility.yul\":7710:7711   */\n      dup3\n        /* \"#utility.yul\":7706:7715   */\n      sub\n        /* \"#utility.yul\":7698:7715   */\n      swap1\n      pop\n        /* \"#utility.yul\":7737:7738   */\n      dup2\n        /* \"#utility.yul\":7731:7735   */\n      dup2\n        /* \"#utility.yul\":7728:7739   */\n      gt\n        /* \"#utility.yul\":7725:7762   */\n      iszero\n      tag_189\n      jumpi\n        /* \"#utility.yul\":7742:7760   */\n      tag_190\n      tag_99\n      jump\t// in\n    tag_190:\n        /* \"#utility.yul\":7725:7762   */\n    tag_189:\n        /* \"#utility.yul\":7575:7769   */\n      swap3\n      swap2\n      pop\n      pop\n      jump\t// out\n        /* \"#utility.yul\":7775:7946   */\n    tag_63:\n        /* \"#utility.yul\":7814:7817   */\n      0x00\n        /* \"#utility.yul\":7837:7861   */\n      tag_192\n        /* \"#utility.yul\":7855:7860   */\n      dup3\n        /* \"#utility.yul\":7837:7861   */\n      tag_74\n      jump\t// in\n    tag_192:\n        /* \"#utility.yul\":7828:7861   */\n      swap2\n      pop\n        /* \"#utility.yul\":7883:7887   */\n      0x00\n        /* \"#utility.yul\":7876:7881   */\n      dup3\n        /* \"#utility.yul\":7873:7888   */\n      sub\n        /* \"#utility.yul\":7870:7911   */\n      tag_193\n      jumpi\n        /* \"#utility.yul\":7891:7909   */\n      tag_194\n      tag_99\n      jump\t// in\n    tag_194:\n        /* \"#utility.yul\":7870:7911   */\n    tag_193:\n        /* \"#utility.yul\":7938:7939   */\n      0x01\n        /* \"#utility.yul\":7931:7936   */\n      dup3\n        /* \"#utility.yul\":7927:7940   */\n      sub\n        /* \"#utility.yul\":7920:7940   */\n      swap1\n      pop\n        /* \"#utility.yul\":7775:7946   */\n      swap2\n      swap1\n      pop\n      jump\t// out\n\n    auxdata: 0xa26469706673582212206443c5f6d75f91cc1a13639ac5a537b3ca654189471a9c434f3f3989d8949abd64736f6c634300081a0033\n}\n",
				"bytecode": {
					"linkReferences": {},
					"object": "6080604052348015600e575f80fd5b506107698061001c5f395ff3fe608060405234801561000f575f80fd5b5060043610610055575f3560e01c80632bbacaaa146100595780635d14639d146100775780636297206f146100955780637141fb00146100c5578063b0cfa9fc146100f5575b5f80fd5b610061610113565b60405161006e91906102e5565b60405180910390f35b61007f610146565b60405161008c91906102e5565b60405180910390f35b6100af60048036038101906100aa9190610489565b61017f565b6040516100bc9190610587565b60405180910390f35b6100df60048036038101906100da91906105a7565b61027f565b6040516100ec91906105ec565b60405180910390f35b6100fd610299565b60405161010a91906102e5565b60405180910390f35b5f805f90505f5b80826101269190610632565b9150808061013390610665565b915050600a811061011a57819250505090565b5f805f90505f5b600a8110156101775780826101629190610632565b9150808061016f90610665565b91505061014d565b819250505090565b60605f600190505b8251811015610276575f8382815181106101a4576101a36106ac565b5b602002602001015190505f8290505b600181101580156101e95750846001826101cd91906106d9565b815181106101de576101dd6106ac565b5b602002602001015182105b1561024757846001826101fc91906106d9565b8151811061020d5761020c6106ac565b5b6020026020010151858281518110610228576102276106ac565b5b602002602001018181525050808061023f9061070c565b9150506101b3565b8185828151811061025b5761025a6106ac565b5b60200260200101818152505050508080600101915050610187565b50819050919050565b5f8082036102905760019050610294565b5f90505b919050565b5f805f90505f5b600a8110156102c5576001826102b69190610632565b915080806001019150506102a0565b508091505090565b5f819050919050565b6102df816102cd565b82525050565b5f6020820190506102f85f8301846102d6565b92915050565b5f604051905090565b5f80fd5b5f80fd5b5f80fd5b5f601f19601f8301169050919050565b7f4e487b71000000000000000000000000000000000000000000000000000000005f52604160045260245ffd5b61035982610313565b810181811067ffffffffffffffff8211171561037857610377610323565b5b80604052505050565b5f61038a6102fe565b90506103968282610350565b919050565b5f67ffffffffffffffff8211156103b5576103b4610323565b5b602082029050602081019050919050565b5f80fd5b6103d3816102cd565b81146103dd575f80fd5b50565b5f813590506103ee816103ca565b92915050565b5f6104066104018461039b565b610381565b90508083825260208201905060208402830185811115610429576104286103c6565b5b835b81811015610452578061043e88826103e0565b84526020840193505060208101905061042b565b5050509392505050565b5f82601f8301126104705761046f61030f565b5b81356104808482602086016103f4565b91505092915050565b5f6020828403121561049e5761049d610307565b5b5f82013567ffffffffffffffff8111156104bb576104ba61030b565b5b6104c78482850161045c565b91505092915050565b5f81519050919050565b5f82825260208201905092915050565b5f819050602082019050919050565b610502816102cd565b82525050565b5f61051383836104f9565b60208301905092915050565b5f602082019050919050565b5f610535826104d0565b61053f81856104da565b935061054a836104ea565b805f5b8381101561057a5781516105618882610508565b975061056c8361051f565b92505060018101905061054d565b5085935050505092915050565b5f6020820190508181035f83015261059f818461052b565b905092915050565b5f602082840312156105bc576105bb610307565b5b5f6105c9848285016103e0565b91505092915050565b5f8115159050919050565b6105e6816105d2565b82525050565b5f6020820190506105ff5f8301846105dd565b92915050565b7f4e487b71000000000000000000000000000000000000000000000000000000005f52601160045260245ffd5b5f61063c826102cd565b9150610647836102cd565b925082820190508082111561065f5761065e610605565b5b92915050565b5f61066f826102cd565b91507fffffffffffffffffffffffffffffffffffffffffffffffffffffffffffffffff82036106a1576106a0610605565b5b600182019050919050565b7f4e487b71000000000000000000000000000000000000000000000000000000005f52603260045260245ffd5b5f6106e3826102cd565b91506106ee836102cd565b925082820390508181111561070657610705610605565b5b92915050565b5f610716826102cd565b91505f820361072857610727610605565b5b60018203905091905056fea26469706673582212206443c5f6d75f91cc1a13639ac5a537b3ca654189471a9c434f3f3989d8949abd64736f6c634300081a0033",
					"opcodes": "PUSH1 0x80 PUSH1 0x40 MSTORE CALLVALUE DUP1 ISZERO PUSH1 0xE JUMPI PUSH0 DUP1 REVERT JUMPDEST POP PUSH2 0x769 DUP1 PUSH2 0x1C PUSH0 CODECOPY PUSH0 RETURN INVALID PUSH1 0x80 PUSH1 0x40 MSTORE CALLVALUE DUP1 ISZERO PUSH2 0xF JUMPI PUSH0 DUP1 REVERT JUMPDEST POP PUSH1 0x4 CALLDATASIZE LT PUSH2 0x55 JUMPI PUSH0 CALLDATALOAD PUSH1 0xE0 SHR DUP1 PUSH4 0x2BBACAAA EQ PUSH2 0x59 JUMPI DUP1 PUSH4 0x5D14639D EQ PUSH2 0x77 JUMPI DUP1 PUSH4 0x6297206F EQ PUSH2 0x95 JUMPI DUP1 PUSH4 0x7141FB00 EQ PUSH2 0xC5 JUMPI DUP1 PUSH4 0xB0CFA9FC EQ PUSH2 0xF5 JUMPI JUMPDEST PUSH0 DUP1 REVERT JUMPDEST PUSH2 0x61 PUSH2 0x113 JUMP JUMPDEST PUSH1 0x40 MLOAD PUSH2 0x6E SWAP2 SWAP1 PUSH2 0x2E5 JUMP JUMPDEST PUSH1 0x40 MLOAD DUP1 SWAP2 SUB SWAP1 RETURN JUMPDEST PUSH2 0x7F PUSH2 0x146 JUMP JUMPDEST PUSH1 0x40 MLOAD PUSH2 0x8C SWAP2 SWAP1 PUSH2 0x2E5 JUMP JUMPDEST PUSH1 0x40 MLOAD DUP1 SWAP2 SUB SWAP1 RETURN JUMPDEST PUSH2 0xAF PUSH1 0x4 DUP1 CALLDATASIZE SUB DUP2 ADD SWAP1 PUSH2 0xAA SWAP2 SWAP1 PUSH2 0x489 JUMP JUMPDEST PUSH2 0x17F JUMP JUMPDEST PUSH1 0x40 MLOAD PUSH2 0xBC SWAP2 SWAP1 PUSH2 0x587 JUMP JUMPDEST PUSH1 0x40 MLOAD DUP1 SWAP2 SUB SWAP1 RETURN JUMPDEST PUSH2 0xDF PUSH1 0x4 DUP1 CALLDATASIZE SUB DUP2 ADD SWAP1 PUSH2 0xDA SWAP2 SWAP1 PUSH2 0x5A7 JUMP JUMPDEST PUSH2 0x27F JUMP JUMPDEST PUSH1 0x40 MLOAD PUSH2 0xEC SWAP2 SWAP1 PUSH2 0x5EC JUMP JUMPDEST PUSH1 0x40 MLOAD DUP1 SWAP2 SUB SWAP1 RETURN JUMPDEST PUSH2 0xFD PUSH2 0x299 JUMP JUMPDEST PUSH1 0x40 MLOAD PUSH2 0x10A SWAP2 SWAP1 PUSH2 0x2E5 JUMP JUMPDEST PUSH1 0x40 MLOAD DUP1 SWAP2 SUB SWAP1 RETURN JUMPDEST PUSH0 DUP1 PUSH0 SWAP1 POP PUSH0 JUMPDEST DUP1 DUP3 PUSH2 0x126 SWAP2 SWAP1 PUSH2 0x632 JUMP JUMPDEST SWAP2 POP DUP1 DUP1 PUSH2 0x133 SWAP1 PUSH2 0x665 JUMP JUMPDEST SWAP2 POP POP PUSH1 0xA DUP2 LT PUSH2 0x11A JUMPI DUP2 SWAP3 POP POP POP SWAP1 JUMP JUMPDEST PUSH0 DUP1 PUSH0 SWAP1 POP PUSH0 JUMPDEST PUSH1 0xA DUP2 LT ISZERO PUSH2 0x177 JUMPI DUP1 DUP3 PUSH2 0x162 SWAP2 SWAP1 PUSH2 0x632 JUMP JUMPDEST SWAP2 POP DUP1 DUP1 PUSH2 0x16F SWAP1 PUSH2 0x665 JUMP JUMPDEST SWAP2 POP POP PUSH2 0x14D JUMP JUMPDEST DUP2 SWAP3 POP POP POP SWAP1 JUMP JUMPDEST PUSH1 0x60 PUSH0 PUSH1 0x1 SWAP1 POP JUMPDEST DUP3 MLOAD DUP2 LT ISZERO PUSH2 0x276 JUMPI PUSH0 DUP4 DUP3 DUP2 MLOAD DUP2 LT PUSH2 0x1A4 JUMPI PUSH2 0x1A3 PUSH2 0x6AC JUMP JUMPDEST JUMPDEST PUSH1 0x20 MUL PUSH1 0x20 ADD ADD MLOAD SWAP1 POP PUSH0 DUP3 SWAP1 POP JUMPDEST PUSH1 0x1 DUP2 LT ISZERO DUP1 ISZERO PUSH2 0x1E9 JUMPI POP DUP5 PUSH1 0x1 DUP3 PUSH2 0x1CD SWAP2 SWAP1 PUSH2 0x6D9 JUMP JUMPDEST DUP2 MLOAD DUP2 LT PUSH2 0x1DE JUMPI PUSH2 0x1DD PUSH2 0x6AC JUMP JUMPDEST JUMPDEST PUSH1 0x20 MUL PUSH1 0x20 ADD ADD MLOAD DUP3 LT JUMPDEST ISZERO PUSH2 0x247 JUMPI DUP5 PUSH1 0x1 DUP3 PUSH2 0x1FC SWAP2 SWAP1 PUSH2 0x6D9 JUMP JUMPDEST DUP2 MLOAD DUP2 LT PUSH2 0x20D JUMPI PUSH2 0x20C PUSH2 0x6AC JUMP JUMPDEST JUMPDEST PUSH1 0x20 MUL PUSH1 0x20 ADD ADD MLOAD DUP6 DUP3 DUP2 MLOAD DUP2 LT PUSH2 0x228 JUMPI PUSH2 0x227 PUSH2 0x6AC JUMP JUMPDEST JUMPDEST PUSH1 0x20 MUL PUSH1 0x20 ADD ADD DUP2 DUP2 MSTORE POP POP DUP1 DUP1 PUSH2 0x23F SWAP1 PUSH2 0x70C JUMP JUMPDEST SWAP2 POP POP PUSH2 0x1B3 JUMP JUMPDEST DUP2 DUP6 DUP3 DUP2 MLOAD DUP2 LT PUSH2 0x25B JUMPI PUSH2 0x25A PUSH2 0x6AC JUMP JUMPDEST JUMPDEST PUSH1 0x20 MUL PUSH1 0x20 ADD ADD DUP2 DUP2 MSTORE POP POP POP POP DUP1 DUP1 PUSH1 0x1 ADD SWAP2 POP POP PUSH2 0x187 JUMP JUMPDEST POP DUP2 SWAP1 POP SWAP2 SWAP1 POP JUMP JUMPDEST PUSH0 DUP1 DUP3 SUB PUSH2 0x290 JUMPI PUSH1 0x1 SWAP1 POP PUSH2 0x294 JUMP JUMPDEST PUSH0 SWAP1 POP JUMPDEST SWAP2 SWAP1 POP JUMP JUMPDEST PUSH0 DUP1 PUSH0 SWAP1 POP PUSH0 JUMPDEST PUSH1 0xA DUP2 LT ISZERO PUSH2 0x2C5 JUMPI PUSH1 0x1 DUP3 PUSH2 0x2B6 SWAP2 SWAP1 PUSH2 0x632 JUMP JUMPDEST SWAP2 POP DUP1 DUP1 PUSH1 0x1 ADD SWAP2 POP POP PUSH2 0x2A0 JUMP JUMPDEST POP DUP1 SWAP2 POP POP SWAP1 JUMP JUMPDEST PUSH0 DUP2 SWAP1 POP SWAP2 SWAP1 POP JUMP JUMPDEST PUSH2 0x2DF DUP2 PUSH2 0x2CD JUMP JUMPDEST DUP3 MSTORE POP POP JUMP JUMPDEST PUSH0 PUSH1 0x20 DUP3 ADD SWAP1 POP PUSH2 0x2F8 PUSH0 DUP4 ADD DUP5 PUSH2 0x2D6 JUMP JUMPDEST SWAP3 SWAP2 POP POP JUMP JUMPDEST PUSH0 PUSH1 0x40 MLOAD SWAP1 POP SWAP1 JUMP JUMPDEST PUSH0 DUP1 REVERT JUMPDEST PUSH0 DUP1 REVERT JUMPDEST PUSH0 DUP1 REVERT JUMPDEST PUSH0 PUSH1 0x1F NOT PUSH1 0x1F DUP4 ADD AND SWAP1 POP SWAP2 SWAP1 POP JUMP JUMPDEST PUSH32 0x4E487B7100000000000000000000000000000000000000000000000000000000 PUSH0 MSTORE PUSH1 0x41 PUSH1 0x4 MSTORE PUSH1 0x24 PUSH0 REVERT JUMPDEST PUSH2 0x359 DUP3 PUSH2 0x313 JUMP JUMPDEST DUP2 ADD DUP2 DUP2 LT PUSH8 0xFFFFFFFFFFFFFFFF DUP3 GT OR ISZERO PUSH2 0x378 JUMPI PUSH2 0x377 PUSH2 0x323 JUMP JUMPDEST JUMPDEST DUP1 PUSH1 0x40 MSTORE POP POP POP JUMP JUMPDEST PUSH0 PUSH2 0x38A PUSH2 0x2FE JUMP JUMPDEST SWAP1 POP PUSH2 0x396 DUP3 DUP3 PUSH2 0x350 JUMP JUMPDEST SWAP2 SWAP1 POP JUMP JUMPDEST PUSH0 PUSH8 0xFFFFFFFFFFFFFFFF DUP3 GT ISZERO PUSH2 0x3B5 JUMPI PUSH2 0x3B4 PUSH2 0x323 JUMP JUMPDEST JUMPDEST PUSH1 0x20 DUP3 MUL SWAP1 POP PUSH1 0x20 DUP2 ADD SWAP1 POP SWAP2 SWAP1 POP JUMP JUMPDEST PUSH0 DUP1 REVERT JUMPDEST PUSH2 0x3D3 DUP2 PUSH2 0x2CD JUMP JUMPDEST DUP2 EQ PUSH2 0x3DD JUMPI PUSH0 DUP1 REVERT JUMPDEST POP JUMP JUMPDEST PUSH0 DUP2 CALLDATALOAD SWAP1 POP PUSH2 0x3EE DUP2 PUSH2 0x3CA JUMP JUMPDEST SWAP3 SWAP2 POP POP JUMP JUMPDEST PUSH0 PUSH2 0x406 PUSH2 0x401 DUP5 PUSH2 0x39B JUMP JUMPDEST PUSH2 0x381 JUMP JUMPDEST SWAP1 POP DUP1 DUP4 DUP3 MSTORE PUSH1 0x20 DUP3 ADD SWAP1 POP PUSH1 0x20 DUP5 MUL DUP4 ADD DUP6 DUP2 GT ISZERO PUSH2 0x429 JUMPI PUSH2 0x428 PUSH2 0x3C6 JUMP JUMPDEST JUMPDEST DUP4 JUMPDEST DUP2 DUP2 LT ISZERO PUSH2 0x452 JUMPI DUP1 PUSH2 0x43E DUP9 DUP3 PUSH2 0x3E0 JUMP JUMPDEST DUP5 MSTORE PUSH1 0x20 DUP5 ADD SWAP4 POP POP PUSH1 0x20 DUP2 ADD SWAP1 POP PUSH2 0x42B JUMP JUMPDEST POP POP POP SWAP4 SWAP3 POP POP POP JUMP JUMPDEST PUSH0 DUP3 PUSH1 0x1F DUP4 ADD SLT PUSH2 0x470 JUMPI PUSH2 0x46F PUSH2 0x30F JUMP JUMPDEST JUMPDEST DUP2 CALLDATALOAD PUSH2 0x480 DUP5 DUP3 PUSH1 0x20 DUP7 ADD PUSH2 0x3F4 JUMP JUMPDEST SWAP2 POP POP SWAP3 SWAP2 POP POP JUMP JUMPDEST PUSH0 PUSH1 0x20 DUP3 DUP5 SUB SLT ISZERO PUSH2 0x49E JUMPI PUSH2 0x49D PUSH2 0x307 JUMP JUMPDEST JUMPDEST PUSH0 DUP3 ADD CALLDATALOAD PUSH8 0xFFFFFFFFFFFFFFFF DUP2 GT ISZERO PUSH2 0x4BB JUMPI PUSH2 0x4BA PUSH2 0x30B JUMP JUMPDEST JUMPDEST PUSH2 0x4C7 DUP5 DUP3 DUP6 ADD PUSH2 0x45C JUMP JUMPDEST SWAP2 POP POP SWAP3 SWAP2 POP POP JUMP JUMPDEST PUSH0 DUP2 MLOAD SWAP1 POP SWAP2 SWAP1 POP JUMP JUMPDEST PUSH0 DUP3 DUP3 MSTORE PUSH1 0x20 DUP3 ADD SWAP1 POP SWAP3 SWAP2 POP POP JUMP JUMPDEST PUSH0 DUP2 SWAP1 POP PUSH1 0x20 DUP3 ADD SWAP1 POP SWAP2 SWAP1 POP JUMP JUMPDEST PUSH2 0x502 DUP2 PUSH2 0x2CD JUMP JUMPDEST DUP3 MSTORE POP POP JUMP JUMPDEST PUSH0 PUSH2 0x513 DUP4 DUP4 PUSH2 0x4F9 JUMP JUMPDEST PUSH1 0x20 DUP4 ADD SWAP1 POP SWAP3 SWAP2 POP POP JUMP JUMPDEST PUSH0 PUSH1 0x20 DUP3 ADD SWAP1 POP SWAP2 SWAP1 POP JUMP JUMPDEST PUSH0 PUSH2 0x535 DUP3 PUSH2 0x4D0 JUMP JUMPDEST PUSH2 0x53F DUP2 DUP6 PUSH2 0x4DA JUMP JUMPDEST SWAP4 POP PUSH2 0x54A DUP4 PUSH2 0x4EA JUMP JUMPDEST DUP1 PUSH0 JUMPDEST DUP4 DUP2 LT ISZERO PUSH2 0x57A JUMPI DUP2 MLOAD PUSH2 0x561 DUP9 DUP3 PUSH2 0x508 JUMP JUMPDEST SWAP8 POP PUSH2 0x56C DUP4 PUSH2 0x51F JUMP JUMPDEST SWAP3 POP POP PUSH1 0x1 DUP2 ADD SWAP1 POP PUSH2 0x54D JUMP JUMPDEST POP DUP6 SWAP4 POP POP POP POP SWAP3 SWAP2 POP POP JUMP JUMPDEST PUSH0 PUSH1 0x20 DUP3 ADD SWAP1 POP DUP2 DUP2 SUB PUSH0 DUP4 ADD MSTORE PUSH2 0x59F DUP2 DUP5 PUSH2 0x52B JUMP JUMPDEST SWAP1 POP SWAP3 SWAP2 POP POP JUMP JUMPDEST PUSH0 PUSH1 0x20 DUP3 DUP5 SUB SLT ISZERO PUSH2 0x5BC JUMPI PUSH2 0x5BB PUSH2 0x307 JUMP JUMPDEST JUMPDEST PUSH0 PUSH2 0x5C9 DUP5 DUP3 DUP6 ADD PUSH2 0x3E0 JUMP JUMPDEST SWAP2 POP POP SWAP3 SWAP2 POP POP JUMP JUMPDEST PUSH0 DUP2 ISZERO ISZERO SWAP1 POP SWAP2 SWAP1 POP JUMP JUMPDEST PUSH2 0x5E6 DUP2 PUSH2 0x5D2 JUMP JUMPDEST DUP3 MSTORE POP POP JUMP JUMPDEST PUSH0 PUSH1 0x20 DUP3 ADD SWAP1 POP PUSH2 0x5FF PUSH0 DUP4 ADD DUP5 PUSH2 0x5DD JUMP JUMPDEST SWAP3 SWAP2 POP POP JUMP JUMPDEST PUSH32 0x4E487B7100000000000000000000000000000000000000000000000000000000 PUSH0 MSTORE PUSH1 0x11 PUSH1 0x4 MSTORE PUSH1 0x24 PUSH0 REVERT JUMPDEST PUSH0 PUSH2 0x63C DUP3 PUSH2 0x2CD JUMP JUMPDEST SWAP2 POP PUSH2 0x647 DUP4 PUSH2 0x2CD JUMP JUMPDEST SWAP3 POP DUP3 DUP3 ADD SWAP1 POP DUP1 DUP3 GT ISZERO PUSH2 0x65F JUMPI PUSH2 0x65E PUSH2 0x605 JUMP JUMPDEST JUMPDEST SWAP3 SWAP2 POP POP JUMP JUMPDEST PUSH0 PUSH2 0x66F DUP3 PUSH2 0x2CD JUMP JUMPDEST SWAP2 POP PUSH32 0xFFFFFFFFFFFFFFFFFFFFFFFFFFFFFFFFFFFFFFFFFFFFFFFFFFFFFFFFFFFFFFFF DUP3 SUB PUSH2 0x6A1 JUMPI PUSH2 0x6A0 PUSH2 0x605 JUMP JUMPDEST JUMPDEST PUSH1 0x1 DUP3 ADD SWAP1 POP SWAP2 SWAP1 POP JUMP JUMPDEST PUSH32 0x4E487B7100000000000000000000000000000000000000000000000000000000 PUSH0 MSTORE PUSH1 0x32 PUSH1 0x4 MSTORE PUSH1 0x24 PUSH0 REVERT JUMPDEST PUSH0 PUSH2 0x6E3 DUP3 PUSH2 0x2CD JUMP JUMPDEST SWAP2 POP PUSH2 0x6EE DUP4 PUSH2 0x2CD JUMP JUMPDEST SWAP3 POP DUP3 DUP3 SUB SWAP1 POP DUP2 DUP2 GT ISZERO PUSH2 0x706 JUMPI PUSH2 0x705 PUSH2 0x605 JUMP JUMPDEST JUMPDEST SWAP3 SWAP2 POP POP JUMP JUMPDEST PUSH0 PUSH2 0x716 DUP3 PUSH2 0x2CD JUMP JUMPDEST SWAP2 POP PUSH0 DUP3 SUB PUSH2 0x728 JUMPI PUSH2 0x727 PUSH2 0x605 JUMP JUMPDEST JUMPDEST PUSH1 0x1 DUP3 SUB SWAP1 POP SWAP2 SWAP1 POP JUMP INVALID LOG2 PUSH5 0x6970667358 0x22 SLT KECCAK256 PUSH5 0x43C5F6D75F SWAP2 0xCC BYTE SGT PUSH4 0x9AC5A537 0xB3 0xCA PUSH6 0x4189471A9C43 0x4F EXTCODEHASH CODECOPY DUP10 0xD8 SWAP5 SWAP11 0xBD PUSH5 0x736F6C6343 STOP ADDMOD BYTE STOP CALLER "
				},
				"gasEstimates": {
					"creation": {
						"codeDepositCost": "379400",
						"executionCost": "416",
						"totalCost": "379816"
					},
					"external": {
						"doWhileTest()": "infinite",
						"forLoopTest()": "infinite",
						"ifElseTest(uint256)": "677",
						"insertionSort(uint256[])": "infinite",
						"whileTest()": "infinite"
					}
				},
				"methodIdentifiers": {
					"doWhileTest()": "2bbacaaa",
					"forLoopTest()": "b0cfa9fc",
					"ifElseTest(uint256)": "7141fb00",
					"insertionSort(uint256[])": "6297206f",
					"whileTest()": "5d14639d"
				}
			},
			"storageLayout": {
				"storage": [],
				"types": null
			},
			"userdoc": {
				"kind": "user",
				"methods": {},
				"version": 1
			}
		}
	}
}