{
	"data": {
		"bytecode": {
			"linkReferences": {},
			"object": "6080604052348015600e575f80fd5b5061082f8061001c5f395ff3fe608060405234801561000f575f80fd5b506004361061004a575f3560e01c8063d6ee0f321461004e578063e8e5726a1461007e578063fbd61553146100ae578063fe6b3783146100cc575b5f80fd5b610068600480360381019061006391906104a0565b6100fc565b604051610075919061053b565b60405180910390f35b610098600480360381019061009391906104a0565b61010e565b6040516100a5919061053b565b60405180910390f35b6100b6610120565b6040516100c3919061053b565b60405180910390f35b6100e660048036038101906100e19190610687565b61015d565b6040516100f3919061053b565b60405180910390f35b606061010782610167565b9050919050565b606061011982610167565b9050919050565b60606040518060400160405280600781526020017f4e6f7468696e6700000000000000000000000000000000000000000000000000815250905090565b6060819050919050565b606061017e82600161017885610185565b01610213565b9050919050565b5f60076101a36fffffffffffffffffffffffffffffffff8411610451565b901b905060066101bf67ffffffffffffffff8385901c11610451565b901b8117905060056101d963ffffffff8385901c11610451565b901b8117905060046101f161ffff8385901c11610451565b901b8117905061020660ff8284901c11610451565b600382901c179050919050565b60605f8390505f600284600261022991906106fb565b610233919061073c565b67ffffffffffffffff81111561024c5761024b610563565b5b6040519080825280601f01601f19166020018201604052801561027e5781602001600182028036833780820191505090505b5090507f3000000000000000000000000000000000000000000000000000000000000000815f815181106102b5576102b461076f565b5b60200101907effffffffffffffffffffffffffffffffffffffffffffffffffffffffffffff191690815f1a9053507f7800000000000000000000000000000000000000000000000000000000000000816001815181106103185761031761076f565b5b60200101907effffffffffffffffffffffffffffffffffffffffffffffffffffffffffffff191690815f1a9053505f600185600261035691906106fb565b610360919061073c565b90505b60018111156103ff577f3031323334353637383961626364656600000000000000000000000000000000600f8416601081106103a2576103a161076f565b5b1a60f81b8282815181106103b9576103b861076f565b5b60200101907effffffffffffffffffffffffffffffffffffffffffffffffffffffffffffff191690815f1a905350600483901c9250806103f89061079c565b9050610363565b505f82146104465784846040517fe22e27eb00000000000000000000000000000000000000000000000000000000815260040161043d9291906107d2565b60405180910390fd5b809250505092915050565b5f8115159050919050565b5f604051905090565b5f80fd5b5f80fd5b5f819050919050565b61047f8161046d565b8114610489575f80fd5b50565b5f8135905061049a81610476565b92915050565b5f602082840312156104b5576104b4610465565b5b5f6104c28482850161048c565b91505092915050565b5f81519050919050565b5f82825260208201905092915050565b8281835e5f83830152505050565b5f601f19601f8301169050919050565b5f61050d826104cb565b61051781856104d5565b93506105278185602086016104e5565b610530816104f3565b840191505092915050565b5f6020820190508181035f8301526105538184610503565b905092915050565b5f80fd5b5f80fd5b7f4e487b71000000000000000000000000000000000000000000000000000000005f52604160045260245ffd5b610599826104f3565b810181811067ffffffffffffffff821117156105b8576105b7610563565b5b80604052505050565b5f6105ca61045c565b90506105d68282610590565b919050565b5f67ffffffffffffffff8211156105f5576105f4610563565b5b6105fe826104f3565b9050602081019050919050565b828183375f83830152505050565b5f61062b610626846105db565b6105c1565b9050828152602081018484840111156106475761064661055f565b5b61065284828561060b565b509392505050565b5f82601f83011261066e5761066d61055b565b5b813561067e848260208601610619565b91505092915050565b5f6020828403121561069c5761069b610465565b5b5f82013567ffffffffffffffff8111156106b9576106b8610469565b5b6106c58482850161065a565b91505092915050565b7f4e487b71000000000000000000000000000000000000000000000000000000005f52601160045260245ffd5b5f6107058261046d565b91506107108361046d565b925082820261071e8161046d565b91508282048414831517610735576107346106ce565b5b5092915050565b5f6107468261046d565b91506107518361046d565b9250828201905080821115610769576107686106ce565b5b92915050565b7f4e487b71000000000000000000000000000000000000000000000000000000005f52603260045260245ffd5b5f6107a68261046d565b91505f82036107b8576107b76106ce565b5b600182039050919050565b6107cc8161046d565b82525050565b5f6040820190506107e55f8301856107c3565b6107f260208301846107c3565b939250505056fea2646970667358221220f4dae87e44424b413831937bdc2f42a2107feb1c77ec9e93ce56e40d83b085bc64736f6c634300081a0033",
			"opcodes": "PUSH1 0x80 PUSH1 0x40 MSTORE CALLVALUE DUP1 ISZERO PUSH1 0xE JUMPI PUSH0 DUP1 REVERT JUMPDEST POP PUSH2 0x82F DUP1 PUSH2 0x1C PUSH0 CODECOPY PUSH0 RETURN INVALID PUSH1 0x80 PUSH1 0x40 MSTORE CALLVALUE DUP1 ISZERO PUSH2 0xF JUMPI PUSH0 DUP1 REVERT JUMPDEST POP PUSH1 0x4 CALLDATASIZE LT PUSH2 0x4A JUMPI PUSH0 CALLDATALOAD PUSH1 0xE0 SHR DUP1 PUSH4 0xD6EE0F32 EQ PUSH2 0x4E JUMPI DUP1 PUSH4 0xE8E5726A EQ PUSH2 0x7E JUMPI DUP1 PUSH4 0xFBD61553 EQ PUSH2 0xAE JUMPI DUP1 PUSH4 0xFE6B3783 EQ PUSH2 0xCC JUMPI JUMPDEST PUSH0 DUP1 REVERT JUMPDEST PUSH2 0x68 PUSH1 0x4 DUP1 CALLDATASIZE SUB DUP2 ADD SWAP1 PUSH2 0x63 SWAP2 SWAP1 PUSH2 0x4A0 JUMP JUMPDEST PUSH2 0xFC JUMP JUMPDEST PUSH1 0x40 MLOAD PUSH2 0x75 SWAP2 SWAP1 PUSH2 0x53B JUMP JUMPDEST PUSH1 0x40 MLOAD DUP1 SWAP2 SUB SWAP1 RETURN JUMPDEST PUSH2 0x98 PUSH1 0x4 DUP1 CALLDATASIZE SUB DUP2 ADD SWAP1 PUSH2 0x93 SWAP2 SWAP1 PUSH2 0x4A0 JUMP JUMPDEST PUSH2 0x10E JUMP JUMPDEST PUSH1 0x40 MLOAD PUSH2 0xA5 SWAP2 SWAP1 PUSH2 0x53B JUMP JUMPDEST PUSH1 0x40 MLOAD DUP1 SWAP2 SUB SWAP1 RETURN JUMPDEST PUSH2 0xB6 PUSH2 0x120 JUMP JUMPDEST PUSH1 0x40 MLOAD PUSH2 0xC3 SWAP2 SWAP1 PUSH2 0x53B JUMP JUMPDEST PUSH1 0x40 MLOAD DUP1 SWAP2 SUB SWAP1 RETURN JUMPDEST PUSH2 0xE6 PUSH1 0x4 DUP1 CALLDATASIZE SUB DUP2 ADD SWAP1 PUSH2 0xE1 SWAP2 SWAP1 PUSH2 0x687 JUMP JUMPDEST PUSH2 0x15D JUMP JUMPDEST PUSH1 0x40 MLOAD PUSH2 0xF3 SWAP2 SWAP1 PUSH2 0x53B JUMP JUMPDEST PUSH1 0x40 MLOAD DUP1 SWAP2 SUB SWAP1 RETURN JUMPDEST PUSH1 0x60 PUSH2 0x107 DUP3 PUSH2 0x167 JUMP JUMPDEST SWAP1 POP SWAP2 SWAP1 POP JUMP JUMPDEST PUSH1 0x60 PUSH2 0x119 DUP3 PUSH2 0x167 JUMP JUMPDEST SWAP1 POP SWAP2 SWAP1 POP JUMP JUMPDEST PUSH1 0x60 PUSH1 0x40 MLOAD DUP1 PUSH1 0x40 ADD PUSH1 0x40 MSTORE DUP1 PUSH1 0x7 DUP2 MSTORE PUSH1 0x20 ADD PUSH32 0x4E6F7468696E6700000000000000000000000000000000000000000000000000 DUP2 MSTORE POP SWAP1 POP SWAP1 JUMP JUMPDEST PUSH1 0x60 DUP2 SWAP1 POP SWAP2 SWAP1 POP JUMP JUMPDEST PUSH1 0x60 PUSH2 0x17E DUP3 PUSH1 0x1 PUSH2 0x178 DUP6 PUSH2 0x185 JUMP JUMPDEST ADD PUSH2 0x213 JUMP JUMPDEST SWAP1 POP SWAP2 SWAP1 POP JUMP JUMPDEST PUSH0 PUSH1 0x7 PUSH2 0x1A3 PUSH16 0xFFFFFFFFFFFFFFFFFFFFFFFFFFFFFFFF DUP5 GT PUSH2 0x451 JUMP JUMPDEST SWAP1 SHL SWAP1 POP PUSH1 0x6 PUSH2 0x1BF PUSH8 0xFFFFFFFFFFFFFFFF DUP4 DUP6 SWAP1 SHR GT PUSH2 0x451 JUMP JUMPDEST SWAP1 SHL DUP2 OR SWAP1 POP PUSH1 0x5 PUSH2 0x1D9 PUSH4 0xFFFFFFFF DUP4 DUP6 SWAP1 SHR GT PUSH2 0x451 JUMP JUMPDEST SWAP1 SHL DUP2 OR SWAP1 POP PUSH1 0x4 PUSH2 0x1F1 PUSH2 0xFFFF DUP4 DUP6 SWAP1 SHR GT PUSH2 0x451 JUMP JUMPDEST SWAP1 SHL DUP2 OR SWAP1 POP PUSH2 0x206 PUSH1 0xFF DUP3 DUP5 SWAP1 SHR GT PUSH2 0x451 JUMP JUMPDEST PUSH1 0x3 DUP3 SWAP1 SHR OR SWAP1 POP SWAP2 SWAP1 POP JUMP JUMPDEST PUSH1 0x60 PUSH0 DUP4 SWAP1 POP PUSH0 PUSH1 0x2 DUP5 PUSH1 0x2 PUSH2 0x229 SWAP2 SWAP1 PUSH2 0x6FB JUMP JUMPDEST PUSH2 0x233 SWAP2 SWAP1 PUSH2 0x73C JUMP JUMPDEST PUSH8 0xFFFFFFFFFFFFFFFF DUP2 GT ISZERO PUSH2 0x24C JUMPI PUSH2 0x24B PUSH2 0x563 JUMP JUMPDEST JUMPDEST PUSH1 0x40 MLOAD SWAP1 DUP1 DUP3 MSTORE DUP1 PUSH1 0x1F ADD PUSH1 0x1F NOT AND PUSH1 0x20 ADD DUP3 ADD PUSH1 0x40 MSTORE DUP1 ISZERO PUSH2 0x27E JUMPI DUP2 PUSH1 0x20 ADD PUSH1 0x1 DUP3 MUL DUP1 CALLDATASIZE DUP4 CALLDATACOPY DUP1 DUP3 ADD SWAP2 POP POP SWAP1 POP JUMPDEST POP SWAP1 POP PUSH32 0x3000000000000000000000000000000000000000000000000000000000000000 DUP2 PUSH0 DUP2 MLOAD DUP2 LT PUSH2 0x2B5 JUMPI PUSH2 0x2B4 PUSH2 0x76F JUMP JUMPDEST JUMPDEST PUSH1 0x20 ADD ADD SWAP1 PUSH31 0xFFFFFFFFFFFFFFFFFFFFFFFFFFFFFFFFFFFFFFFFFFFFFFFFFFFFFFFFFFFFFF NOT AND SWAP1 DUP2 PUSH0 BYTE SWAP1 MSTORE8 POP PUSH32 0x7800000000000000000000000000000000000000000000000000000000000000 DUP2 PUSH1 0x1 DUP2 MLOAD DUP2 LT PUSH2 0x318 JUMPI PUSH2 0x317 PUSH2 0x76F JUMP JUMPDEST JUMPDEST PUSH1 0x20 ADD ADD SWAP1 PUSH31 0xFFFFFFFFFFFFFFFFFFFFFFFFFFFFFFFFFFFFFFFFFFFFFFFFFFFFFFFFFFFFFF NOT AND SWAP1 DUP2 PUSH0 BYTE SWAP1 MSTORE8 POP PUSH0 PUSH1 0x1 DUP6 PUSH1 0x2 PUSH2 0x356 SWAP2 SWAP1 PUSH2 0x6FB JUMP JUMPDEST PUSH2 0x360 SWAP2 SWAP1 PUSH2 0x73C JUMP JUMPDEST SWAP1 POP JUMPDEST PUSH1 0x1 DUP2 GT ISZERO PUSH2 0x3FF JUMPI PUSH32 0x3031323334353637383961626364656600000000000000000000000000000000 PUSH1 0xF DUP5 AND PUSH1 0x10 DUP2 LT PUSH2 0x3A2 JUMPI PUSH2 0x3A1 PUSH2 0x76F JUMP JUMPDEST JUMPDEST BYTE PUSH1 0xF8 SHL DUP3 DUP3 DUP2 MLOAD DUP2 LT PUSH2 0x3B9 JUMPI PUSH2 0x3B8 PUSH2 0x76F JUMP JUMPDEST JUMPDEST PUSH1 0x20 ADD ADD SWAP1 PUSH31 0xFFFFFFFFFFFFFFFFFFFFFFFFFFFFFFFFFFFFFFFFFFFFFFFFFFFFFFFFFFFFFF NOT AND SWAP1 DUP2 PUSH0 BYTE SWAP1 MSTORE8 POP PUSH1 0x4 DUP4 SWAP1 SHR SWAP3 POP DUP1 PUSH2 0x3F8 SWAP1 PUSH2 0x79C JUMP JUMPDEST SWAP1 POP PUSH2 0x363 JUMP JUMPDEST POP PUSH0 DUP3 EQ PUSH2 0x446 JUMPI DUP5 DUP5 PUSH1 0x40 MLOAD PUSH32 0xE22E27EB00000000000000000000000000000000000000000000000000000000 DUP2 MSTORE PUSH1 0x4 ADD PUSH2 0x43D SWAP3 SWAP2 SWAP1 PUSH2 0x7D2 JUMP JUMPDEST PUSH1 0x40 MLOAD DUP1 SWAP2 SUB SWAP1 REVERT JUMPDEST DUP1 SWAP3 POP POP POP SWAP3 SWAP2 POP POP JUMP JUMPDEST PUSH0 DUP2 ISZERO ISZERO SWAP1 POP SWAP2 SWAP1 POP JUMP JUMPDEST PUSH0 PUSH1 0x40 MLOAD SWAP1 POP SWAP1 JUMP JUMPDEST PUSH0 DUP1 REVERT JUMPDEST PUSH0 DUP1 REVERT JUMPDEST PUSH0 DUP2 SWAP1 POP SWAP2 SWAP1 POP JUMP JUMPDEST PUSH2 0x47F DUP2 PUSH2 0x46D JUMP JUMPDEST DUP2 EQ PUSH2 0x489 JUMPI PUSH0 DUP1 REVERT JUMPDEST POP JUMP JUMPDEST PUSH0 DUP2 CALLDATALOAD SWAP1 POP PUSH2 0x49A DUP2 PUSH2 0x476 JUMP JUMPDEST SWAP3 SWAP2 POP POP JUMP JUMPDEST PUSH0 PUSH1 0x20 DUP3 DUP5 SUB SLT ISZERO PUSH2 0x4B5 JUMPI PUSH2 0x4B4 PUSH2 0x465 JUMP JUMPDEST JUMPDEST PUSH0 PUSH2 0x4C2 DUP5 DUP3 DUP6 ADD PUSH2 0x48C JUMP JUMPDEST SWAP2 POP POP SWAP3 SWAP2 POP POP JUMP JUMPDEST PUSH0 DUP2 MLOAD SWAP1 POP SWAP2 SWAP1 POP JUMP JUMPDEST PUSH0 DUP3 DUP3 MSTORE PUSH1 0x20 DUP3 ADD SWAP1 POP SWAP3 SWAP2 POP POP JUMP JUMPDEST DUP3 DUP2 DUP4 MCOPY PUSH0 DUP4 DUP4 ADD MSTORE POP POP POP JUMP JUMPDEST PUSH0 PUSH1 0x1F NOT PUSH1 0x1F DUP4 ADD AND SWAP1 POP SWAP2 SWAP1 POP JUMP JUMPDEST PUSH0 PUSH2 0x50D DUP3 PUSH2 0x4CB JUMP JUMPDEST PUSH2 0x517 DUP2 DUP6 PUSH2 0x4D5 JUMP JUMPDEST SWAP4 POP PUSH2 0x527 DUP2 DUP6 PUSH1 0x20 DUP7 ADD PUSH2 0x4E5 JUMP JUMPDEST PUSH2 0x530 DUP2 PUSH2 0x4F3 JUMP JUMPDEST DUP5 ADD SWAP2 POP POP SWAP3 SWAP2 POP POP JUMP JUMPDEST PUSH0 PUSH1 0x20 DUP3 ADD SWAP1 POP DUP2 DUP2 SUB PUSH0 DUP4 ADD MSTORE PUSH2 0x553 DUP2 DUP5 PUSH2 0x503 JUMP JUMPDEST SWAP1 POP SWAP3 SWAP2 POP POP JUMP JUMPDEST PUSH0 DUP1 REVERT JUMPDEST PUSH0 DUP1 REVERT JUMPDEST PUSH32 0x4E487B7100000000000000000000000000000000000000000000000000000000 PUSH0 MSTORE PUSH1 0x41 PUSH1 0x4 MSTORE PUSH1 0x24 PUSH0 REVERT JUMPDEST PUSH2 0x599 DUP3 PUSH2 0x4F3 JUMP JUMPDEST DUP2 ADD DUP2 DUP2 LT PUSH8 0xFFFFFFFFFFFFFFFF DUP3 GT OR ISZERO PUSH2 0x5B8 JUMPI PUSH2 0x5B7 PUSH2 0x563 JUMP JUMPDEST JUMPDEST DUP1 PUSH1 0x40 MSTORE POP POP POP JUMP JUMPDEST PUSH0 PUSH2 0x5CA PUSH2 0x45C JUMP JUMPDEST SWAP1 POP PUSH2 0x5D6 DUP3 DUP3 PUSH2 0x590 JUMP JUMPDEST SWAP2 SWAP1 POP JUMP JUMPDEST PUSH0 PUSH8 0xFFFFFFFFFFFFFFFF DUP3 GT ISZERO PUSH2 0x5F5 JUMPI PUSH2 0x5F4 PUSH2 0x563 JUMP JUMPDEST JUMPDEST PUSH2 0x5FE DUP3 PUSH2 0x4F3 JUMP JUMPDEST SWAP1 POP PUSH1 0x20 DUP2 ADD SWAP1 POP SWAP2 SWAP1 POP JUMP JUMPDEST DUP3 DUP2 DUP4 CALLDATACOPY PUSH0 DUP4 DUP4 ADD MSTORE POP POP POP JUMP JUMPDEST PUSH0 PUSH2 0x62B PUSH2 0x626 DUP5 PUSH2 0x5DB JUMP JUMPDEST PUSH2 0x5C1 JUMP JUMPDEST SWAP1 POP DUP3 DUP2 MSTORE PUSH1 0x20 DUP2 ADD DUP5 DUP5 DUP5 ADD GT ISZERO PUSH2 0x647 JUMPI PUSH2 0x646 PUSH2 0x55F JUMP JUMPDEST JUMPDEST PUSH2 0x652 DUP5 DUP3 DUP6 PUSH2 0x60B JUMP JUMPDEST POP SWAP4 SWAP3 POP POP POP JUMP JUMPDEST PUSH0 DUP3 PUSH1 0x1F DUP4 ADD SLT PUSH2 0x66E JUMPI PUSH2 0x66D PUSH2 0x55B JUMP JUMPDEST JUMPDEST DUP2 CALLDATALOAD PUSH2 0x67E DUP5 DUP3 PUSH1 0x20 DUP7 ADD PUSH2 0x619 JUMP JUMPDEST SWAP2 POP POP SWAP3 SWAP2 POP POP JUMP JUMPDEST PUSH0 PUSH1 0x20 DUP3 DUP5 SUB SLT ISZERO PUSH2 0x69C JUMPI PUSH2 0x69B PUSH2 0x465 JUMP JUMPDEST JUMPDEST PUSH0 DUP3 ADD CALLDATALOAD PUSH8 0xFFFFFFFFFFFFFFFF DUP2 GT ISZERO PUSH2 0x6B9 JUMPI PUSH2 0x6B8 PUSH2 0x469 JUMP JUMPDEST JUMPDEST PUSH2 0x6C5 DUP5 DUP3 DUP6 ADD PUSH2 0x65A JUMP JUMPDEST SWAP2 POP POP SWAP3 SWAP2 POP POP JUMP JUMPDEST PUSH32 0x4E487B7100000000000000000000000000000000000000000000000000000000 PUSH0 MSTORE PUSH1 0x11 PUSH1 0x4 MSTORE PUSH1 0x24 PUSH0 REVERT JUMPDEST PUSH0 PUSH2 0x705 DUP3 PUSH2 0x46D JUMP JUMPDEST SWAP2 POP PUSH2 0x710 DUP4 PUSH2 0x46D JUMP JUMPDEST SWAP3 POP DUP3 DUP3 MUL PUSH2 0x71E DUP2 PUSH2 0x46D JUMP JUMPDEST SWAP2 POP DUP3 DUP3 DIV DUP5 EQ DUP4 ISZERO OR PUSH2 0x735 JUMPI PUSH2 0x734 PUSH2 0x6CE JUMP JUMPDEST JUMPDEST POP SWAP3 SWAP2 POP POP JUMP JUMPDEST PUSH0 PUSH2 0x746 DUP3 PUSH2 0x46D JUMP JUMPDEST SWAP2 POP PUSH2 0x751 DUP4 PUSH2 0x46D JUMP JUMPDEST SWAP3 POP DUP3 DUP3 ADD SWAP1 POP DUP1 DUP3 GT ISZERO PUSH2 0x769 JUMPI PUSH2 0x768 PUSH2 0x6CE JUMP JUMPDEST JUMPDEST SWAP3 SWAP2 POP POP JUMP JUMPDEST PUSH32 0x4E487B7100000000000000000000000000000000000000000000000000000000 PUSH0 MSTORE PUSH1 0x32 PUSH1 0x4 MSTORE PUSH1 0x24 PUSH0 REVERT JUMPDEST PUSH0 PUSH2 0x7A6 DUP3 PUSH2 0x46D JUMP JUMPDEST SWAP2 POP PUSH0 DUP3 SUB PUSH2 0x7B8 JUMPI PUSH2 0x7B7 PUSH2 0x6CE JUMP JUMPDEST JUMPDEST PUSH1 0x1 DUP3 SUB SWAP1 POP SWAP2 SWAP1 POP JUMP JUMPDEST PUSH2 0x7CC DUP2 PUSH2 0x46D JUMP JUMPDEST DUP3 MSTORE POP POP JUMP JUMPDEST PUSH0 PUSH1 0x40 DUP3 ADD SWAP1 POP PUSH2 0x7E5 PUSH0 DUP4 ADD DUP6 PUSH2 0x7C3 JUMP JUMPDEST PUSH2 0x7F2 PUSH1 0x20 DUP4 ADD DUP5 PUSH2 0x7C3 JUMP JUMPDEST SWAP4 SWAP3 POP POP POP JUMP INVALID LOG2 PUSH5 0x6970667358 0x22 SLT KECCAK256 DELEGATECALL 0xDA 0xE8 PUSH31 0x44424B413831937BDC2F42A2107FEB1C77EC9E93CE56E40D83B085BC64736F PUSH13 0x634300081A0033000000000000 "
		},
		"gasEstimates": {
			"creation": {
				"codeDepositCost": "419000",
				"executionCost": "453",
				"totalCost": "419453"
			},
			"external": {
				"getString1(uint256)": "infinite",
				"getStrings(uint256)": "infinite",
				"saySomething()": "infinite",
				"saySomething(string)": "infinite"
			}
		},
		"methodIdentifiers": {
			"getString1(uint256)": "d6ee0f32",
			"getStrings(uint256)": "e8e5726a",
			"saySomething()": "fbd61553",
			"saySomething(string)": "fe6b3783"
		}
	},
	"abi": [
		{
			"inputs": [
				{
					"internalType": "uint256",
					"name": "value",
					"type": "uint256"
				},
				{
					"internalType": "uint256",
					"name": "length",
					"type": "uint256"
				}
			],
			"name": "StringsInsufficientHexLength",
			"type": "error"
		},
		{
			"inputs": [
				{
					"internalType": "uint256",
					"name": "_number",
					"type": "uint256"
				}
			],
			"name": "getString1",
			"outputs": [
				{
					"internalType": "string",
					"name": "",
					"type": "string"
				}
			],
			"stateMutability": "pure",
			"type": "function"
		},
		{
			"inputs": [
				{
					"internalType": "uint256",
					"name": "_number",
					"type": "uint256"
				}
			],
			"name": "getStrings",
			"outputs": [
				{
					"internalType": "string",
					"name": "",
					"type": "string"
				}
			],
			"stateMutability": "pure",
			"type": "function"
		},
		{
			"inputs": [],
			"name": "saySomething",
			"outputs": [
				{
					"internalType": "string",
					"name": "",
					"type": "string"
				}
			],
			"stateMutability": "pure",
			"type": "function"
		},
		{
			"inputs": [
				{
					"internalType": "string",
					"name": "something",
					"type": "string"
				}
			],
			"name": "saySomething",
			"outputs": [
				{
					"internalType": "string",
					"name": "",
					"type": "string"
				}
			],
			"stateMutability": "pure",
			"type": "function"
		}
	]
}