{
	"data": {
		"bytecode": {
			"linkReferences": {},
			"object": "60806040526040518060600160405280600160ff168152602001600260ff168152602001600360ff168152505f90600360389291906048565b503480156043575f80fd5b5060ac565b828054828255905f5260205f209081019282156084579160200282015b828111156083578251829060ff169055916020019190600101906065565b5b509050608f91906093565b5090565b5b8082111560a8575f815f9055506001016094565b5090565b610490806100b95f395ff3fe608060405234801561000f575f80fd5b5060043610610055575f3560e01c80633dece511146100595780636a8d1e08146100795780636f590330146100835780638552dc081461008d5780639b1a379c146100ad575b5f80fd5b6100616100de565b604051610070939291906102aa565b60405180910390f35b610081610114565b005b61008b610139565b005b61009561016c565b6040516100a4939291906102aa565b60405180910390f35b6100c760048036038101906100c29190610348565b6101a2565b6040516100d592919061040b565b60405180910390f35b5f806100e86101b1565b600292505f91506040518060600160405280600381526020016002815260200160018152509050909192565b5f6064815f8154811061012a5761012961042d565b5b905f5260205f20018190555050565b5f806101436101b1565b61014b6100de565b80935081945082955050505061015f6100de565b9091505080925050505050565b5f806101766101b1565b600180604051806060016040528060018152602001600281526020016008815250925092509250909192565b365f8383915091509250929050565b6040518060600160405280600390602082028036833780820191505090505090565b5f819050919050565b6101e5816101d3565b82525050565b5f8115159050919050565b6101ff816101eb565b82525050565b5f60039050919050565b5f81905092915050565b5f819050919050565b61022b816101d3565b82525050565b5f61023c8383610222565b60208301905092915050565b5f602082019050919050565b61025d81610205565b610267818461020f565b925061027282610219565b805f5b838110156102a25781516102898782610231565b965061029483610248565b925050600181019050610275565b505050505050565b5f60a0820190506102bd5f8301866101dc565b6102ca60208301856101f6565b6102d76040830184610254565b949350505050565b5f80fd5b5f80fd5b5f80fd5b5f80fd5b5f80fd5b5f8083601f840112610308576103076102e7565b5b8235905067ffffffffffffffff811115610325576103246102eb565b5b602083019150836020820283011115610341576103406102ef565b5b9250929050565b5f806020838503121561035e5761035d6102df565b5b5f83013567ffffffffffffffff81111561037b5761037a6102e3565b5b610387858286016102f3565b92509250509250929050565b5f82825260208201905092915050565b5f80fd5b82818337505050565b5f6103bb8385610393565b93507f07ffffffffffffffffffffffffffffffffffffffffffffffffffffffffffffff8311156103ee576103ed6103a3565b5b6020830292506103ff8385846103a7565b82840190509392505050565b5f6020820190508181035f8301526104248184866103b0565b90509392505050565b7f4e487b71000000000000000000000000000000000000000000000000000000005f52603260045260245ffdfea26469706673582212204c02d811ed4670f26563c210c37cf1eb1b2d31f1c28cc308ef2f25406d3f328564736f6c634300081a0033",
			"opcodes": "PUSH1 0x80 PUSH1 0x40 MSTORE PUSH1 0x40 MLOAD DUP1 PUSH1 0x60 ADD PUSH1 0x40 MSTORE DUP1 PUSH1 0x1 PUSH1 0xFF AND DUP2 MSTORE PUSH1 0x20 ADD PUSH1 0x2 PUSH1 0xFF AND DUP2 MSTORE PUSH1 0x20 ADD PUSH1 0x3 PUSH1 0xFF AND DUP2 MSTORE POP PUSH0 SWAP1 PUSH1 0x3 PUSH1 0x38 SWAP3 SWAP2 SWAP1 PUSH1 0x48 JUMP JUMPDEST POP CALLVALUE DUP1 ISZERO PUSH1 0x43 JUMPI PUSH0 DUP1 REVERT JUMPDEST POP PUSH1 0xAC JUMP JUMPDEST DUP3 DUP1 SLOAD DUP3 DUP3 SSTORE SWAP1 PUSH0 MSTORE PUSH1 0x20 PUSH0 KECCAK256 SWAP1 DUP2 ADD SWAP3 DUP3 ISZERO PUSH1 0x84 JUMPI SWAP2 PUSH1 0x20 MUL DUP3 ADD JUMPDEST DUP3 DUP2 GT ISZERO PUSH1 0x83 JUMPI DUP3 MLOAD DUP3 SWAP1 PUSH1 0xFF AND SWAP1 SSTORE SWAP2 PUSH1 0x20 ADD SWAP2 SWAP1 PUSH1 0x1 ADD SWAP1 PUSH1 0x65 JUMP JUMPDEST JUMPDEST POP SWAP1 POP PUSH1 0x8F SWAP2 SWAP1 PUSH1 0x93 JUMP JUMPDEST POP SWAP1 JUMP JUMPDEST JUMPDEST DUP1 DUP3 GT ISZERO PUSH1 0xA8 JUMPI PUSH0 DUP2 PUSH0 SWAP1 SSTORE POP PUSH1 0x1 ADD PUSH1 0x94 JUMP JUMPDEST POP SWAP1 JUMP JUMPDEST PUSH2 0x490 DUP1 PUSH2 0xB9 PUSH0 CODECOPY PUSH0 RETURN INVALID PUSH1 0x80 PUSH1 0x40 MSTORE CALLVALUE DUP1 ISZERO PUSH2 0xF JUMPI PUSH0 DUP1 REVERT JUMPDEST POP PUSH1 0x4 CALLDATASIZE LT PUSH2 0x55 JUMPI PUSH0 CALLDATALOAD PUSH1 0xE0 SHR DUP1 PUSH4 0x3DECE511 EQ PUSH2 0x59 JUMPI DUP1 PUSH4 0x6A8D1E08 EQ PUSH2 0x79 JUMPI DUP1 PUSH4 0x6F590330 EQ PUSH2 0x83 JUMPI DUP1 PUSH4 0x8552DC08 EQ PUSH2 0x8D JUMPI DUP1 PUSH4 0x9B1A379C EQ PUSH2 0xAD JUMPI JUMPDEST PUSH0 DUP1 REVERT JUMPDEST PUSH2 0x61 PUSH2 0xDE JUMP JUMPDEST PUSH1 0x40 MLOAD PUSH2 0x70 SWAP4 SWAP3 SWAP2 SWAP1 PUSH2 0x2AA JUMP JUMPDEST PUSH1 0x40 MLOAD DUP1 SWAP2 SUB SWAP1 RETURN JUMPDEST PUSH2 0x81 PUSH2 0x114 JUMP JUMPDEST STOP JUMPDEST PUSH2 0x8B PUSH2 0x139 JUMP JUMPDEST STOP JUMPDEST PUSH2 0x95 PUSH2 0x16C JUMP JUMPDEST PUSH1 0x40 MLOAD PUSH2 0xA4 SWAP4 SWAP3 SWAP2 SWAP1 PUSH2 0x2AA JUMP JUMPDEST PUSH1 0x40 MLOAD DUP1 SWAP2 SUB SWAP1 RETURN JUMPDEST PUSH2 0xC7 PUSH1 0x4 DUP1 CALLDATASIZE SUB DUP2 ADD SWAP1 PUSH2 0xC2 SWAP2 SWAP1 PUSH2 0x348 JUMP JUMPDEST PUSH2 0x1A2 JUMP JUMPDEST PUSH1 0x40 MLOAD PUSH2 0xD5 SWAP3 SWAP2 SWAP1 PUSH2 0x40B JUMP JUMPDEST PUSH1 0x40 MLOAD DUP1 SWAP2 SUB SWAP1 RETURN JUMPDEST PUSH0 DUP1 PUSH2 0xE8 PUSH2 0x1B1 JUMP JUMPDEST PUSH1 0x2 SWAP3 POP PUSH0 SWAP2 POP PUSH1 0x40 MLOAD DUP1 PUSH1 0x60 ADD PUSH1 0x40 MSTORE DUP1 PUSH1 0x3 DUP2 MSTORE PUSH1 0x20 ADD PUSH1 0x2 DUP2 MSTORE PUSH1 0x20 ADD PUSH1 0x1 DUP2 MSTORE POP SWAP1 POP SWAP1 SWAP2 SWAP3 JUMP JUMPDEST PUSH0 PUSH1 0x64 DUP2 PUSH0 DUP2 SLOAD DUP2 LT PUSH2 0x12A JUMPI PUSH2 0x129 PUSH2 0x42D JUMP JUMPDEST JUMPDEST SWAP1 PUSH0 MSTORE PUSH1 0x20 PUSH0 KECCAK256 ADD DUP2 SWAP1 SSTORE POP POP JUMP JUMPDEST PUSH0 DUP1 PUSH2 0x143 PUSH2 0x1B1 JUMP JUMPDEST PUSH2 0x14B PUSH2 0xDE JUMP JUMPDEST DUP1 SWAP4 POP DUP2 SWAP5 POP DUP3 SWAP6 POP POP POP POP PUSH2 0x15F PUSH2 0xDE JUMP JUMPDEST SWAP1 SWAP2 POP POP DUP1 SWAP3 POP POP POP POP POP JUMP JUMPDEST PUSH0 DUP1 PUSH2 0x176 PUSH2 0x1B1 JUMP JUMPDEST PUSH1 0x1 DUP1 PUSH1 0x40 MLOAD DUP1 PUSH1 0x60 ADD PUSH1 0x40 MSTORE DUP1 PUSH1 0x1 DUP2 MSTORE PUSH1 0x20 ADD PUSH1 0x2 DUP2 MSTORE PUSH1 0x20 ADD PUSH1 0x8 DUP2 MSTORE POP SWAP3 POP SWAP3 POP SWAP3 POP SWAP1 SWAP2 SWAP3 JUMP JUMPDEST CALLDATASIZE PUSH0 DUP4 DUP4 SWAP2 POP SWAP2 POP SWAP3 POP SWAP3 SWAP1 POP JUMP JUMPDEST PUSH1 0x40 MLOAD DUP1 PUSH1 0x60 ADD PUSH1 0x40 MSTORE DUP1 PUSH1 0x3 SWAP1 PUSH1 0x20 DUP3 MUL DUP1 CALLDATASIZE DUP4 CALLDATACOPY DUP1 DUP3 ADD SWAP2 POP POP SWAP1 POP POP SWAP1 JUMP JUMPDEST PUSH0 DUP2 SWAP1 POP SWAP2 SWAP1 POP JUMP JUMPDEST PUSH2 0x1E5 DUP2 PUSH2 0x1D3 JUMP JUMPDEST DUP3 MSTORE POP POP JUMP JUMPDEST PUSH0 DUP2 ISZERO ISZERO SWAP1 POP SWAP2 SWAP1 POP JUMP JUMPDEST PUSH2 0x1FF DUP2 PUSH2 0x1EB JUMP JUMPDEST DUP3 MSTORE POP POP JUMP JUMPDEST PUSH0 PUSH1 0x3 SWAP1 POP SWAP2 SWAP1 POP JUMP JUMPDEST PUSH0 DUP2 SWAP1 POP SWAP3 SWAP2 POP POP JUMP JUMPDEST PUSH0 DUP2 SWAP1 POP SWAP2 SWAP1 POP JUMP JUMPDEST PUSH2 0x22B DUP2 PUSH2 0x1D3 JUMP JUMPDEST DUP3 MSTORE POP POP JUMP JUMPDEST PUSH0 PUSH2 0x23C DUP4 DUP4 PUSH2 0x222 JUMP JUMPDEST PUSH1 0x20 DUP4 ADD SWAP1 POP SWAP3 SWAP2 POP POP JUMP JUMPDEST PUSH0 PUSH1 0x20 DUP3 ADD SWAP1 POP SWAP2 SWAP1 POP JUMP JUMPDEST PUSH2 0x25D DUP2 PUSH2 0x205 JUMP JUMPDEST PUSH2 0x267 DUP2 DUP5 PUSH2 0x20F JUMP JUMPDEST SWAP3 POP PUSH2 0x272 DUP3 PUSH2 0x219 JUMP JUMPDEST DUP1 PUSH0 JUMPDEST DUP4 DUP2 LT ISZERO PUSH2 0x2A2 JUMPI DUP2 MLOAD PUSH2 0x289 DUP8 DUP3 PUSH2 0x231 JUMP JUMPDEST SWAP7 POP PUSH2 0x294 DUP4 PUSH2 0x248 JUMP JUMPDEST SWAP3 POP POP PUSH1 0x1 DUP2 ADD SWAP1 POP PUSH2 0x275 JUMP JUMPDEST POP POP POP POP POP POP JUMP JUMPDEST PUSH0 PUSH1 0xA0 DUP3 ADD SWAP1 POP PUSH2 0x2BD PUSH0 DUP4 ADD DUP7 PUSH2 0x1DC JUMP JUMPDEST PUSH2 0x2CA PUSH1 0x20 DUP4 ADD DUP6 PUSH2 0x1F6 JUMP JUMPDEST PUSH2 0x2D7 PUSH1 0x40 DUP4 ADD DUP5 PUSH2 0x254 JUMP JUMPDEST SWAP5 SWAP4 POP POP POP POP JUMP JUMPDEST PUSH0 DUP1 REVERT JUMPDEST PUSH0 DUP1 REVERT JUMPDEST PUSH0 DUP1 REVERT JUMPDEST PUSH0 DUP1 REVERT JUMPDEST PUSH0 DUP1 REVERT JUMPDEST PUSH0 DUP1 DUP4 PUSH1 0x1F DUP5 ADD SLT PUSH2 0x308 JUMPI PUSH2 0x307 PUSH2 0x2E7 JUMP JUMPDEST JUMPDEST DUP3 CALLDATALOAD SWAP1 POP PUSH8 0xFFFFFFFFFFFFFFFF DUP2 GT ISZERO PUSH2 0x325 JUMPI PUSH2 0x324 PUSH2 0x2EB JUMP JUMPDEST JUMPDEST PUSH1 0x20 DUP4 ADD SWAP2 POP DUP4 PUSH1 0x20 DUP3 MUL DUP4 ADD GT ISZERO PUSH2 0x341 JUMPI PUSH2 0x340 PUSH2 0x2EF JUMP JUMPDEST JUMPDEST SWAP3 POP SWAP3 SWAP1 POP JUMP JUMPDEST PUSH0 DUP1 PUSH1 0x20 DUP4 DUP6 SUB SLT ISZERO PUSH2 0x35E JUMPI PUSH2 0x35D PUSH2 0x2DF JUMP JUMPDEST JUMPDEST PUSH0 DUP4 ADD CALLDATALOAD PUSH8 0xFFFFFFFFFFFFFFFF DUP2 GT ISZERO PUSH2 0x37B JUMPI PUSH2 0x37A PUSH2 0x2E3 JUMP JUMPDEST JUMPDEST PUSH2 0x387 DUP6 DUP3 DUP7 ADD PUSH2 0x2F3 JUMP JUMPDEST SWAP3 POP SWAP3 POP POP SWAP3 POP SWAP3 SWAP1 POP JUMP JUMPDEST PUSH0 DUP3 DUP3 MSTORE PUSH1 0x20 DUP3 ADD SWAP1 POP SWAP3 SWAP2 POP POP JUMP JUMPDEST PUSH0 DUP1 REVERT JUMPDEST DUP3 DUP2 DUP4 CALLDATACOPY POP POP POP JUMP JUMPDEST PUSH0 PUSH2 0x3BB DUP4 DUP6 PUSH2 0x393 JUMP JUMPDEST SWAP4 POP PUSH32 0x7FFFFFFFFFFFFFFFFFFFFFFFFFFFFFFFFFFFFFFFFFFFFFFFFFFFFFFFFFFFFFF DUP4 GT ISZERO PUSH2 0x3EE JUMPI PUSH2 0x3ED PUSH2 0x3A3 JUMP JUMPDEST JUMPDEST PUSH1 0x20 DUP4 MUL SWAP3 POP PUSH2 0x3FF DUP4 DUP6 DUP5 PUSH2 0x3A7 JUMP JUMPDEST DUP3 DUP5 ADD SWAP1 POP SWAP4 SWAP3 POP POP POP JUMP JUMPDEST PUSH0 PUSH1 0x20 DUP3 ADD SWAP1 POP DUP2 DUP2 SUB PUSH0 DUP4 ADD MSTORE PUSH2 0x424 DUP2 DUP5 DUP7 PUSH2 0x3B0 JUMP JUMPDEST SWAP1 POP SWAP4 SWAP3 POP POP POP JUMP JUMPDEST PUSH32 0x4E487B7100000000000000000000000000000000000000000000000000000000 PUSH0 MSTORE PUSH1 0x32 PUSH1 0x4 MSTORE PUSH1 0x24 PUSH0 REVERT INVALID LOG2 PUSH5 0x6970667358 0x22 SLT KECCAK256 0x4C MUL 0xD8 GT 0xED CHAINID PUSH17 0xF26563C210C37CF1EB1B2D31F1C28CC308 0xEF 0x2F 0x25 BLOCKHASH PUSH14 0x3F328564736F6C634300081A0033 "
		},
		"gasEstimates": {
			"creation": {
				"codeDepositCost": "233600",
				"executionCost": "infinite",
				"totalCost": "infinite"
			},
			"external": {
				"fCalldata(uint256[])": "infinite",
				"fStorage()": "24438",
				"readReturn()": "infinite",
				"returnNamed()": "infinite",
				"returnNamed2()": "infinite"
			}
		},
		"methodIdentifiers": {
			"fCalldata(uint256[])": "9b1a379c",
			"fStorage()": "6a8d1e08",
			"readReturn()": "6f590330",
			"returnNamed()": "3dece511",
			"returnNamed2()": "8552dc08"
		}
	},
	"abi": [
		{
			"inputs": [
				{
					"internalType": "uint256[]",
					"name": "_x",
					"type": "uint256[]"
				}
			],
			"name": "fCalldata",
			"outputs": [
				{
					"internalType": "uint256[]",
					"name": "",
					"type": "uint256[]"
				}
			],
			"stateMutability": "pure",
			"type": "function"
		},
		{
			"inputs": [],
			"name": "fStorage",
			"outputs": [],
			"stateMutability": "nonpayable",
			"type": "function"
		},
		{
			"inputs": [],
			"name": "readReturn",
			"outputs": [],
			"stateMutability": "pure",
			"type": "function"
		},
		{
			"inputs": [],
			"name": "returnNamed",
			"outputs": [
				{
					"internalType": "uint256",
					"name": "_number",
					"type": "uint256"
				},
				{
					"internalType": "bool",
					"name": "_bool",
					"type": "bool"
				},
				{
					"internalType": "uint256[3]",
					"name": "_array",
					"type": "uint256[3]"
				}
			],
			"stateMutability": "pure",
			"type": "function"
		},
		{
			"inputs": [],
			"name": "returnNamed2",
			"outputs": [
				{
					"internalType": "uint256",
					"name": "_number",
					"type": "uint256"
				},
				{
					"internalType": "bool",
					"name": "_bool",
					"type": "bool"
				},
				{
					"internalType": "uint256[3]",
					"name": "_array",
					"type": "uint256[3]"
				}
			],
			"stateMutability": "pure",
			"type": "function"
		}
	]
}