{
	"data": {
		"bytecode": {
			"linkReferences": {},
			"object": "6080604052348015600e575f80fd5b50609480601a5f395ff3fe6080604052348015600e575f80fd5b50600436106026575f3560e01c8063dd49702c14602a575b5f80fd5b60306032565b005b60645f80018190555060c85f600101819055505f61012c815f018190555061019081600101819055505056fea2646970667358221220499d9b5afd433ee3447cbc3e4e92c3e16cf69b8484dc8b312a515c5f1198b69764736f6c634300081a0033",
			"opcodes": "PUSH1 0x80 PUSH1 0x40 MSTORE CALLVALUE DUP1 ISZERO PUSH1 0xE JUMPI PUSH0 DUP1 REVERT JUMPDEST POP PUSH1 0x94 DUP1 PUSH1 0x1A PUSH0 CODECOPY PUSH0 RETURN INVALID PUSH1 0x80 PUSH1 0x40 MSTORE CALLVALUE DUP1 ISZERO PUSH1 0xE JUMPI PUSH0 DUP1 REVERT JUMPDEST POP PUSH1 0x4 CALLDATASIZE LT PUSH1 0x26 JUMPI PUSH0 CALLDATALOAD PUSH1 0xE0 SHR DUP1 PUSH4 0xDD49702C EQ PUSH1 0x2A JUMPI JUMPDEST PUSH0 DUP1 REVERT JUMPDEST PUSH1 0x30 PUSH1 0x32 JUMP JUMPDEST STOP JUMPDEST PUSH1 0x64 PUSH0 DUP1 ADD DUP2 SWAP1 SSTORE POP PUSH1 0xC8 PUSH0 PUSH1 0x1 ADD DUP2 SWAP1 SSTORE POP PUSH0 PUSH2 0x12C DUP2 PUSH0 ADD DUP2 SWAP1 SSTORE POP PUSH2 0x190 DUP2 PUSH1 0x1 ADD DUP2 SWAP1 SSTORE POP POP JUMP INVALID LOG2 PUSH5 0x6970667358 0x22 SLT KECCAK256 BLOBHASH SWAP14 SWAP12 GAS REVERT NUMBER RETURNDATACOPY 0xE3 PREVRANDAO PUSH29 0xBC3E4E92C3E16CF69B8484DC8B312A515C5F1198B69764736F6C634300 ADDMOD BYTE STOP CALLER "
		},
		"gasEstimates": {
			"creation": {
				"codeDepositCost": "29600",
				"executionCost": "79",
				"totalCost": "29679"
			},
			"external": {
				"initStudent()": "54402"
			}
		},
		"methodIdentifiers": {
			"initStudent()": "dd49702c"
		}
	},
	"abi": [
		{
			"inputs": [],
			"name": "initStudent",
			"outputs": [],
			"stateMutability": "nonpayable",
			"type": "function"
		}
	]
}